{
  "abi": [
    {
      "inputs": [],
      "stateMutability": "nonpayable",
      "type": "constructor"
    },
    {
      "inputs": [
        {
          "internalType": "address",
          "name": "sender",
          "type": "address"
        },
        {
          "internalType": "uint256",
          "name": "tokenId",
          "type": "uint256"
        },
        {
          "internalType": "address",
          "name": "owner",
          "type": "address"
        }
      ],
      "name": "ERC721IncorrectOwner",
      "type": "error"
    },
    {
      "inputs": [
        {
          "internalType": "address",
          "name": "operator",
          "type": "address"
        },
        {
          "internalType": "uint256",
          "name": "tokenId",
          "type": "uint256"
        }
      ],
      "name": "ERC721InsufficientApproval",
      "type": "error"
    },
    {
      "inputs": [
        {
          "internalType": "address",
          "name": "approver",
          "type": "address"
        }
      ],
      "name": "ERC721InvalidApprover",
      "type": "error"
    },
    {
      "inputs": [
        {
          "internalType": "address",
          "name": "operator",
          "type": "address"
        }
      ],
      "name": "ERC721InvalidOperator",
      "type": "error"
    },
    {
      "inputs": [
        {
          "internalType": "address",
          "name": "owner",
          "type": "address"
        }
      ],
      "name": "ERC721InvalidOwner",
      "type": "error"
    },
    {
      "inputs": [
        {
          "internalType": "address",
          "name": "receiver",
          "type": "address"
        }
      ],
      "name": "ERC721InvalidReceiver",
      "type": "error"
    },
    {
      "inputs": [
        {
          "internalType": "address",
          "name": "sender",
          "type": "address"
        }
      ],
      "name": "ERC721InvalidSender",
      "type": "error"
    },
    {
      "inputs": [
        {
          "internalType": "uint256",
          "name": "tokenId",
          "type": "uint256"
        }
      ],
      "name": "ERC721NonexistentToken",
      "type": "error"
    },
    {
      "anonymous": false,
      "inputs": [
        {
          "indexed": true,
          "internalType": "address",
          "name": "owner",
          "type": "address"
        },
        {
          "indexed": true,
          "internalType": "address",
          "name": "approved",
          "type": "address"
        },
        {
          "indexed": true,
          "internalType": "uint256",
          "name": "tokenId",
          "type": "uint256"
        }
      ],
      "name": "Approval",
      "type": "event"
    },
    {
      "anonymous": false,
      "inputs": [
        {
          "indexed": true,
          "internalType": "address",
          "name": "owner",
          "type": "address"
        },
        {
          "indexed": true,
          "internalType": "address",
          "name": "operator",
          "type": "address"
        },
        {
          "indexed": false,
          "internalType": "bool",
          "name": "approved",
          "type": "bool"
        }
      ],
      "name": "ApprovalForAll",
      "type": "event"
    },
    {
      "anonymous": false,
      "inputs": [
        {
          "indexed": false,
          "internalType": "uint256",
          "name": "_fromTokenId",
          "type": "uint256"
        },
        {
          "indexed": false,
          "internalType": "uint256",
          "name": "_toTokenId",
          "type": "uint256"
        }
      ],
      "name": "BatchMetadataUpdate",
      "type": "event"
    },
    {
      "anonymous": false,
      "inputs": [
        {
          "indexed": false,
          "internalType": "uint256",
          "name": "_tokenId",
          "type": "uint256"
        }
      ],
      "name": "MetadataUpdate",
      "type": "event"
    },
    {
      "anonymous": false,
      "inputs": [
        {
          "indexed": true,
          "internalType": "address",
          "name": "from",
          "type": "address"
        },
        {
          "indexed": true,
          "internalType": "address",
          "name": "to",
          "type": "address"
        },
        {
          "indexed": true,
          "internalType": "uint256",
          "name": "tokenId",
          "type": "uint256"
        }
      ],
      "name": "Transfer",
      "type": "event"
    },
    {
      "inputs": [
        {
          "internalType": "address",
          "name": "to",
          "type": "address"
        },
        {
          "internalType": "uint256",
          "name": "tokenId",
          "type": "uint256"
        }
      ],
      "name": "approve",
      "outputs": [],
      "stateMutability": "nonpayable",
      "type": "function"
    },
    {
      "inputs": [
        {
          "internalType": "address",
          "name": "owner",
          "type": "address"
        }
      ],
      "name": "balanceOf",
      "outputs": [
        {
          "internalType": "uint256",
          "name": "",
          "type": "uint256"
        }
      ],
      "stateMutability": "view",
      "type": "function"
    },
    {
      "inputs": [
        {
          "internalType": "uint256",
          "name": "tokenId",
          "type": "uint256"
        }
      ],
      "name": "getApproved",
      "outputs": [
        {
          "internalType": "address",
          "name": "",
          "type": "address"
        }
      ],
      "stateMutability": "view",
      "type": "function"
    },
    {
      "inputs": [
        {
          "internalType": "address",
          "name": "owner",
          "type": "address"
        },
        {
          "internalType": "address",
          "name": "operator",
          "type": "address"
        }
      ],
      "name": "isApprovedForAll",
      "outputs": [
        {
          "internalType": "bool",
          "name": "",
          "type": "bool"
        }
      ],
      "stateMutability": "view",
      "type": "function"
    },
    {
      "inputs": [
        {
          "internalType": "address",
          "name": "to",
          "type": "address"
        },
        {
          "internalType": "uint256",
          "name": "tokenId",
          "type": "uint256"
        }
      ],
      "name": "mintToken",
      "outputs": [],
      "stateMutability": "nonpayable",
      "type": "function"
    },
    {
      "inputs": [],
      "name": "name",
      "outputs": [
        {
          "internalType": "string",
          "name": "",
          "type": "string"
        }
      ],
      "stateMutability": "view",
      "type": "function"
    },
    {
      "inputs": [
        {
          "internalType": "uint256",
          "name": "tokenId",
          "type": "uint256"
        }
      ],
      "name": "ownerOf",
      "outputs": [
        {
          "internalType": "address",
          "name": "",
          "type": "address"
        }
      ],
      "stateMutability": "view",
      "type": "function"
    },
    {
      "inputs": [
        {
          "internalType": "address",
          "name": "from",
          "type": "address"
        },
        {
          "internalType": "address",
          "name": "to",
          "type": "address"
        },
        {
          "internalType": "uint256",
          "name": "tokenId",
          "type": "uint256"
        }
      ],
      "name": "safeTransferFrom",
      "outputs": [],
      "stateMutability": "nonpayable",
      "type": "function"
    },
    {
      "inputs": [
        {
          "internalType": "address",
          "name": "from",
          "type": "address"
        },
        {
          "internalType": "address",
          "name": "to",
          "type": "address"
        },
        {
          "internalType": "uint256",
          "name": "tokenId",
          "type": "uint256"
        },
        {
          "internalType": "bytes",
          "name": "data",
          "type": "bytes"
        }
      ],
      "name": "safeTransferFrom",
      "outputs": [],
      "stateMutability": "nonpayable",
      "type": "function"
    },
    {
      "inputs": [
        {
          "internalType": "address",
          "name": "operator",
          "type": "address"
        },
        {
          "internalType": "bool",
          "name": "approved",
          "type": "bool"
        }
      ],
      "name": "setApprovalForAll",
      "outputs": [],
      "stateMutability": "nonpayable",
      "type": "function"
    },
    {
      "inputs": [
        {
          "internalType": "bytes4",
          "name": "interfaceId",
          "type": "bytes4"
        }
      ],
      "name": "supportsInterface",
      "outputs": [
        {
          "internalType": "bool",
          "name": "",
          "type": "bool"
        }
      ],
      "stateMutability": "view",
      "type": "function"
    },
    {
      "inputs": [],
      "name": "symbol",
      "outputs": [
        {
          "internalType": "string",
          "name": "",
          "type": "string"
        }
      ],
      "stateMutability": "view",
      "type": "function"
    },
    {
      "inputs": [
        {
          "internalType": "uint256",
          "name": "tokenId",
          "type": "uint256"
        }
      ],
      "name": "tokenURI",
      "outputs": [
        {
          "internalType": "string",
          "name": "",
          "type": "string"
        }
      ],
      "stateMutability": "view",
      "type": "function"
    },
    {
      "inputs": [
        {
          "internalType": "address",
          "name": "from",
          "type": "address"
        },
        {
          "internalType": "address",
          "name": "to",
          "type": "address"
        },
        {
          "internalType": "uint256",
          "name": "tokenId",
          "type": "uint256"
        }
      ],
      "name": "transferFrom",
      "outputs": [],
      "stateMutability": "nonpayable",
      "type": "function"
    }
  ],
  "bytecode": {
    "object": "0x61010060405260436080818152906200109860a03960089062000023908262000166565b503480156200003157600080fd5b506040518060400160405280601681526020017f446f6ee28099742073656e64204e465420746f206d6500000000000000000000815250604051806040016040528060058152602001641393d3919560da1b815250816000908162000097919062000166565b506001620000a6828262000166565b5050600780546001600160a01b031916331790555062000232565b634e487b7160e01b600052604160045260246000fd5b600181811c90821680620000ec57607f821691505b6020821081036200010d57634e487b7160e01b600052602260045260246000fd5b50919050565b601f8211156200016157600081815260208120601f850160051c810160208610156200013c5750805b601f850160051c820191505b818110156200015d5782815560010162000148565b5050505b505050565b81516001600160401b03811115620001825762000182620000c1565b6200019a81620001938454620000d7565b8462000113565b602080601f831160018114620001d25760008415620001b95750858301515b600019600386901b1c1916600185901b1785556200015d565b600085815260208120601f198616915b828110156200020357888601518255948401946001909101908401620001e2565b5085821015620002225787850151600019600388901b60f8161c191681555b5050505050600190811b01905550565b610e5680620002426000396000f3fe608060405234801561001057600080fd5b50600436106100ea5760003560e01c806370a082311161008c578063a22cb46511610066578063a22cb465146101e1578063b88d4fde146101f4578063c87b56dd14610207578063e985e9c51461021a57600080fd5b806370a08231146101a557806379c65068146101c657806395d89b41146101d957600080fd5b8063095ea7b3116100c8578063095ea7b31461015757806323b872dd1461016c57806342842e0e1461017f5780636352211e1461019257600080fd5b806301ffc9a7146100ef57806306fdde0314610117578063081812fc1461012c575b600080fd5b6101026100fd366004610af8565b61022d565b60405190151581526020015b60405180910390f35b61011f610258565b60405161010e9190610b62565b61013f61013a366004610b75565b6102ea565b6040516001600160a01b03909116815260200161010e565b61016a610165366004610baa565b610313565b005b61016a61017a366004610bd4565b610322565b61016a61018d366004610bd4565b6103b2565b61013f6101a0366004610b75565b6103d2565b6101b86101b3366004610c10565b6103dd565b60405190815260200161010e565b61016a6101d4366004610baa565b610425565b61011f61042f565b61016a6101ef366004610c2b565b61043e565b61016a610202366004610c7d565b610449565b61011f610215366004610b75565b610460565b610102610228366004610d59565b6104f4565b60006001600160e01b03198216632483248360e11b1480610252575061025282610522565b92915050565b60606000805461026790610d8c565b80601f016020809104026020016040519081016040528092919081815260200182805461029390610d8c565b80156102e05780601f106102b5576101008083540402835291602001916102e0565b820191906000526020600020905b8154815290600101906020018083116102c357829003601f168201915b5050505050905090565b60006102f582610572565b506000828152600460205260409020546001600160a01b0316610252565b61031e8282336105ab565b5050565b6001600160a01b03821661035157604051633250574960e11b8152600060048201526024015b60405180910390fd5b600061035e8383336105b8565b9050836001600160a01b0316816001600160a01b0316146103ac576040516364283d7b60e01b81526001600160a01b0380861660048301526024820184905282166044820152606401610348565b50505050565b6103cd83838360405180602001604052806000815250610449565b505050565b600061025282610572565b60006001600160a01b038216610409576040516322718ad960e21b815260006004820152602401610348565b506001600160a01b031660009081526003602052604090205490565b61031e82826106b1565b60606001805461026790610d8c565b61031e3383836106cb565b610454848484610322565b6103ac8484848461076a565b60606008805461046f90610d8c565b80601f016020809104026020016040519081016040528092919081815260200182805461049b90610d8c565b80156104e85780601f106104bd576101008083540402835291602001916104e8565b820191906000526020600020905b8154815290600101906020018083116104cb57829003601f168201915b50505050509050919050565b6001600160a01b03918216600090815260056020908152604080832093909416825291909152205460ff1690565b60006001600160e01b031982166380ac58cd60e01b148061055357506001600160e01b03198216635b5e139f60e01b145b8061025257506301ffc9a760e01b6001600160e01b0319831614610252565b6000818152600260205260408120546001600160a01b03168061025257604051637e27328960e01b815260048101849052602401610348565b6103cd8383836001610893565b6000828152600260205260408120546001600160a01b03908116908316156105e5576105e5818486610999565b6001600160a01b0381161561062357610602600085600080610893565b6001600160a01b038116600090815260036020526040902080546000190190555b6001600160a01b03851615610652576001600160a01b0385166000908152600360205260409020805460010190555b60008481526002602052604080822080546001600160a01b0319166001600160a01b0389811691821790925591518793918516917fddf252ad1be2c89b69c2b068fc378daa952ba7f163c4a11628f55a4df523b3ef91a4949350505050565b61031e8282604051806020016040528060008152506109fd565b6001600160a01b0382166106fd57604051630b61174360e31b81526001600160a01b0383166004820152602401610348565b6001600160a01b03838116600081815260056020908152604080832094871680845294825291829020805460ff191686151590811790915591519182527f17307eab39ab6107e8899845ad3d59bd9653f200f220920489ca2b5937696c31910160405180910390a3505050565b6001600160a01b0383163b156103ac57604051630a85bd0160e11b81526001600160a01b0384169063150b7a02906107ac903390889087908790600401610dc6565b6020604051808303816000875af19250505080156107e7575060408051601f3d908101601f191682019092526107e491810190610e03565b60015b610850573d808015610815576040519150601f19603f3d011682016040523d82523d6000602084013e61081a565b606091505b50805160000361084857604051633250574960e11b81526001600160a01b0385166004820152602401610348565b805181602001fd5b6001600160e01b03198116630a85bd0160e11b1461088c57604051633250574960e11b81526001600160a01b0385166004820152602401610348565b5050505050565b80806108a757506001600160a01b03821615155b156109695760006108b784610572565b90506001600160a01b038316158015906108e35750826001600160a01b0316816001600160a01b031614155b80156108f657506108f481846104f4565b155b1561091f5760405163a9fbf51f60e01b81526001600160a01b0384166004820152602401610348565b81156109675783856001600160a01b0316826001600160a01b03167f8c5be1e5ebec7d5bd14f71427d1e84f3dd0314c0f7b2291e5b200ac8c7c3b92560405160405180910390a45b505b5050600090815260046020526040902080546001600160a01b0319166001600160a01b0392909216919091179055565b6109a4838383610a14565b6103cd576001600160a01b0383166109d257604051637e27328960e01b815260048101829052602401610348565b60405163177e802f60e01b81526001600160a01b038316600482015260248101829052604401610348565b610a078383610a7a565b6103cd600084848461076a565b60006001600160a01b03831615801590610a725750826001600160a01b0316846001600160a01b03161480610a4e5750610a4e84846104f4565b80610a7257506000828152600460205260409020546001600160a01b038481169116145b949350505050565b6001600160a01b038216610aa457604051633250574960e11b815260006004820152602401610348565b6000610ab2838360006105b8565b90506001600160a01b038116156103cd576040516339e3563760e11b815260006004820152602401610348565b6001600160e01b031981168114610af557600080fd5b50565b600060208284031215610b0a57600080fd5b8135610b1581610adf565b9392505050565b6000815180845260005b81811015610b4257602081850181015186830182015201610b26565b506000602082860101526020601f19601f83011685010191505092915050565b602081526000610b156020830184610b1c565b600060208284031215610b8757600080fd5b5035919050565b80356001600160a01b0381168114610ba557600080fd5b919050565b60008060408385031215610bbd57600080fd5b610bc683610b8e565b946020939093013593505050565b600080600060608486031215610be957600080fd5b610bf284610b8e565b9250610c0060208501610b8e565b9150604084013590509250925092565b600060208284031215610c2257600080fd5b610b1582610b8e565b60008060408385031215610c3e57600080fd5b610c4783610b8e565b915060208301358015158114610c5c57600080fd5b809150509250929050565b634e487b7160e01b600052604160045260246000fd5b60008060008060808587031215610c9357600080fd5b610c9c85610b8e565b9350610caa60208601610b8e565b925060408501359150606085013567ffffffffffffffff80821115610cce57600080fd5b818701915087601f830112610ce257600080fd5b813581811115610cf457610cf4610c67565b604051601f8201601f19908116603f01168101908382118183101715610d1c57610d1c610c67565b816040528281528a6020848701011115610d3557600080fd5b82602086016020830137600060208483010152809550505050505092959194509250565b60008060408385031215610d6c57600080fd5b610d7583610b8e565b9150610d8360208401610b8e565b90509250929050565b600181811c90821680610da057607f821691505b602082108103610dc057634e487b7160e01b600052602260045260246000fd5b50919050565b6001600160a01b0385811682528416602082015260408101839052608060608201819052600090610df990830184610b1c565b9695505050505050565b600060208284031215610e1557600080fd5b8151610b1581610adf56fea26469706673582212201e9c14b291cbb4f41c187a8592d9ea881970fba5157a75100e62507300426a1864736f6c6343000815003368747470733a2f2f697066732e696f2f697066732f516d55536e4c52745531586b37387059706578424a347a536a484352664269487767396134594b69317a34375534",
    "linkReferences": {}
  },
  "methodIdentifiers": {
    "approve(address,uint256)": "095ea7b3",
    "balanceOf(address)": "70a08231",
    "getApproved(uint256)": "081812fc",
    "isApprovedForAll(address,address)": "e985e9c5",
    "mintToken(address,uint256)": "79c65068",
    "name()": "06fdde03",
    "ownerOf(uint256)": "6352211e",
    "safeTransferFrom(address,address,uint256)": "42842e0e",
    "safeTransferFrom(address,address,uint256,bytes)": "b88d4fde",
    "setApprovalForAll(address,bool)": "a22cb465",
    "supportsInterface(bytes4)": "01ffc9a7",
    "symbol()": "95d89b41",
    "tokenURI(uint256)": "c87b56dd",
    "transferFrom(address,address,uint256)": "23b872dd"
  },
  "id": 33
}