{
  "abi": [
    {
      "inputs": [
        {
          "internalType": "address",
          "name": "_specificNFTContract",
          "type": "address"
        }
      ],
      "stateMutability": "nonpayable",
      "type": "constructor"
    },
    {
      "inputs": [
        {
          "internalType": "address",
          "name": "operator",
          "type": "address"
        },
        {
          "internalType": "address",
          "name": "from",
          "type": "address"
        },
        {
          "internalType": "uint256",
          "name": "tokenId",
          "type": "uint256"
        },
        {
          "internalType": "bytes",
          "name": "data",
          "type": "bytes"
        }
      ],
      "name": "onERC721Received",
      "outputs": [
        {
          "internalType": "bytes4",
          "name": "",
          "type": "bytes4"
        }
      ],
      "stateMutability": "nonpayable",
      "type": "function"
    },
    {
      "inputs": [],
      "name": "specificNFTContract",
      "outputs": [
        {
          "internalType": "address",
          "name": "",
          "type": "address"
        }
      ],
      "stateMutability": "view",
      "type": "function"
    }
  ],
  "bytecode": {
    "object": "0x608060405234801561001057600080fd5b5060405161040f38038061040f83398101604081905261002f91610054565b600080546001600160a01b0319166001600160a01b0392909216919091179055610084565b60006020828403121561006657600080fd5b81516001600160a01b038116811461007d57600080fd5b9392505050565b61037c806100936000396000f3fe608060405234801561001057600080fd5b50600436106100365760003560e01c8063150b7a021461003b5780631e57db8a1461006c575b600080fd5b61004e61004936600461023b565b610097565b6040516001600160e01b031990911681526020015b60405180910390f35b60005461007f906001600160a01b031681565b6040516001600160a01b039091168152602001610063565b600080546001600160a01b031633146101f8576040513060248201526001600160a01b038516604482015260648101849052600090339060840160408051601f198184030181529181526020820180516001600160e01b03166323b872dd60e01b179052516101069190610317565b6000604051808303816000865af19150503d8060008114610143576040519150601f19603f3d011682016040523d82523d6000602084013e610148565b606091505b505090508061018f5760405162461bcd60e51b815260206004820152600f60248201526e151c985b9cd9995c8819985a5b1959608a1b604482015260640160405180910390fd5b60008054604051630f38ca0d60e31b81526001600160a01b03888116600483015260248201939093529116906379c6506890604401600060405180830381600087803b1580156101de57600080fd5b505af11580156101f2573d6000803e3d6000fd5b50505050505b50630a85bd0160e11b949350505050565b80356001600160a01b038116811461022057600080fd5b919050565b634e487b7160e01b600052604160045260246000fd5b6000806000806080858703121561025157600080fd5b61025a85610209565b935061026860208601610209565b925060408501359150606085013567ffffffffffffffff8082111561028c57600080fd5b818701915087601f8301126102a057600080fd5b8135818111156102b2576102b2610225565b604051601f8201601f19908116603f011681019083821181831017156102da576102da610225565b816040528281528a60208487010111156102f357600080fd5b82602086016020830137600060208483010152809550505050505092959194509250565b6000825160005b81811015610338576020818601810151858301520161031e565b50600092019182525091905056fea26469706673582212209255a724eec0bfd6a83e96aef0639bb01a33510d306e0535b15bcab6646b4cd264736f6c63430008150033",
    "linkReferences": {}
  },
  "methodIdentifiers": {
    "onERC721Received(address,address,uint256,bytes)": "150b7a02",
    "specificNFTContract()": "1e57db8a"
  },
  "id": 33
}