{
  "abi": [
    {
      "inputs": [],
      "stateMutability": "nonpayable",
      "type": "constructor"
    },
    {
      "inputs": [
        {
          "internalType": "address",
          "name": "sender",
          "type": "address"
        },
        {
          "internalType": "uint256",
          "name": "tokenId",
          "type": "uint256"
        },
        {
          "internalType": "address",
          "name": "owner",
          "type": "address"
        }
      ],
      "name": "ERC721IncorrectOwner",
      "type": "error"
    },
    {
      "inputs": [
        {
          "internalType": "address",
          "name": "operator",
          "type": "address"
        },
        {
          "internalType": "uint256",
          "name": "tokenId",
          "type": "uint256"
        }
      ],
      "name": "ERC721InsufficientApproval",
      "type": "error"
    },
    {
      "inputs": [
        {
          "internalType": "address",
          "name": "approver",
          "type": "address"
        }
      ],
      "name": "ERC721InvalidApprover",
      "type": "error"
    },
    {
      "inputs": [
        {
          "internalType": "address",
          "name": "operator",
          "type": "address"
        }
      ],
      "name": "ERC721InvalidOperator",
      "type": "error"
    },
    {
      "inputs": [
        {
          "internalType": "address",
          "name": "owner",
          "type": "address"
        }
      ],
      "name": "ERC721InvalidOwner",
      "type": "error"
    },
    {
      "inputs": [
        {
          "internalType": "address",
          "name": "receiver",
          "type": "address"
        }
      ],
      "name": "ERC721InvalidReceiver",
      "type": "error"
    },
    {
      "inputs": [
        {
          "internalType": "address",
          "name": "sender",
          "type": "address"
        }
      ],
      "name": "ERC721InvalidSender",
      "type": "error"
    },
    {
      "inputs": [
        {
          "internalType": "uint256",
          "name": "tokenId",
          "type": "uint256"
        }
      ],
      "name": "ERC721NonexistentToken",
      "type": "error"
    },
    {
      "anonymous": false,
      "inputs": [
        {
          "indexed": true,
          "internalType": "address",
          "name": "owner",
          "type": "address"
        },
        {
          "indexed": true,
          "internalType": "address",
          "name": "approved",
          "type": "address"
        },
        {
          "indexed": true,
          "internalType": "uint256",
          "name": "tokenId",
          "type": "uint256"
        }
      ],
      "name": "Approval",
      "type": "event"
    },
    {
      "anonymous": false,
      "inputs": [
        {
          "indexed": true,
          "internalType": "address",
          "name": "owner",
          "type": "address"
        },
        {
          "indexed": true,
          "internalType": "address",
          "name": "operator",
          "type": "address"
        },
        {
          "indexed": false,
          "internalType": "bool",
          "name": "approved",
          "type": "bool"
        }
      ],
      "name": "ApprovalForAll",
      "type": "event"
    },
    {
      "anonymous": false,
      "inputs": [
        {
          "indexed": true,
          "internalType": "address",
          "name": "from",
          "type": "address"
        },
        {
          "indexed": true,
          "internalType": "address",
          "name": "to",
          "type": "address"
        },
        {
          "indexed": true,
          "internalType": "uint256",
          "name": "tokenId",
          "type": "uint256"
        }
      ],
      "name": "Transfer",
      "type": "event"
    },
    {
      "inputs": [
        {
          "internalType": "address",
          "name": "to",
          "type": "address"
        },
        {
          "internalType": "uint256",
          "name": "tokenId",
          "type": "uint256"
        }
      ],
      "name": "approve",
      "outputs": [],
      "stateMutability": "nonpayable",
      "type": "function"
    },
    {
      "inputs": [
        {
          "internalType": "address",
          "name": "owner",
          "type": "address"
        }
      ],
      "name": "balanceOf",
      "outputs": [
        {
          "internalType": "uint256",
          "name": "",
          "type": "uint256"
        }
      ],
      "stateMutability": "view",
      "type": "function"
    },
    {
      "inputs": [
        {
          "internalType": "uint256",
          "name": "tokenId",
          "type": "uint256"
        }
      ],
      "name": "getApproved",
      "outputs": [
        {
          "internalType": "address",
          "name": "",
          "type": "address"
        }
      ],
      "stateMutability": "view",
      "type": "function"
    },
    {
      "inputs": [
        {
          "internalType": "address",
          "name": "owner",
          "type": "address"
        },
        {
          "internalType": "address",
          "name": "operator",
          "type": "address"
        }
      ],
      "name": "isApprovedForAll",
      "outputs": [
        {
          "internalType": "bool",
          "name": "",
          "type": "bool"
        }
      ],
      "stateMutability": "view",
      "type": "function"
    },
    {
      "inputs": [
        {
          "internalType": "address",
          "name": "to",
          "type": "address"
        },
        {
          "internalType": "uint256",
          "name": "tokenId",
          "type": "uint256"
        }
      ],
      "name": "mint",
      "outputs": [],
      "stateMutability": "nonpayable",
      "type": "function"
    },
    {
      "inputs": [],
      "name": "name",
      "outputs": [
        {
          "internalType": "string",
          "name": "",
          "type": "string"
        }
      ],
      "stateMutability": "view",
      "type": "function"
    },
    {
      "inputs": [
        {
          "internalType": "uint256",
          "name": "tokenId",
          "type": "uint256"
        }
      ],
      "name": "ownerOf",
      "outputs": [
        {
          "internalType": "address",
          "name": "",
          "type": "address"
        }
      ],
      "stateMutability": "view",
      "type": "function"
    },
    {
      "inputs": [
        {
          "internalType": "address",
          "name": "from",
          "type": "address"
        },
        {
          "internalType": "address",
          "name": "to",
          "type": "address"
        },
        {
          "internalType": "uint256",
          "name": "tokenId",
          "type": "uint256"
        }
      ],
      "name": "safeTransferFrom",
      "outputs": [],
      "stateMutability": "nonpayable",
      "type": "function"
    },
    {
      "inputs": [
        {
          "internalType": "address",
          "name": "from",
          "type": "address"
        },
        {
          "internalType": "address",
          "name": "to",
          "type": "address"
        },
        {
          "internalType": "uint256",
          "name": "tokenId",
          "type": "uint256"
        },
        {
          "internalType": "bytes",
          "name": "data",
          "type": "bytes"
        }
      ],
      "name": "safeTransferFrom",
      "outputs": [],
      "stateMutability": "nonpayable",
      "type": "function"
    },
    {
      "inputs": [
        {
          "internalType": "address",
          "name": "operator",
          "type": "address"
        },
        {
          "internalType": "bool",
          "name": "approved",
          "type": "bool"
        }
      ],
      "name": "setApprovalForAll",
      "outputs": [],
      "stateMutability": "nonpayable",
      "type": "function"
    },
    {
      "inputs": [
        {
          "internalType": "bytes4",
          "name": "interfaceId",
          "type": "bytes4"
        }
      ],
      "name": "supportsInterface",
      "outputs": [
        {
          "internalType": "bool",
          "name": "",
          "type": "bool"
        }
      ],
      "stateMutability": "view",
      "type": "function"
    },
    {
      "inputs": [],
      "name": "symbol",
      "outputs": [
        {
          "internalType": "string",
          "name": "",
          "type": "string"
        }
      ],
      "stateMutability": "view",
      "type": "function"
    },
    {
      "inputs": [
        {
          "internalType": "uint256",
          "name": "tokenId",
          "type": "uint256"
        }
      ],
      "name": "tokenURI",
      "outputs": [
        {
          "internalType": "string",
          "name": "",
          "type": "string"
        }
      ],
      "stateMutability": "view",
      "type": "function"
    },
    {
      "inputs": [
        {
          "internalType": "address",
          "name": "from",
          "type": "address"
        },
        {
          "internalType": "address",
          "name": "to",
          "type": "address"
        },
        {
          "internalType": "uint256",
          "name": "tokenId",
          "type": "uint256"
        }
      ],
      "name": "transferFrom",
      "outputs": [],
      "stateMutability": "nonpayable",
      "type": "function"
    },
    {
      "inputs": [
        {
          "internalType": "address",
          "name": "_address",
          "type": "address"
        },
        {
          "internalType": "uint256",
          "name": "_tokenId",
          "type": "uint256"
        }
      ],
      "name": "transferToReceiver",
      "outputs": [],
      "stateMutability": "nonpayable",
      "type": "function"
    }
  ],
  "bytecode": {
    "object": "0x60806040523480156200001157600080fd5b506040518060400160405280600681526020016552616e646f6d60d01b8152506040518060400160405280600381526020016214939160ea1b81525081600090816200005e91906200012d565b5060016200006d82826200012d565b5050600680546001600160a01b0319163317905550620001f9565b634e487b7160e01b600052604160045260246000fd5b600181811c90821680620000b357607f821691505b602082108103620000d457634e487b7160e01b600052602260045260246000fd5b50919050565b601f8211156200012857600081815260208120601f850160051c81016020861015620001035750805b601f850160051c820191505b8181101562000124578281556001016200010f565b5050505b505050565b81516001600160401b0381111562000149576200014962000088565b62000161816200015a84546200009e565b84620000da565b602080601f831160018114620001995760008415620001805750858301515b600019600386901b1c1916600185901b17855562000124565b600085815260208120601f198616915b82811015620001ca57888601518255948401946001909101908401620001a9565b5085821015620001e95787850151600019600388901b60f8161c191681555b5050505050600190811b01905550565b610fd480620002096000396000f3fe608060405234801561001057600080fd5b50600436106100f55760003560e01c80636352211e11610097578063b88d4fde11610066578063b88d4fde146101ff578063c87b56dd14610212578063e985e9c514610225578063e9e0bfd21461023857600080fd5b80636352211e146101b057806370a08231146101c357806395d89b41146101e4578063a22cb465146101ec57600080fd5b8063095ea7b3116100d3578063095ea7b31461016257806323b872dd1461017757806340c10f191461018a57806342842e0e1461019d57600080fd5b806301ffc9a7146100fa57806306fdde0314610122578063081812fc14610137575b600080fd5b61010d610108366004610c44565b61024b565b60405190151581526020015b60405180910390f35b61012a61029d565b6040516101199190610cb1565b61014a610145366004610cc4565b61032f565b6040516001600160a01b039091168152602001610119565b610175610170366004610cf9565b610358565b005b610175610185366004610d23565b610367565b610175610198366004610cf9565b6103f7565b6101756101ab366004610d23565b610401565b61014a6101be366004610cc4565b610421565b6101d66101d1366004610d5f565b61042c565b604051908152602001610119565b61012a610474565b6101756101fa366004610d7a565b610483565b61017561020d366004610dcc565b61048e565b61012a610220366004610cc4565b6104a5565b61010d610233366004610ea8565b61051a565b610175610246366004610cf9565b610548565b60006001600160e01b031982166380ac58cd60e01b148061027c57506001600160e01b03198216635b5e139f60e01b145b8061029757506301ffc9a760e01b6001600160e01b03198316145b92915050565b6060600080546102ac90610edb565b80601f01602080910402602001604051908101604052809291908181526020018280546102d890610edb565b80156103255780601f106102fa57610100808354040283529160200191610325565b820191906000526020600020905b81548152906001019060200180831161030857829003601f168201915b5050505050905090565b600061033a82610553565b506000828152600460205260409020546001600160a01b0316610297565b61036382823361058c565b5050565b6001600160a01b03821661039657604051633250574960e11b8152600060048201526024015b60405180910390fd5b60006103a3838333610599565b9050836001600160a01b0316816001600160a01b0316146103f1576040516364283d7b60e01b81526001600160a01b038086166004830152602482018490528216604482015260640161038d565b50505050565b6103638282610692565b61041c8383836040518060200160405280600081525061048e565b505050565b600061029782610553565b60006001600160a01b038216610458576040516322718ad960e21b81526000600482015260240161038d565b506001600160a01b031660009081526003602052604090205490565b6060600180546102ac90610edb565b6103633383836106ac565b610499848484610367565b6103f18484848461074b565b60606104b082610553565b5060006104c860408051602081019091526000815290565b905060008151116104e85760405180602001604052806000815250610513565b806104f284610874565b604051602001610503929190610f15565b6040516020818303038152906040525b9392505050565b6001600160a01b03918216600090815260056020908152604080832093909416825291909152205460ff1690565b610363338383610401565b6000818152600260205260408120546001600160a01b03168061029757604051637e27328960e01b81526004810184905260240161038d565b61041c8383836001610907565b6000828152600260205260408120546001600160a01b03908116908316156105c6576105c6818486610a0d565b6001600160a01b03811615610604576105e3600085600080610907565b6001600160a01b038116600090815260036020526040902080546000190190555b6001600160a01b03851615610633576001600160a01b0385166000908152600360205260409020805460010190555b60008481526002602052604080822080546001600160a01b0319166001600160a01b0389811691821790925591518793918516917fddf252ad1be2c89b69c2b068fc378daa952ba7f163c4a11628f55a4df523b3ef91a4949350505050565b610363828260405180602001604052806000815250610a71565b6001600160a01b0382166106de57604051630b61174360e31b81526001600160a01b038316600482015260240161038d565b6001600160a01b03838116600081815260056020908152604080832094871680845294825291829020805460ff191686151590811790915591519182527f17307eab39ab6107e8899845ad3d59bd9653f200f220920489ca2b5937696c31910160405180910390a3505050565b6001600160a01b0383163b156103f157604051630a85bd0160e11b81526001600160a01b0384169063150b7a029061078d903390889087908790600401610f44565b6020604051808303816000875af19250505080156107c8575060408051601f3d908101601f191682019092526107c591810190610f81565b60015b610831573d8080156107f6576040519150601f19603f3d011682016040523d82523d6000602084013e6107fb565b606091505b50805160000361082957604051633250574960e11b81526001600160a01b038516600482015260240161038d565b805181602001fd5b6001600160e01b03198116630a85bd0160e11b1461086d57604051633250574960e11b81526001600160a01b038516600482015260240161038d565b5050505050565b6060600061088183610a88565b600101905060008167ffffffffffffffff8111156108a1576108a1610db6565b6040519080825280601f01601f1916602001820160405280156108cb576020820181803683370190505b5090508181016020015b600019016f181899199a1a9b1b9c1cb0b131b232b360811b600a86061a8153600a85049450846108d557509392505050565b808061091b57506001600160a01b03821615155b156109dd57600061092b84610553565b90506001600160a01b038316158015906109575750826001600160a01b0316816001600160a01b031614155b801561096a5750610968818461051a565b155b156109935760405163a9fbf51f60e01b81526001600160a01b038416600482015260240161038d565b81156109db5783856001600160a01b0316826001600160a01b03167f8c5be1e5ebec7d5bd14f71427d1e84f3dd0314c0f7b2291e5b200ac8c7c3b92560405160405180910390a45b505b5050600090815260046020526040902080546001600160a01b0319166001600160a01b0392909216919091179055565b610a18838383610b60565b61041c576001600160a01b038316610a4657604051637e27328960e01b81526004810182905260240161038d565b60405163177e802f60e01b81526001600160a01b03831660048201526024810182905260440161038d565b610a7b8383610bc6565b61041c600084848461074b565b60008072184f03e93ff9f4daa797ed6e38ed64bf6a1f0160401b8310610ac75772184f03e93ff9f4daa797ed6e38ed64bf6a1f0160401b830492506040015b6d04ee2d6d415b85acef81000000008310610af3576d04ee2d6d415b85acef8100000000830492506020015b662386f26fc100008310610b1157662386f26fc10000830492506010015b6305f5e1008310610b29576305f5e100830492506008015b6127108310610b3d57612710830492506004015b60648310610b4f576064830492506002015b600a83106102975760010192915050565b60006001600160a01b03831615801590610bbe5750826001600160a01b0316846001600160a01b03161480610b9a5750610b9a848461051a565b80610bbe57506000828152600460205260409020546001600160a01b038481169116145b949350505050565b6001600160a01b038216610bf057604051633250574960e11b81526000600482015260240161038d565b6000610bfe83836000610599565b90506001600160a01b0381161561041c576040516339e3563760e11b81526000600482015260240161038d565b6001600160e01b031981168114610c4157600080fd5b50565b600060208284031215610c5657600080fd5b813561051381610c2b565b60005b83811015610c7c578181015183820152602001610c64565b50506000910152565b60008151808452610c9d816020860160208601610c61565b601f01601f19169290920160200192915050565b6020815260006105136020830184610c85565b600060208284031215610cd657600080fd5b5035919050565b80356001600160a01b0381168114610cf457600080fd5b919050565b60008060408385031215610d0c57600080fd5b610d1583610cdd565b946020939093013593505050565b600080600060608486031215610d3857600080fd5b610d4184610cdd565b9250610d4f60208501610cdd565b9150604084013590509250925092565b600060208284031215610d7157600080fd5b61051382610cdd565b60008060408385031215610d8d57600080fd5b610d9683610cdd565b915060208301358015158114610dab57600080fd5b809150509250929050565b634e487b7160e01b600052604160045260246000fd5b60008060008060808587031215610de257600080fd5b610deb85610cdd565b9350610df960208601610cdd565b925060408501359150606085013567ffffffffffffffff80821115610e1d57600080fd5b818701915087601f830112610e3157600080fd5b813581811115610e4357610e43610db6565b604051601f8201601f19908116603f01168101908382118183101715610e6b57610e6b610db6565b816040528281528a6020848701011115610e8457600080fd5b82602086016020830137600060208483010152809550505050505092959194509250565b60008060408385031215610ebb57600080fd5b610ec483610cdd565b9150610ed260208401610cdd565b90509250929050565b600181811c90821680610eef57607f821691505b602082108103610f0f57634e487b7160e01b600052602260045260246000fd5b50919050565b60008351610f27818460208801610c61565b835190830190610f3b818360208801610c61565b01949350505050565b6001600160a01b0385811682528416602082015260408101839052608060608201819052600090610f7790830184610c85565b9695505050505050565b600060208284031215610f9357600080fd5b815161051381610c2b56fea26469706673582212203a4785c3ed092f2ef7a4ba5a0005e65e204c2ca8ab6d1ba6af555f8e12b14aab64736f6c63430008150033",
    "linkReferences": {}
  },
  "methodIdentifiers": {
    "approve(address,uint256)": "095ea7b3",
    "balanceOf(address)": "70a08231",
    "getApproved(uint256)": "081812fc",
    "isApprovedForAll(address,address)": "e985e9c5",
    "mint(address,uint256)": "40c10f19",
    "name()": "06fdde03",
    "ownerOf(uint256)": "6352211e",
    "safeTransferFrom(address,address,uint256)": "42842e0e",
    "safeTransferFrom(address,address,uint256,bytes)": "b88d4fde",
    "setApprovalForAll(address,bool)": "a22cb465",
    "supportsInterface(bytes4)": "01ffc9a7",
    "symbol()": "95d89b41",
    "tokenURI(uint256)": "c87b56dd",
    "transferFrom(address,address,uint256)": "23b872dd",
    "transferToReceiver(address,uint256)": "e9e0bfd2"
  },
  "id": 33
}