{
  "abi": [
    {
      "inputs": [],
      "stateMutability": "nonpayable",
      "type": "constructor"
    },
    {
      "inputs": [
        {
          "internalType": "address",
          "name": "spender",
          "type": "address"
        },
        {
          "internalType": "uint256",
          "name": "allowance",
          "type": "uint256"
        },
        {
          "internalType": "uint256",
          "name": "needed",
          "type": "uint256"
        }
      ],
      "name": "ERC20InsufficientAllowance",
      "type": "error"
    },
    {
      "inputs": [
        {
          "internalType": "address",
          "name": "sender",
          "type": "address"
        },
        {
          "internalType": "uint256",
          "name": "balance",
          "type": "uint256"
        },
        {
          "internalType": "uint256",
          "name": "needed",
          "type": "uint256"
        }
      ],
      "name": "ERC20InsufficientBalance",
      "type": "error"
    },
    {
      "inputs": [
        {
          "internalType": "address",
          "name": "approver",
          "type": "address"
        }
      ],
      "name": "ERC20InvalidApprover",
      "type": "error"
    },
    {
      "inputs": [
        {
          "internalType": "address",
          "name": "receiver",
          "type": "address"
        }
      ],
      "name": "ERC20InvalidReceiver",
      "type": "error"
    },
    {
      "inputs": [
        {
          "internalType": "address",
          "name": "sender",
          "type": "address"
        }
      ],
      "name": "ERC20InvalidSender",
      "type": "error"
    },
    {
      "inputs": [
        {
          "internalType": "address",
          "name": "spender",
          "type": "address"
        }
      ],
      "name": "ERC20InvalidSpender",
      "type": "error"
    },
    {
      "anonymous": false,
      "inputs": [
        {
          "indexed": true,
          "internalType": "address",
          "name": "owner",
          "type": "address"
        },
        {
          "indexed": true,
          "internalType": "address",
          "name": "spender",
          "type": "address"
        },
        {
          "indexed": false,
          "internalType": "uint256",
          "name": "value",
          "type": "uint256"
        }
      ],
      "name": "Approval",
      "type": "event"
    },
    {
      "anonymous": false,
      "inputs": [
        {
          "indexed": true,
          "internalType": "address",
          "name": "from",
          "type": "address"
        },
        {
          "indexed": true,
          "internalType": "address",
          "name": "to",
          "type": "address"
        },
        {
          "indexed": false,
          "internalType": "uint256",
          "name": "value",
          "type": "uint256"
        }
      ],
      "name": "Transfer",
      "type": "event"
    },
    {
      "inputs": [
        {
          "internalType": "address",
          "name": "_address",
          "type": "address"
        }
      ],
      "name": "add_whitelist",
      "outputs": [],
      "stateMutability": "nonpayable",
      "type": "function"
    },
    {
      "inputs": [
        {
          "internalType": "address",
          "name": "owner",
          "type": "address"
        },
        {
          "internalType": "address",
          "name": "spender",
          "type": "address"
        }
      ],
      "name": "allowance",
      "outputs": [
        {
          "internalType": "uint256",
          "name": "",
          "type": "uint256"
        }
      ],
      "stateMutability": "view",
      "type": "function"
    },
    {
      "inputs": [
        {
          "internalType": "address",
          "name": "spender",
          "type": "address"
        },
        {
          "internalType": "uint256",
          "name": "value",
          "type": "uint256"
        }
      ],
      "name": "approve",
      "outputs": [
        {
          "internalType": "bool",
          "name": "",
          "type": "bool"
        }
      ],
      "stateMutability": "nonpayable",
      "type": "function"
    },
    {
      "inputs": [
        {
          "internalType": "address",
          "name": "account",
          "type": "address"
        }
      ],
      "name": "balanceOf",
      "outputs": [
        {
          "internalType": "uint256",
          "name": "",
          "type": "uint256"
        }
      ],
      "stateMutability": "view",
      "type": "function"
    },
    {
      "inputs": [],
      "name": "decimals",
      "outputs": [
        {
          "internalType": "uint8",
          "name": "",
          "type": "uint8"
        }
      ],
      "stateMutability": "view",
      "type": "function"
    },
    {
      "inputs": [],
      "name": "getOwner",
      "outputs": [
        {
          "internalType": "address",
          "name": "",
          "type": "address"
        }
      ],
      "stateMutability": "view",
      "type": "function"
    },
    {
      "inputs": [
        {
          "internalType": "address",
          "name": "_address",
          "type": "address"
        }
      ],
      "name": "initialize",
      "outputs": [],
      "stateMutability": "nonpayable",
      "type": "function"
    },
    {
      "inputs": [
        {
          "internalType": "address",
          "name": "_to",
          "type": "address"
        },
        {
          "internalType": "uint256",
          "name": "_amount",
          "type": "uint256"
        }
      ],
      "name": "mint",
      "outputs": [],
      "stateMutability": "nonpayable",
      "type": "function"
    },
    {
      "inputs": [],
      "name": "name",
      "outputs": [
        {
          "internalType": "string",
          "name": "",
          "type": "string"
        }
      ],
      "stateMutability": "view",
      "type": "function"
    },
    {
      "inputs": [],
      "name": "owner",
      "outputs": [
        {
          "internalType": "address",
          "name": "",
          "type": "address"
        }
      ],
      "stateMutability": "view",
      "type": "function"
    },
    {
      "inputs": [
        {
          "internalType": "address",
          "name": "_address",
          "type": "address"
        }
      ],
      "name": "remove_whitelist",
      "outputs": [],
      "stateMutability": "nonpayable",
      "type": "function"
    },
    {
      "inputs": [],
      "name": "symbol",
      "outputs": [
        {
          "internalType": "string",
          "name": "",
          "type": "string"
        }
      ],
      "stateMutability": "view",
      "type": "function"
    },
    {
      "inputs": [],
      "name": "totalSupply",
      "outputs": [
        {
          "internalType": "uint256",
          "name": "",
          "type": "uint256"
        }
      ],
      "stateMutability": "view",
      "type": "function"
    },
    {
      "inputs": [
        {
          "internalType": "address",
          "name": "_to",
          "type": "address"
        },
        {
          "internalType": "uint256",
          "name": "_amount",
          "type": "uint256"
        }
      ],
      "name": "transfer",
      "outputs": [
        {
          "internalType": "bool",
          "name": "",
          "type": "bool"
        }
      ],
      "stateMutability": "nonpayable",
      "type": "function"
    },
    {
      "inputs": [
        {
          "internalType": "address",
          "name": "_from",
          "type": "address"
        },
        {
          "internalType": "address",
          "name": "_to",
          "type": "address"
        },
        {
          "internalType": "uint256",
          "name": "_amount",
          "type": "uint256"
        }
      ],
      "name": "transferFrom",
      "outputs": [
        {
          "internalType": "bool",
          "name": "",
          "type": "bool"
        }
      ],
      "stateMutability": "nonpayable",
      "type": "function"
    },
    {
      "inputs": [
        {
          "internalType": "address",
          "name": "",
          "type": "address"
        }
      ],
      "name": "whitelist",
      "outputs": [
        {
          "internalType": "bool",
          "name": "",
          "type": "bool"
        }
      ],
      "stateMutability": "view",
      "type": "function"
    }
  ],
  "bytecode": {
    "object": "0x60806040526006805460ff60a01b191690553480156200001e57600080fd5b50604051806040016040528060088152602001672aa9a21021b7b4b760c11b815250604051806040016040528060048152602001635553444360e01b81525081600390816200006e91906200012b565b5060046200007d82826200012b565b505050620001f7565b634e487b7160e01b600052604160045260246000fd5b600181811c90821680620000b157607f821691505b602082108103620000d257634e487b7160e01b600052602260045260246000fd5b50919050565b601f8211156200012657600081815260208120601f850160051c81016020861015620001015750805b601f850160051c820191505b8181101562000122578281556001016200010d565b5050505b505050565b81516001600160401b0381111562000147576200014762000086565b6200015f816200015884546200009c565b84620000d8565b602080601f8311600181146200019757600084156200017e5750858301515b600019600386901b1c1916600185901b17855562000122565b600085815260208120601f198616915b82811015620001c857888601518255948401946001909101908401620001a7565b5085821015620001e75787850151600019600388901b60f8161c191681555b5050505050600190811b01905550565b610ad380620002076000396000f3fe608060405234801561001057600080fd5b50600436106101005760003560e01c8063893d20e811610097578063a9059cbb11610066578063a9059cbb1461022e578063c4d66de814610241578063dd62ed3e14610254578063e8c61e191461028d57600080fd5b8063893d20e8146101cb5780638da5cb5b146101f057806395d89b41146102035780639b19251a1461020b57600080fd5b8063313ce567116100d3578063313ce5671461016b5780634051d41e1461017a57806340c10f191461018f57806370a08231146101a257600080fd5b806306fdde0314610105578063095ea7b31461012357806318160ddd1461014657806323b872dd14610158575b600080fd5b61010d6102a0565b60405161011a91906108e6565b60405180910390f35b610136610131366004610950565b610332565b604051901515815260200161011a565b6002545b60405190815260200161011a565b61013661016636600461097a565b61034c565b6040516006815260200161011a565b61018d6101883660046109b6565b6103db565b005b61018d61019d366004610950565b61044e565b61014a6101b03660046109b6565b6001600160a01b031660009081526020819052604090205490565b6006546001600160a01b03165b6040516001600160a01b03909116815260200161011a565b6006546101d8906001600160a01b031681565b61010d610490565b6101366102193660046109b6565b60056020526000908152604090205460ff1681565b61013661023c366004610950565b61049f565b61018d61024f3660046109b6565b6104e7565b61014a6102623660046109d8565b6001600160a01b03918216600090815260016020908152604080832093909416825291909152205490565b61018d61029b3660046109b6565b6105c9565b6060600380546102af90610a0b565b80601f01602080910402602001604051908101604052809291908181526020018280546102db90610a0b565b80156103285780601f106102fd57610100808354040283529160200191610328565b820191906000526020600020905b81548152906001019060200180831161030b57829003601f168201915b5050505050905090565b60003361034081858561063f565b60019150505b92915050565b3360009081526005602052604081205460ff1615156001146103895760405162461bcd60e51b815260040161038090610a45565b60405180910390fd5b6001600160a01b03841660009081526005602052604090205460ff1615156001146103c65760405162461bcd60e51b815260040161038090610a45565b6103d1848484610651565b5060019392505050565b6006546001600160a01b0316331461042d5760405162461bcd60e51b81526020600482015260156024820152742cb7ba9030b932903737ba103a34329037bbb732b960591b6044820152606401610380565b6001600160a01b03166000908152600560205260409020805460ff19169055565b3360009081526005602052604090205460ff1615156001146104825760405162461bcd60e51b815260040161038090610a45565b61048c82826106b0565b5050565b6060600480546102af90610a0b565b3360009081526005602052604081205460ff1615156001146104d35760405162461bcd60e51b815260040161038090610a45565b6104de338484610651565b50600192915050565b600654600160a01b900460ff16156105415760405162461bcd60e51b815260206004820152601c60248201527f436f6e747261637420616c726561647920696e697469616c697a6564000000006044820152606401610380565b6001600160a01b0381166105895760405162461bcd60e51b815260206004820152600f60248201526e496e76616c6964206164647265737360881b6044820152606401610380565b600680546001600160a01b039092166001600160a81b03199092168217600160a01b1790556000908152600560205260409020805460ff19166001179055565b6006546001600160a01b0316331461061b5760405162461bcd60e51b81526020600482015260156024820152742cb7ba9030b932903737ba103a34329037bbb732b960591b6044820152606401610380565b6001600160a01b03166000908152600560205260409020805460ff19166001179055565b61064c83838360016106e6565b505050565b6001600160a01b03831661067b57604051634b637e8f60e11b815260006004820152602401610380565b6001600160a01b0382166106a55760405163ec442f0560e01b815260006004820152602401610380565b61064c8383836107bc565b6001600160a01b0382166106da5760405163ec442f0560e01b815260006004820152602401610380565b61048c600083836107bc565b6001600160a01b0384166107105760405163e602df0560e01b815260006004820152602401610380565b6001600160a01b03831661073a57604051634a1406b160e11b815260006004820152602401610380565b6001600160a01b03808516600090815260016020908152604080832093871683529290522082905580156107b657826001600160a01b0316846001600160a01b03167f8c5be1e5ebec7d5bd14f71427d1e84f3dd0314c0f7b2291e5b200ac8c7c3b925846040516107ad91815260200190565b60405180910390a35b50505050565b6001600160a01b0383166107e75780600260008282546107dc9190610a7c565b909155506108599050565b6001600160a01b0383166000908152602081905260409020548181101561083a5760405163391434e360e21b81526001600160a01b03851660048201526024810182905260448101839052606401610380565b6001600160a01b03841660009081526020819052604090209082900390555b6001600160a01b03821661087557600280548290039055610894565b6001600160a01b03821660009081526020819052604090208054820190555b816001600160a01b0316836001600160a01b03167fddf252ad1be2c89b69c2b068fc378daa952ba7f163c4a11628f55a4df523b3ef836040516108d991815260200190565b60405180910390a3505050565b600060208083528351808285015260005b81811015610913578581018301518582016040015282016108f7565b506000604082860101526040601f19601f8301168501019250505092915050565b80356001600160a01b038116811461094b57600080fd5b919050565b6000806040838503121561096357600080fd5b61096c83610934565b946020939093013593505050565b60008060006060848603121561098f57600080fd5b61099884610934565b92506109a660208501610934565b9150604084013590509250925092565b6000602082840312156109c857600080fd5b6109d182610934565b9392505050565b600080604083850312156109eb57600080fd5b6109f483610934565b9150610a0260208401610934565b90509250929050565b600181811c90821680610a1f57607f821691505b602082108103610a3f57634e487b7160e01b600052602260045260246000fd5b50919050565b60208082526017908201527f596f7520617265206e6f742077686974656c6973746564000000000000000000604082015260600190565b8082018082111561034657634e487b7160e01b600052601160045260246000fdfea2646970667358221220dcc7f521eb95567d810b03fc7dd23034577c461cb5ff1d242d20d7c831faece364736f6c63430008150033",
    "linkReferences": {}
  },
  "methodIdentifiers": {
    "add_whitelist(address)": "e8c61e19",
    "allowance(address,address)": "dd62ed3e",
    "approve(address,uint256)": "095ea7b3",
    "balanceOf(address)": "70a08231",
    "decimals()": "313ce567",
    "getOwner()": "893d20e8",
    "initialize(address)": "c4d66de8",
    "mint(address,uint256)": "40c10f19",
    "name()": "06fdde03",
    "owner()": "8da5cb5b",
    "remove_whitelist(address)": "4051d41e",
    "symbol()": "95d89b41",
    "totalSupply()": "18160ddd",
    "transfer(address,uint256)": "a9059cbb",
    "transferFrom(address,address,uint256)": "23b872dd",
    "whitelist(address)": "9b19251a"
  },
  "id": 23
}