{
  "abi": [
    {
      "inputs": [],
      "name": "_borrowGuardianPaused",
      "outputs": [
        {
          "internalType": "bool",
          "name": "",
          "type": "bool"
        }
      ],
      "stateMutability": "view",
      "type": "function"
    },
    {
      "inputs": [],
      "name": "_mintGuardianPaused",
      "outputs": [
        {
          "internalType": "bool",
          "name": "",
          "type": "bool"
        }
      ],
      "stateMutability": "view",
      "type": "function"
    },
    {
      "inputs": [
        {
          "internalType": "address",
          "name": "",
          "type": "address"
        },
        {
          "internalType": "uint256",
          "name": "",
          "type": "uint256"
        }
      ],
      "name": "accountAssets",
      "outputs": [
        {
          "internalType": "contract CToken",
          "name": "",
          "type": "address"
        }
      ],
      "stateMutability": "view",
      "type": "function"
    },
    {
      "inputs": [],
      "name": "admin",
      "outputs": [
        {
          "internalType": "address",
          "name": "",
          "type": "address"
        }
      ],
      "stateMutability": "view",
      "type": "function"
    },
    {
      "inputs": [
        {
          "internalType": "uint256",
          "name": "",
          "type": "uint256"
        }
      ],
      "name": "allMarkets",
      "outputs": [
        {
          "internalType": "contract CToken",
          "name": "",
          "type": "address"
        }
      ],
      "stateMutability": "view",
      "type": "function"
    },
    {
      "inputs": [
        {
          "internalType": "address",
          "name": "",
          "type": "address"
        }
      ],
      "name": "borrowGuardianPaused",
      "outputs": [
        {
          "internalType": "bool",
          "name": "",
          "type": "bool"
        }
      ],
      "stateMutability": "view",
      "type": "function"
    },
    {
      "inputs": [],
      "name": "closeFactorMantissa",
      "outputs": [
        {
          "internalType": "uint256",
          "name": "",
          "type": "uint256"
        }
      ],
      "stateMutability": "view",
      "type": "function"
    },
    {
      "inputs": [
        {
          "internalType": "address",
          "name": "",
          "type": "address"
        }
      ],
      "name": "compAccrued",
      "outputs": [
        {
          "internalType": "uint256",
          "name": "",
          "type": "uint256"
        }
      ],
      "stateMutability": "view",
      "type": "function"
    },
    {
      "inputs": [
        {
          "internalType": "address",
          "name": "",
          "type": "address"
        }
      ],
      "name": "compBorrowState",
      "outputs": [
        {
          "internalType": "uint224",
          "name": "index",
          "type": "uint224"
        },
        {
          "internalType": "uint32",
          "name": "block",
          "type": "uint32"
        }
      ],
      "stateMutability": "view",
      "type": "function"
    },
    {
      "inputs": [
        {
          "internalType": "address",
          "name": "",
          "type": "address"
        },
        {
          "internalType": "address",
          "name": "",
          "type": "address"
        }
      ],
      "name": "compBorrowerIndex",
      "outputs": [
        {
          "internalType": "uint256",
          "name": "",
          "type": "uint256"
        }
      ],
      "stateMutability": "view",
      "type": "function"
    },
    {
      "inputs": [],
      "name": "compRate",
      "outputs": [
        {
          "internalType": "uint256",
          "name": "",
          "type": "uint256"
        }
      ],
      "stateMutability": "view",
      "type": "function"
    },
    {
      "inputs": [
        {
          "internalType": "address",
          "name": "",
          "type": "address"
        }
      ],
      "name": "compSpeeds",
      "outputs": [
        {
          "internalType": "uint256",
          "name": "",
          "type": "uint256"
        }
      ],
      "stateMutability": "view",
      "type": "function"
    },
    {
      "inputs": [
        {
          "internalType": "address",
          "name": "",
          "type": "address"
        },
        {
          "internalType": "address",
          "name": "",
          "type": "address"
        }
      ],
      "name": "compSupplierIndex",
      "outputs": [
        {
          "internalType": "uint256",
          "name": "",
          "type": "uint256"
        }
      ],
      "stateMutability": "view",
      "type": "function"
    },
    {
      "inputs": [
        {
          "internalType": "address",
          "name": "",
          "type": "address"
        }
      ],
      "name": "compSupplyState",
      "outputs": [
        {
          "internalType": "uint224",
          "name": "index",
          "type": "uint224"
        },
        {
          "internalType": "uint32",
          "name": "block",
          "type": "uint32"
        }
      ],
      "stateMutability": "view",
      "type": "function"
    },
    {
      "inputs": [],
      "name": "comptrollerImplementation",
      "outputs": [
        {
          "internalType": "address",
          "name": "",
          "type": "address"
        }
      ],
      "stateMutability": "view",
      "type": "function"
    },
    {
      "inputs": [],
      "name": "liquidationIncentiveMantissa",
      "outputs": [
        {
          "internalType": "uint256",
          "name": "",
          "type": "uint256"
        }
      ],
      "stateMutability": "view",
      "type": "function"
    },
    {
      "inputs": [
        {
          "internalType": "address",
          "name": "",
          "type": "address"
        }
      ],
      "name": "markets",
      "outputs": [
        {
          "internalType": "bool",
          "name": "isListed",
          "type": "bool"
        },
        {
          "internalType": "uint256",
          "name": "collateralFactorMantissa",
          "type": "uint256"
        },
        {
          "internalType": "bool",
          "name": "isComped",
          "type": "bool"
        }
      ],
      "stateMutability": "view",
      "type": "function"
    },
    {
      "inputs": [],
      "name": "maxAssets",
      "outputs": [
        {
          "internalType": "uint256",
          "name": "",
          "type": "uint256"
        }
      ],
      "stateMutability": "view",
      "type": "function"
    },
    {
      "inputs": [
        {
          "internalType": "address",
          "name": "",
          "type": "address"
        }
      ],
      "name": "mintGuardianPaused",
      "outputs": [
        {
          "internalType": "bool",
          "name": "",
          "type": "bool"
        }
      ],
      "stateMutability": "view",
      "type": "function"
    },
    {
      "inputs": [],
      "name": "oracle",
      "outputs": [
        {
          "internalType": "contract PriceOracle",
          "name": "",
          "type": "address"
        }
      ],
      "stateMutability": "view",
      "type": "function"
    },
    {
      "inputs": [],
      "name": "pauseGuardian",
      "outputs": [
        {
          "internalType": "address",
          "name": "",
          "type": "address"
        }
      ],
      "stateMutability": "view",
      "type": "function"
    },
    {
      "inputs": [],
      "name": "pendingAdmin",
      "outputs": [
        {
          "internalType": "address",
          "name": "",
          "type": "address"
        }
      ],
      "stateMutability": "view",
      "type": "function"
    },
    {
      "inputs": [],
      "name": "pendingComptrollerImplementation",
      "outputs": [
        {
          "internalType": "address",
          "name": "",
          "type": "address"
        }
      ],
      "stateMutability": "view",
      "type": "function"
    },
    {
      "inputs": [],
      "name": "seizeGuardianPaused",
      "outputs": [
        {
          "internalType": "bool",
          "name": "",
          "type": "bool"
        }
      ],
      "stateMutability": "view",
      "type": "function"
    },
    {
      "inputs": [],
      "name": "transferGuardianPaused",
      "outputs": [
        {
          "internalType": "bool",
          "name": "",
          "type": "bool"
        }
      ],
      "stateMutability": "view",
      "type": "function"
    }
  ],
  "bytecode": {
    "object": "0x608060405234801561001057600080fd5b506105ce806100206000396000f3fe608060405234801561001057600080fd5b50600436106101735760003560e01c80638e8f294b116100de578063ca0af04311610097578063dcfbc0c711610071578063dcfbc0c71461043f578063e6653f3d14610452578063e875544614610466578063f851a4401461046f57600080fd5b8063ca0af043146103e1578063cc7ebdc41461040c578063dce154491461042c57600080fd5b80638e8f294b1461032a57806394b2294b1461037d578063aa90075414610386578063ac0b0bb71461038f578063b21be7fd146103a3578063bb82aa5e146103ce57600080fd5b80636b79c38d116101305780636b79c38d146102295780636d154ea514610285578063731f0c2b146102a85780637dc0d1d0146102cb57806387f76303146102de5780638c57804e146102f257600080fd5b80631d7b33d71461017857806324a3d622146101ab57806326782247146101d65780633c94786f146101e95780634ada90af1461020d57806352d84d1e14610216575b600080fd5b610198610186366004610500565b600f6020526000908152604090205481565b6040519081526020015b60405180910390f35b600a546101be906001600160a01b031681565b6040516001600160a01b0390911681526020016101a2565b6001546101be906001600160a01b031681565b600a546101fd90600160a01b900460ff1681565b60405190151581526020016101a2565b61019860065481565b6101be610224366004610522565b610482565b610261610237366004610500565b6010602052600090815260409020546001600160e01b03811690600160e01b900463ffffffff1682565b604080516001600160e01b03909316835263ffffffff9091166020830152016101a2565b6101fd610293366004610500565b600c6020526000908152604090205460ff1681565b6101fd6102b6366004610500565b600b6020526000908152604090205460ff1681565b6004546101be906001600160a01b031681565b600a546101fd90600160b01b900460ff1681565b610261610300366004610500565b6011602052600090815260409020546001600160e01b03811690600160e01b900463ffffffff1682565b61035e610338366004610500565b60096020526000908152604090208054600182015460039092015460ff91821692911683565b60408051931515845260208401929092521515908201526060016101a2565b61019860075481565b610198600e5481565b600a546101fd90600160b81b900460ff1681565b6101986103b136600461053b565b601260209081526000928352604080842090915290825290205481565b6002546101be906001600160a01b031681565b6101986103ef36600461053b565b601360209081526000928352604080842090915290825290205481565b61019861041a366004610500565b60146020526000908152604090205481565b6101be61043a36600461056e565b6104ac565b6003546101be906001600160a01b031681565b600a546101fd90600160a81b900460ff1681565b61019860055481565b6000546101be906001600160a01b031681565b600d818154811061049257600080fd5b6000918252602090912001546001600160a01b0316905081565b600860205281600052604060002081815481106104c857600080fd5b6000918252602090912001546001600160a01b03169150829050565b80356001600160a01b03811681146104fb57600080fd5b919050565b60006020828403121561051257600080fd5b61051b826104e4565b9392505050565b60006020828403121561053457600080fd5b5035919050565b6000806040838503121561054e57600080fd5b610557836104e4565b9150610565602084016104e4565b90509250929050565b6000806040838503121561058157600080fd5b61058a836104e4565b94602093909301359350505056fea2646970667358221220710fa56887d175c91bf29a0d6d2e919c5fd0fe4990a11fde220e92a651096b1364736f6c63430008150033",
    "linkReferences": {}
  },
  "methodIdentifiers": {
    "_borrowGuardianPaused()": "e6653f3d",
    "_mintGuardianPaused()": "3c94786f",
    "accountAssets(address,uint256)": "dce15449",
    "admin()": "f851a440",
    "allMarkets(uint256)": "52d84d1e",
    "borrowGuardianPaused(address)": "6d154ea5",
    "closeFactorMantissa()": "e8755446",
    "compAccrued(address)": "cc7ebdc4",
    "compBorrowState(address)": "8c57804e",
    "compBorrowerIndex(address,address)": "ca0af043",
    "compRate()": "aa900754",
    "compSpeeds(address)": "1d7b33d7",
    "compSupplierIndex(address,address)": "b21be7fd",
    "compSupplyState(address)": "6b79c38d",
    "comptrollerImplementation()": "bb82aa5e",
    "liquidationIncentiveMantissa()": "4ada90af",
    "markets(address)": "8e8f294b",
    "maxAssets()": "94b2294b",
    "mintGuardianPaused(address)": "731f0c2b",
    "oracle()": "7dc0d1d0",
    "pauseGuardian()": "24a3d622",
    "pendingAdmin()": "26782247",
    "pendingComptrollerImplementation()": "dcfbc0c7",
    "seizeGuardianPaused()": "ac0b0bb7",
    "transferGuardianPaused()": "87f76303"
  },
  "id": 7
}