{
  "abi": [
    {
      "inputs": [],
      "stateMutability": "nonpayable",
      "type": "constructor"
    },
    {
      "inputs": [
        {
          "internalType": "address",
          "name": "sender",
          "type": "address"
        },
        {
          "internalType": "uint256",
          "name": "tokenId",
          "type": "uint256"
        },
        {
          "internalType": "address",
          "name": "owner",
          "type": "address"
        }
      ],
      "name": "ERC721IncorrectOwner",
      "type": "error"
    },
    {
      "inputs": [
        {
          "internalType": "address",
          "name": "operator",
          "type": "address"
        },
        {
          "internalType": "uint256",
          "name": "tokenId",
          "type": "uint256"
        }
      ],
      "name": "ERC721InsufficientApproval",
      "type": "error"
    },
    {
      "inputs": [
        {
          "internalType": "address",
          "name": "approver",
          "type": "address"
        }
      ],
      "name": "ERC721InvalidApprover",
      "type": "error"
    },
    {
      "inputs": [
        {
          "internalType": "address",
          "name": "operator",
          "type": "address"
        }
      ],
      "name": "ERC721InvalidOperator",
      "type": "error"
    },
    {
      "inputs": [
        {
          "internalType": "address",
          "name": "owner",
          "type": "address"
        }
      ],
      "name": "ERC721InvalidOwner",
      "type": "error"
    },
    {
      "inputs": [
        {
          "internalType": "address",
          "name": "receiver",
          "type": "address"
        }
      ],
      "name": "ERC721InvalidReceiver",
      "type": "error"
    },
    {
      "inputs": [
        {
          "internalType": "address",
          "name": "sender",
          "type": "address"
        }
      ],
      "name": "ERC721InvalidSender",
      "type": "error"
    },
    {
      "inputs": [
        {
          "internalType": "uint256",
          "name": "tokenId",
          "type": "uint256"
        }
      ],
      "name": "ERC721NonexistentToken",
      "type": "error"
    },
    {
      "anonymous": false,
      "inputs": [
        {
          "indexed": true,
          "internalType": "address",
          "name": "owner",
          "type": "address"
        },
        {
          "indexed": true,
          "internalType": "address",
          "name": "approved",
          "type": "address"
        },
        {
          "indexed": true,
          "internalType": "uint256",
          "name": "tokenId",
          "type": "uint256"
        }
      ],
      "name": "Approval",
      "type": "event"
    },
    {
      "anonymous": false,
      "inputs": [
        {
          "indexed": true,
          "internalType": "address",
          "name": "owner",
          "type": "address"
        },
        {
          "indexed": true,
          "internalType": "address",
          "name": "operator",
          "type": "address"
        },
        {
          "indexed": false,
          "internalType": "bool",
          "name": "approved",
          "type": "bool"
        }
      ],
      "name": "ApprovalForAll",
      "type": "event"
    },
    {
      "anonymous": false,
      "inputs": [
        {
          "indexed": true,
          "internalType": "address",
          "name": "from",
          "type": "address"
        },
        {
          "indexed": true,
          "internalType": "address",
          "name": "to",
          "type": "address"
        },
        {
          "indexed": true,
          "internalType": "uint256",
          "name": "tokenId",
          "type": "uint256"
        }
      ],
      "name": "Transfer",
      "type": "event"
    },
    {
      "inputs": [
        {
          "internalType": "address",
          "name": "to",
          "type": "address"
        },
        {
          "internalType": "uint256",
          "name": "tokenId",
          "type": "uint256"
        }
      ],
      "name": "approve",
      "outputs": [],
      "stateMutability": "nonpayable",
      "type": "function"
    },
    {
      "inputs": [
        {
          "internalType": "address",
          "name": "owner",
          "type": "address"
        }
      ],
      "name": "balanceOf",
      "outputs": [
        {
          "internalType": "uint256",
          "name": "",
          "type": "uint256"
        }
      ],
      "stateMutability": "view",
      "type": "function"
    },
    {
      "inputs": [],
      "name": "baseURI",
      "outputs": [
        {
          "internalType": "string",
          "name": "",
          "type": "string"
        }
      ],
      "stateMutability": "view",
      "type": "function"
    },
    {
      "inputs": [
        {
          "internalType": "uint256",
          "name": "tokenId",
          "type": "uint256"
        }
      ],
      "name": "getApproved",
      "outputs": [
        {
          "internalType": "address",
          "name": "",
          "type": "address"
        }
      ],
      "stateMutability": "view",
      "type": "function"
    },
    {
      "inputs": [],
      "name": "initialOwner",
      "outputs": [
        {
          "internalType": "address",
          "name": "",
          "type": "address"
        }
      ],
      "stateMutability": "view",
      "type": "function"
    },
    {
      "inputs": [
        {
          "internalType": "address",
          "name": "owner",
          "type": "address"
        },
        {
          "internalType": "address",
          "name": "operator",
          "type": "address"
        }
      ],
      "name": "isApprovedForAll",
      "outputs": [
        {
          "internalType": "bool",
          "name": "",
          "type": "bool"
        }
      ],
      "stateMutability": "view",
      "type": "function"
    },
    {
      "inputs": [
        {
          "internalType": "address",
          "name": "to",
          "type": "address"
        }
      ],
      "name": "mint",
      "outputs": [],
      "stateMutability": "nonpayable",
      "type": "function"
    },
    {
      "inputs": [],
      "name": "name",
      "outputs": [
        {
          "internalType": "string",
          "name": "",
          "type": "string"
        }
      ],
      "stateMutability": "view",
      "type": "function"
    },
    {
      "inputs": [
        {
          "internalType": "uint256",
          "name": "tokenId",
          "type": "uint256"
        }
      ],
      "name": "ownerOf",
      "outputs": [
        {
          "internalType": "address",
          "name": "",
          "type": "address"
        }
      ],
      "stateMutability": "view",
      "type": "function"
    },
    {
      "inputs": [],
      "name": "revealBox",
      "outputs": [],
      "stateMutability": "nonpayable",
      "type": "function"
    },
    {
      "inputs": [],
      "name": "revealURI",
      "outputs": [
        {
          "internalType": "string",
          "name": "",
          "type": "string"
        }
      ],
      "stateMutability": "view",
      "type": "function"
    },
    {
      "inputs": [
        {
          "internalType": "address",
          "name": "from",
          "type": "address"
        },
        {
          "internalType": "address",
          "name": "to",
          "type": "address"
        },
        {
          "internalType": "uint256",
          "name": "tokenId",
          "type": "uint256"
        }
      ],
      "name": "safeTransferFrom",
      "outputs": [],
      "stateMutability": "nonpayable",
      "type": "function"
    },
    {
      "inputs": [
        {
          "internalType": "address",
          "name": "from",
          "type": "address"
        },
        {
          "internalType": "address",
          "name": "to",
          "type": "address"
        },
        {
          "internalType": "uint256",
          "name": "tokenId",
          "type": "uint256"
        },
        {
          "internalType": "bytes",
          "name": "data",
          "type": "bytes"
        }
      ],
      "name": "safeTransferFrom",
      "outputs": [],
      "stateMutability": "nonpayable",
      "type": "function"
    },
    {
      "inputs": [
        {
          "internalType": "address",
          "name": "operator",
          "type": "address"
        },
        {
          "internalType": "bool",
          "name": "approved",
          "type": "bool"
        }
      ],
      "name": "setApprovalForAll",
      "outputs": [],
      "stateMutability": "nonpayable",
      "type": "function"
    },
    {
      "inputs": [
        {
          "internalType": "bytes4",
          "name": "interfaceId",
          "type": "bytes4"
        }
      ],
      "name": "supportsInterface",
      "outputs": [
        {
          "internalType": "bool",
          "name": "",
          "type": "bool"
        }
      ],
      "stateMutability": "view",
      "type": "function"
    },
    {
      "inputs": [],
      "name": "symbol",
      "outputs": [
        {
          "internalType": "string",
          "name": "",
          "type": "string"
        }
      ],
      "stateMutability": "view",
      "type": "function"
    },
    {
      "inputs": [
        {
          "internalType": "uint256",
          "name": "tokenId",
          "type": "uint256"
        }
      ],
      "name": "tokenURI",
      "outputs": [
        {
          "internalType": "string",
          "name": "",
          "type": "string"
        }
      ],
      "stateMutability": "view",
      "type": "function"
    },
    {
      "inputs": [
        {
          "internalType": "address",
          "name": "from",
          "type": "address"
        },
        {
          "internalType": "address",
          "name": "to",
          "type": "address"
        },
        {
          "internalType": "uint256",
          "name": "tokenId",
          "type": "uint256"
        }
      ],
      "name": "transferFrom",
      "outputs": [],
      "stateMutability": "nonpayable",
      "type": "function"
    }
  ],
  "bytecode": {
    "object": "0x60006007556008805462ffffff19166101f417905560e06040526036608081815290620012a760a0396009906200003790826200018d565b50604051806060016040528060368152602001620012dd60369139600a906200006190826200018d565b503480156200006f57600080fd5b5060405180604001604052806008815260200167084d8d2dcc884def60c31b8152506040518060400160405280600381526020016208484b60eb1b8152508160009081620000be91906200018d565b506001620000cd82826200018d565b5050600680546001600160a01b031916331790555062000259565b634e487b7160e01b600052604160045260246000fd5b600181811c908216806200011357607f821691505b6020821081036200013457634e487b7160e01b600052602260045260246000fd5b50919050565b601f8211156200018857600081815260208120601f850160051c81016020861015620001635750805b601f850160051c820191505b8181101562000184578281556001016200016f565b5050505b505050565b81516001600160401b03811115620001a957620001a9620000e8565b620001c181620001ba8454620000fe565b846200013a565b602080601f831160018114620001f95760008415620001e05750858301515b600019600386901b1c1916600185901b17855562000184565b600085815260208120601f198616915b828110156200022a5788860151825594840194600190910190840162000209565b5085821015620002495787850151600019600388901b60f8161c191681555b5050505050600190811b01905550565b61103e80620002696000396000f3fe608060405234801561001057600080fd5b50600436106101165760003560e01c80636a627842116100a25780639dcc596d116100715780639dcc596d14610230578063a22cb46514610238578063b88d4fde1461024b578063c87b56dd1461025e578063e985e9c51461027157600080fd5b80636a627842146101ec5780636c0360eb146101ff57806370a082311461020757806395d89b411461022857600080fd5b8063160fba56116100e9578063160fba561461019857806323b872dd146101a057806329ba7bb2146101b357806342842e0e146101c65780636352211e146101d957600080fd5b806301ffc9a71461011b57806306fdde0314610143578063081812fc14610158578063095ea7b314610183575b600080fd5b61012e610129366004610cbe565b610284565b60405190151581526020015b60405180910390f35b61014b6102d6565b60405161013a9190610d28565b61016b610166366004610d3b565b610368565b6040516001600160a01b03909116815260200161013a565b610196610191366004610d6b565b610391565b005b61014b6103a0565b6101966101ae366004610d95565b61042e565b60065461016b906001600160a01b031681565b6101966101d4366004610d95565b6104be565b61016b6101e7366004610d3b565b6104de565b6101966101fa366004610dd1565b6104e9565b61014b610566565b61021a610215366004610dd1565b610573565b60405190815260200161013a565b61014b6105bb565b6101966105ca565b610196610246366004610dec565b610630565b610196610259366004610e3e565b61063b565b61014b61026c366004610d3b565b610652565b61012e61027f366004610f1a565b61070a565b60006001600160e01b031982166380ac58cd60e01b14806102b557506001600160e01b03198216635b5e139f60e01b145b806102d057506301ffc9a760e01b6001600160e01b03198316145b92915050565b6060600080546102e590610f4d565b80601f016020809104026020016040519081016040528092919081815260200182805461031190610f4d565b801561035e5780601f106103335761010080835404028352916020019161035e565b820191906000526020600020905b81548152906001019060200180831161034157829003601f168201915b5050505050905090565b600061037382610738565b506000828152600460205260409020546001600160a01b03166102d0565b61039c828233610771565b5050565b600a80546103ad90610f4d565b80601f01602080910402602001604051908101604052809291908181526020018280546103d990610f4d565b80156104265780601f106103fb57610100808354040283529160200191610426565b820191906000526020600020905b81548152906001019060200180831161040957829003601f168201915b505050505081565b6001600160a01b03821661045d57604051633250574960e11b8152600060048201526024015b60405180910390fd5b600061046a83833361077e565b9050836001600160a01b0316816001600160a01b0316146104b8576040516364283d7b60e01b81526001600160a01b0380861660048301526024820184905282166044820152606401610454565b50505050565b6104d98383836040518060200160405280600081525061063b565b505050565b60006102d082610738565b60085460075461ffff909116116105425760405162461bcd60e51b815260206004820152601d60248201527f4d6178696d756d206e756d626572206f66204e4654206d696e746564210000006044820152606401610454565b61054e81600754610877565b6007805490600061055e83610f87565b919050555050565b600980546103ad90610f4d565b60006001600160a01b03821661059f576040516322718ad960e21b815260006004820152602401610454565b506001600160a01b031660009081526003602052604090205490565b6060600180546102e590610f4d565b6006546001600160a01b0316331461061d5760405162461bcd60e51b8152602060048201526016602482015275596f7520617265206e6f7420746865204f574e45522160501b6044820152606401610454565b6008805462ff0000191662010000179055565b61039c338383610891565b61064684848461042e565b6104b884848484610930565b60085460609062010000900460ff16156106f857600a805461067390610f4d565b80601f016020809104026020016040519081016040528092919081815260200182805461069f90610f4d565b80156106ec5780601f106106c1576101008083540402835291602001916106ec565b820191906000526020600020905b8154815290600101906020018083116106cf57829003601f168201915b50505050509050919050565b6009805461067390610f4d565b919050565b6001600160a01b03918216600090815260056020908152604080832093909416825291909152205460ff1690565b6000818152600260205260408120546001600160a01b0316806102d057604051637e27328960e01b815260048101849052602401610454565b6104d98383836001610a59565b6000828152600260205260408120546001600160a01b03908116908316156107ab576107ab818486610b5f565b6001600160a01b038116156107e9576107c8600085600080610a59565b6001600160a01b038116600090815260036020526040902080546000190190555b6001600160a01b03851615610818576001600160a01b0385166000908152600360205260409020805460010190555b60008481526002602052604080822080546001600160a01b0319166001600160a01b0389811691821790925591518793918516917fddf252ad1be2c89b69c2b068fc378daa952ba7f163c4a11628f55a4df523b3ef91a4949350505050565b61039c828260405180602001604052806000815250610bc3565b6001600160a01b0382166108c357604051630b61174360e31b81526001600160a01b0383166004820152602401610454565b6001600160a01b03838116600081815260056020908152604080832094871680845294825291829020805460ff191686151590811790915591519182527f17307eab39ab6107e8899845ad3d59bd9653f200f220920489ca2b5937696c31910160405180910390a3505050565b6001600160a01b0383163b156104b857604051630a85bd0160e11b81526001600160a01b0384169063150b7a0290610972903390889087908790600401610fae565b6020604051808303816000875af19250505080156109ad575060408051601f3d908101601f191682019092526109aa91810190610feb565b60015b610a16573d8080156109db576040519150601f19603f3d011682016040523d82523d6000602084013e6109e0565b606091505b508051600003610a0e57604051633250574960e11b81526001600160a01b0385166004820152602401610454565b805181602001fd5b6001600160e01b03198116630a85bd0160e11b14610a5257604051633250574960e11b81526001600160a01b0385166004820152602401610454565b5050505050565b8080610a6d57506001600160a01b03821615155b15610b2f576000610a7d84610738565b90506001600160a01b03831615801590610aa95750826001600160a01b0316816001600160a01b031614155b8015610abc5750610aba818461070a565b155b15610ae55760405163a9fbf51f60e01b81526001600160a01b0384166004820152602401610454565b8115610b2d5783856001600160a01b0316826001600160a01b03167f8c5be1e5ebec7d5bd14f71427d1e84f3dd0314c0f7b2291e5b200ac8c7c3b92560405160405180910390a45b505b5050600090815260046020526040902080546001600160a01b0319166001600160a01b0392909216919091179055565b610b6a838383610bda565b6104d9576001600160a01b038316610b9857604051637e27328960e01b815260048101829052602401610454565b60405163177e802f60e01b81526001600160a01b038316600482015260248101829052604401610454565b610bcd8383610c40565b6104d96000848484610930565b60006001600160a01b03831615801590610c385750826001600160a01b0316846001600160a01b03161480610c145750610c14848461070a565b80610c3857506000828152600460205260409020546001600160a01b038481169116145b949350505050565b6001600160a01b038216610c6a57604051633250574960e11b815260006004820152602401610454565b6000610c788383600061077e565b90506001600160a01b038116156104d9576040516339e3563760e11b815260006004820152602401610454565b6001600160e01b031981168114610cbb57600080fd5b50565b600060208284031215610cd057600080fd5b8135610cdb81610ca5565b9392505050565b6000815180845260005b81811015610d0857602081850181015186830182015201610cec565b506000602082860101526020601f19601f83011685010191505092915050565b602081526000610cdb6020830184610ce2565b600060208284031215610d4d57600080fd5b5035919050565b80356001600160a01b038116811461070557600080fd5b60008060408385031215610d7e57600080fd5b610d8783610d54565b946020939093013593505050565b600080600060608486031215610daa57600080fd5b610db384610d54565b9250610dc160208501610d54565b9150604084013590509250925092565b600060208284031215610de357600080fd5b610cdb82610d54565b60008060408385031215610dff57600080fd5b610e0883610d54565b915060208301358015158114610e1d57600080fd5b809150509250929050565b634e487b7160e01b600052604160045260246000fd5b60008060008060808587031215610e5457600080fd5b610e5d85610d54565b9350610e6b60208601610d54565b925060408501359150606085013567ffffffffffffffff80821115610e8f57600080fd5b818701915087601f830112610ea357600080fd5b813581811115610eb557610eb5610e28565b604051601f8201601f19908116603f01168101908382118183101715610edd57610edd610e28565b816040528281528a6020848701011115610ef657600080fd5b82602086016020830137600060208483010152809550505050505092959194509250565b60008060408385031215610f2d57600080fd5b610f3683610d54565b9150610f4460208401610d54565b90509250929050565b600181811c90821680610f6157607f821691505b602082108103610f8157634e487b7160e01b600052602260045260246000fd5b50919050565b600060018201610fa757634e487b7160e01b600052601160045260246000fd5b5060010190565b6001600160a01b0385811682528416602082015260408101839052608060608201819052600090610fe190830184610ce2565b9695505050505050565b600060208284031215610ffd57600080fd5b8151610cdb81610ca556fea2646970667358221220ef56d783e924e3692630dcd4b8156f18705946187cc319657e51201b1640657464736f6c63430008150033697066733a2f2f516d51714743384845696f3237534a426f614c336641626279387276554d4a344e714371797954484736797559622f697066733a2f2f516d635433415238527244705556335647464558587154555169587a4c53576d574a77454636576775544d7238742f",
    "linkReferences": {}
  },
  "methodIdentifiers": {
    "approve(address,uint256)": "095ea7b3",
    "balanceOf(address)": "70a08231",
    "baseURI()": "6c0360eb",
    "getApproved(uint256)": "081812fc",
    "initialOwner()": "29ba7bb2",
    "isApprovedForAll(address,address)": "e985e9c5",
    "mint(address)": "6a627842",
    "name()": "06fdde03",
    "ownerOf(uint256)": "6352211e",
    "revealBox()": "9dcc596d",
    "revealURI()": "160fba56",
    "safeTransferFrom(address,address,uint256)": "42842e0e",
    "safeTransferFrom(address,address,uint256,bytes)": "b88d4fde",
    "setApprovalForAll(address,bool)": "a22cb465",
    "supportsInterface(bytes4)": "01ffc9a7",
    "symbol()": "95d89b41",
    "tokenURI(uint256)": "c87b56dd",
    "transferFrom(address,address,uint256)": "23b872dd"
  },
  "id": 29
}