{
  "abi": [
    {
      "inputs": [
        {
          "internalType": "uint256",
          "name": "cash",
          "type": "uint256"
        },
        {
          "internalType": "uint256",
          "name": "borrows",
          "type": "uint256"
        },
        {
          "internalType": "uint256",
          "name": "reserves",
          "type": "uint256"
        }
      ],
      "name": "getBorrowRate",
      "outputs": [
        {
          "internalType": "uint256",
          "name": "",
          "type": "uint256"
        }
      ],
      "stateMutability": "view",
      "type": "function"
    },
    {
      "inputs": [
        {
          "internalType": "uint256",
          "name": "cash",
          "type": "uint256"
        },
        {
          "internalType": "uint256",
          "name": "borrows",
          "type": "uint256"
        },
        {
          "internalType": "uint256",
          "name": "reserves",
          "type": "uint256"
        },
        {
          "internalType": "uint256",
          "name": "reserveFactorMantissa",
          "type": "uint256"
        }
      ],
      "name": "getSupplyRate",
      "outputs": [
        {
          "internalType": "uint256",
          "name": "",
          "type": "uint256"
        }
      ],
      "stateMutability": "view",
      "type": "function"
    },
    {
      "inputs": [],
      "name": "isInterestRateModel",
      "outputs": [
        {
          "internalType": "bool",
          "name": "",
          "type": "bool"
        }
      ],
      "stateMutability": "view",
      "type": "function"
    }
  ],
  "bytecode": {
    "object": "0x608060405234801561001057600080fd5b50610125806100206000396000f3fe6080604052348015600f57600080fd5b5060043610603c5760003560e01c806315f240531460415780632191f92a146068578063b816881614607e575b600080fd5b6055604c3660046093565b60009392505050565b6040519081526020015b60405180910390f35b606f600181565b6040519015158152602001605f565b6055608936600460be565b6000949350505050565b60008060006060848603121560a757600080fd5b505081359360208301359350604090920135919050565b6000806000806080858703121560d357600080fd5b505082359460208401359450604084013593606001359250905056fea2646970667358221220c80aad5981498fc5a3f13633b683ebdd10c27b50801efb9928728a3812706e1064736f6c63430008150033",
    "linkReferences": {}
  },
  "methodIdentifiers": {
    "getBorrowRate(uint256,uint256,uint256)": "15f24053",
    "getSupplyRate(uint256,uint256,uint256,uint256)": "b8168816",
    "isInterestRateModel()": "2191f92a"
  },
  "id": 45
}