{
  "abi": [
    {
      "inputs": [],
      "stateMutability": "nonpayable",
      "type": "constructor"
    },
    {
      "inputs": [
        {
          "internalType": "address",
          "name": "spender",
          "type": "address"
        },
        {
          "internalType": "uint256",
          "name": "allowance",
          "type": "uint256"
        },
        {
          "internalType": "uint256",
          "name": "needed",
          "type": "uint256"
        }
      ],
      "name": "ERC20InsufficientAllowance",
      "type": "error"
    },
    {
      "inputs": [
        {
          "internalType": "address",
          "name": "sender",
          "type": "address"
        },
        {
          "internalType": "uint256",
          "name": "balance",
          "type": "uint256"
        },
        {
          "internalType": "uint256",
          "name": "needed",
          "type": "uint256"
        }
      ],
      "name": "ERC20InsufficientBalance",
      "type": "error"
    },
    {
      "inputs": [
        {
          "internalType": "address",
          "name": "approver",
          "type": "address"
        }
      ],
      "name": "ERC20InvalidApprover",
      "type": "error"
    },
    {
      "inputs": [
        {
          "internalType": "address",
          "name": "receiver",
          "type": "address"
        }
      ],
      "name": "ERC20InvalidReceiver",
      "type": "error"
    },
    {
      "inputs": [
        {
          "internalType": "address",
          "name": "sender",
          "type": "address"
        }
      ],
      "name": "ERC20InvalidSender",
      "type": "error"
    },
    {
      "inputs": [
        {
          "internalType": "address",
          "name": "spender",
          "type": "address"
        }
      ],
      "name": "ERC20InvalidSpender",
      "type": "error"
    },
    {
      "anonymous": false,
      "inputs": [
        {
          "indexed": true,
          "internalType": "address",
          "name": "owner",
          "type": "address"
        },
        {
          "indexed": true,
          "internalType": "address",
          "name": "spender",
          "type": "address"
        },
        {
          "indexed": false,
          "internalType": "uint256",
          "name": "value",
          "type": "uint256"
        }
      ],
      "name": "Approval",
      "type": "event"
    },
    {
      "anonymous": false,
      "inputs": [
        {
          "indexed": false,
          "internalType": "address",
          "name": "sender",
          "type": "address"
        },
        {
          "indexed": false,
          "internalType": "uint256",
          "name": "amount",
          "type": "uint256"
        }
      ],
      "name": "DepositEvent",
      "type": "event"
    },
    {
      "anonymous": false,
      "inputs": [
        {
          "indexed": true,
          "internalType": "address",
          "name": "from",
          "type": "address"
        },
        {
          "indexed": true,
          "internalType": "address",
          "name": "to",
          "type": "address"
        },
        {
          "indexed": false,
          "internalType": "uint256",
          "name": "value",
          "type": "uint256"
        }
      ],
      "name": "Transfer",
      "type": "event"
    },
    {
      "anonymous": false,
      "inputs": [
        {
          "indexed": false,
          "internalType": "address",
          "name": "sender",
          "type": "address"
        },
        {
          "indexed": false,
          "internalType": "uint256",
          "name": "amount",
          "type": "uint256"
        }
      ],
      "name": "WithdrawalEvent",
      "type": "event"
    },
    {
      "inputs": [
        {
          "internalType": "address",
          "name": "owner",
          "type": "address"
        },
        {
          "internalType": "address",
          "name": "spender",
          "type": "address"
        }
      ],
      "name": "allowance",
      "outputs": [
        {
          "internalType": "uint256",
          "name": "",
          "type": "uint256"
        }
      ],
      "stateMutability": "view",
      "type": "function"
    },
    {
      "inputs": [
        {
          "internalType": "address",
          "name": "spender",
          "type": "address"
        },
        {
          "internalType": "uint256",
          "name": "value",
          "type": "uint256"
        }
      ],
      "name": "approve",
      "outputs": [
        {
          "internalType": "bool",
          "name": "",
          "type": "bool"
        }
      ],
      "stateMutability": "nonpayable",
      "type": "function"
    },
    {
      "inputs": [
        {
          "internalType": "address",
          "name": "account",
          "type": "address"
        }
      ],
      "name": "balanceOf",
      "outputs": [
        {
          "internalType": "uint256",
          "name": "",
          "type": "uint256"
        }
      ],
      "stateMutability": "view",
      "type": "function"
    },
    {
      "inputs": [
        {
          "internalType": "uint256",
          "name": "_amount",
          "type": "uint256"
        }
      ],
      "name": "burn",
      "outputs": [],
      "stateMutability": "nonpayable",
      "type": "function"
    },
    {
      "inputs": [],
      "name": "decimals",
      "outputs": [
        {
          "internalType": "uint8",
          "name": "",
          "type": "uint8"
        }
      ],
      "stateMutability": "view",
      "type": "function"
    },
    {
      "inputs": [],
      "name": "mint",
      "outputs": [],
      "stateMutability": "payable",
      "type": "function"
    },
    {
      "inputs": [],
      "name": "name",
      "outputs": [
        {
          "internalType": "string",
          "name": "",
          "type": "string"
        }
      ],
      "stateMutability": "view",
      "type": "function"
    },
    {
      "inputs": [],
      "name": "symbol",
      "outputs": [
        {
          "internalType": "string",
          "name": "",
          "type": "string"
        }
      ],
      "stateMutability": "view",
      "type": "function"
    },
    {
      "inputs": [],
      "name": "totalSupply",
      "outputs": [
        {
          "internalType": "uint256",
          "name": "",
          "type": "uint256"
        }
      ],
      "stateMutability": "view",
      "type": "function"
    },
    {
      "inputs": [
        {
          "internalType": "address",
          "name": "to",
          "type": "address"
        },
        {
          "internalType": "uint256",
          "name": "value",
          "type": "uint256"
        }
      ],
      "name": "transfer",
      "outputs": [
        {
          "internalType": "bool",
          "name": "",
          "type": "bool"
        }
      ],
      "stateMutability": "nonpayable",
      "type": "function"
    },
    {
      "inputs": [
        {
          "internalType": "address",
          "name": "from",
          "type": "address"
        },
        {
          "internalType": "address",
          "name": "to",
          "type": "address"
        },
        {
          "internalType": "uint256",
          "name": "value",
          "type": "uint256"
        }
      ],
      "name": "transferFrom",
      "outputs": [
        {
          "internalType": "bool",
          "name": "",
          "type": "bool"
        }
      ],
      "stateMutability": "nonpayable",
      "type": "function"
    }
  ],
  "bytecode": {
    "object": "0x608060405234801561001057600080fd5b506040518060400160405280600d81526020016c2bb930b83832b21022ba3432b960991b815250604051806040016040528060048152602001630ae8aa8960e31b81525081600390816100639190610117565b5060046100708282610117565b5050506101d6565b634e487b7160e01b600052604160045260246000fd5b600181811c908216806100a257607f821691505b6020821081036100c257634e487b7160e01b600052602260045260246000fd5b50919050565b601f82111561011257600081815260208120601f850160051c810160208610156100ef5750805b601f850160051c820191505b8181101561010e578281556001016100fb565b5050505b505050565b81516001600160401b0381111561013057610130610078565b6101448161013e845461008e565b846100c8565b602080601f83116001811461017957600084156101615750858301515b600019600386901b1c1916600185901b17855561010e565b600085815260208120601f198616915b828110156101a857888601518255948401946001909101908401610189565b50858210156101c65787850151600019600388901b60f8161c191681555b5050505050600190811b01905550565b6109d280620001e66000396000f3fe60806040526004361061009c5760003560e01c8063313ce56711610064578063313ce5671461014557806342966c681461016157806370a082311461018157806395d89b41146101b7578063a9059cbb146101cc578063dd62ed3e146101ec57600080fd5b806306fdde03146100a1578063095ea7b3146100cc5780631249c58b146100fc57806318160ddd1461010657806323b872dd14610125575b600080fd5b3480156100ad57600080fd5b506100b6610232565b6040516100c39190610803565b60405180910390f35b3480156100d857600080fd5b506100ec6100e736600461086d565b6102c4565b60405190151581526020016100c3565b6101046102de565b005b34801561011257600080fd5b506002545b6040519081526020016100c3565b34801561013157600080fd5b506100ec610140366004610897565b610322565b34801561015157600080fd5b50604051601281526020016100c3565b34801561016d57600080fd5b5061010461017c3660046108d3565b610346565b34801561018d57600080fd5b5061011761019c3660046108ec565b6001600160a01b031660009081526020819052604090205490565b3480156101c357600080fd5b506100b6610488565b3480156101d857600080fd5b506100ec6101e736600461086d565b610497565b3480156101f857600080fd5b5061011761020736600461090e565b6001600160a01b03918216600090815260016020908152604080832093909416825291909152205490565b60606003805461024190610941565b80601f016020809104026020016040519081016040528092919081815260200182805461026d90610941565b80156102ba5780601f1061028f576101008083540402835291602001916102ba565b820191906000526020600020905b81548152906001019060200180831161029d57829003601f168201915b5050505050905090565b6000336102d28185856104a5565b60019150505b92915050565b604080513381523460208201527f2d8a08b6430a894aea608bcaa6013d5d3e263bc49110605e4d4ba76930ae5c29910160405180910390a161032033346104b7565b565b6000336103308582856104f1565b61033b85858561056f565b506001949350505050565b3360009081526020819052604090205481111561039f5760405162461bcd60e51b8152602060048201526012602482015271496e73756666696369656e742046756e647360701b60448201526064015b60405180910390fd5b6103a933826105ce565b604051665375636365737360c81b81526000903390839060070160006040518083038185875af1925050503d8060008114610400576040519150601f19603f3d011682016040523d82523d6000602084013e610405565b606091505b505090508061044b5760405162461bcd60e51b81526020600482015260126024820152714661696c656420746f20436f6d706c65746560701b6044820152606401610396565b60408051338152602081018490527f2f174ca282119315c59efaf21147aef438581dabdeb498198ae28964373dd8bc910160405180910390a15050565b60606004805461024190610941565b6000336102d281858561056f565b6104b28383836001610604565b505050565b6001600160a01b0382166104e15760405163ec442f0560e01b815260006004820152602401610396565b6104ed600083836106d9565b5050565b6001600160a01b038381166000908152600160209081526040808320938616835292905220546000198114610569578181101561055a57604051637dc7a0d960e11b81526001600160a01b03841660048201526024810182905260448101839052606401610396565b61056984848484036000610604565b50505050565b6001600160a01b03831661059957604051634b637e8f60e11b815260006004820152602401610396565b6001600160a01b0382166105c35760405163ec442f0560e01b815260006004820152602401610396565b6104b28383836106d9565b6001600160a01b0382166105f857604051634b637e8f60e11b815260006004820152602401610396565b6104ed826000836106d9565b6001600160a01b03841661062e5760405163e602df0560e01b815260006004820152602401610396565b6001600160a01b03831661065857604051634a1406b160e11b815260006004820152602401610396565b6001600160a01b038085166000908152600160209081526040808320938716835292905220829055801561056957826001600160a01b0316846001600160a01b03167f8c5be1e5ebec7d5bd14f71427d1e84f3dd0314c0f7b2291e5b200ac8c7c3b925846040516106cb91815260200190565b60405180910390a350505050565b6001600160a01b0383166107045780600260008282546106f9919061097b565b909155506107769050565b6001600160a01b038316600090815260208190526040902054818110156107575760405163391434e360e21b81526001600160a01b03851660048201526024810182905260448101839052606401610396565b6001600160a01b03841660009081526020819052604090209082900390555b6001600160a01b038216610792576002805482900390556107b1565b6001600160a01b03821660009081526020819052604090208054820190555b816001600160a01b0316836001600160a01b03167fddf252ad1be2c89b69c2b068fc378daa952ba7f163c4a11628f55a4df523b3ef836040516107f691815260200190565b60405180910390a3505050565b600060208083528351808285015260005b8181101561083057858101830151858201604001528201610814565b506000604082860101526040601f19601f8301168501019250505092915050565b80356001600160a01b038116811461086857600080fd5b919050565b6000806040838503121561088057600080fd5b61088983610851565b946020939093013593505050565b6000806000606084860312156108ac57600080fd5b6108b584610851565b92506108c360208501610851565b9150604084013590509250925092565b6000602082840312156108e557600080fd5b5035919050565b6000602082840312156108fe57600080fd5b61090782610851565b9392505050565b6000806040838503121561092157600080fd5b61092a83610851565b915061093860208401610851565b90509250929050565b600181811c9082168061095557607f821691505b60208210810361097557634e487b7160e01b600052602260045260246000fd5b50919050565b808201808211156102d857634e487b7160e01b600052601160045260246000fdfea26469706673582212207c05c11343b8d965672a476d8434a59822ae7d36d00b6d97f577e414cae89b7a64736f6c63430008150033",
    "linkReferences": {}
  },
  "methodIdentifiers": {
    "allowance(address,address)": "dd62ed3e",
    "approve(address,uint256)": "095ea7b3",
    "balanceOf(address)": "70a08231",
    "burn(uint256)": "42966c68",
    "decimals()": "313ce567",
    "mint()": "1249c58b",
    "name()": "06fdde03",
    "symbol()": "95d89b41",
    "totalSupply()": "18160ddd",
    "transfer(address,uint256)": "a9059cbb",
    "transferFrom(address,address,uint256)": "23b872dd"
  },
  "id": 23
}