{
  "abi": [
    {
      "anonymous": false,
      "inputs": [
        {
          "indexed": true,
          "internalType": "address",
          "name": "owner",
          "type": "address"
        },
        {
          "indexed": true,
          "internalType": "address",
          "name": "spender",
          "type": "address"
        },
        {
          "indexed": true,
          "internalType": "uint256",
          "name": "id",
          "type": "uint256"
        }
      ],
      "name": "Approval",
      "type": "event"
    },
    {
      "anonymous": false,
      "inputs": [
        {
          "indexed": true,
          "internalType": "address",
          "name": "owner",
          "type": "address"
        },
        {
          "indexed": true,
          "internalType": "address",
          "name": "operator",
          "type": "address"
        },
        {
          "indexed": false,
          "internalType": "bool",
          "name": "approved",
          "type": "bool"
        }
      ],
      "name": "ApprovalForAll",
      "type": "event"
    },
    {
      "anonymous": false,
      "inputs": [
        {
          "indexed": true,
          "internalType": "address",
          "name": "from",
          "type": "address"
        },
        {
          "indexed": true,
          "internalType": "address",
          "name": "to",
          "type": "address"
        },
        {
          "indexed": true,
          "internalType": "uint256",
          "name": "id",
          "type": "uint256"
        }
      ],
      "name": "Transfer",
      "type": "event"
    },
    {
      "inputs": [
        {
          "internalType": "address",
          "name": "spender",
          "type": "address"
        },
        {
          "internalType": "uint256",
          "name": "id",
          "type": "uint256"
        }
      ],
      "name": "approve",
      "outputs": [],
      "stateMutability": "nonpayable",
      "type": "function"
    },
    {
      "inputs": [
        {
          "internalType": "address",
          "name": "owner",
          "type": "address"
        }
      ],
      "name": "balanceOf",
      "outputs": [
        {
          "internalType": "uint256",
          "name": "",
          "type": "uint256"
        }
      ],
      "stateMutability": "view",
      "type": "function"
    },
    {
      "inputs": [
        {
          "internalType": "uint256",
          "name": "",
          "type": "uint256"
        }
      ],
      "name": "getApproved",
      "outputs": [
        {
          "internalType": "address",
          "name": "",
          "type": "address"
        }
      ],
      "stateMutability": "view",
      "type": "function"
    },
    {
      "inputs": [
        {
          "internalType": "string",
          "name": "_name",
          "type": "string"
        },
        {
          "internalType": "string",
          "name": "_symbol",
          "type": "string"
        }
      ],
      "name": "initialize",
      "outputs": [],
      "stateMutability": "nonpayable",
      "type": "function"
    },
    {
      "inputs": [
        {
          "internalType": "address",
          "name": "",
          "type": "address"
        },
        {
          "internalType": "address",
          "name": "",
          "type": "address"
        }
      ],
      "name": "isApprovedForAll",
      "outputs": [
        {
          "internalType": "bool",
          "name": "",
          "type": "bool"
        }
      ],
      "stateMutability": "view",
      "type": "function"
    },
    {
      "inputs": [],
      "name": "name",
      "outputs": [
        {
          "internalType": "string",
          "name": "",
          "type": "string"
        }
      ],
      "stateMutability": "view",
      "type": "function"
    },
    {
      "inputs": [
        {
          "internalType": "uint256",
          "name": "id",
          "type": "uint256"
        }
      ],
      "name": "ownerOf",
      "outputs": [
        {
          "internalType": "address",
          "name": "owner",
          "type": "address"
        }
      ],
      "stateMutability": "view",
      "type": "function"
    },
    {
      "inputs": [
        {
          "internalType": "address",
          "name": "from",
          "type": "address"
        },
        {
          "internalType": "address",
          "name": "to",
          "type": "address"
        },
        {
          "internalType": "uint256",
          "name": "id",
          "type": "uint256"
        }
      ],
      "name": "safeTransferFrom",
      "outputs": [],
      "stateMutability": "nonpayable",
      "type": "function"
    },
    {
      "inputs": [
        {
          "internalType": "address",
          "name": "from",
          "type": "address"
        },
        {
          "internalType": "address",
          "name": "to",
          "type": "address"
        },
        {
          "internalType": "uint256",
          "name": "id",
          "type": "uint256"
        },
        {
          "internalType": "bytes",
          "name": "data",
          "type": "bytes"
        }
      ],
      "name": "safeTransferFrom",
      "outputs": [],
      "stateMutability": "nonpayable",
      "type": "function"
    },
    {
      "inputs": [
        {
          "internalType": "address",
          "name": "operator",
          "type": "address"
        },
        {
          "internalType": "bool",
          "name": "approved",
          "type": "bool"
        }
      ],
      "name": "setApprovalForAll",
      "outputs": [],
      "stateMutability": "nonpayable",
      "type": "function"
    },
    {
      "inputs": [
        {
          "internalType": "bytes4",
          "name": "interfaceId",
          "type": "bytes4"
        }
      ],
      "name": "supportsInterface",
      "outputs": [
        {
          "internalType": "bool",
          "name": "",
          "type": "bool"
        }
      ],
      "stateMutability": "pure",
      "type": "function"
    },
    {
      "inputs": [],
      "name": "symbol",
      "outputs": [
        {
          "internalType": "string",
          "name": "",
          "type": "string"
        }
      ],
      "stateMutability": "view",
      "type": "function"
    },
    {
      "inputs": [
        {
          "internalType": "uint256",
          "name": "id",
          "type": "uint256"
        }
      ],
      "name": "tokenURI",
      "outputs": [
        {
          "internalType": "string",
          "name": "",
          "type": "string"
        }
      ],
      "stateMutability": "view",
      "type": "function"
    },
    {
      "inputs": [
        {
          "internalType": "address",
          "name": "from",
          "type": "address"
        },
        {
          "internalType": "address",
          "name": "to",
          "type": "address"
        },
        {
          "internalType": "uint256",
          "name": "id",
          "type": "uint256"
        }
      ],
      "name": "transferFrom",
      "outputs": [],
      "stateMutability": "nonpayable",
      "type": "function"
    }
  ],
  "bytecode": {
    "object": "0x608060405234801561001057600080fd5b50610ef1806100206000396000f3fe608060405234801561001057600080fd5b50600436106100ea5760003560e01c80636352211e1161008c578063a22cb46511610066578063a22cb465146101f7578063b88d4fde1461020a578063c87b56dd1461021d578063e985e9c51461023157600080fd5b80636352211e146101bb57806370a08231146101ce57806395d89b41146101ef57600080fd5b8063095ea7b3116100c8578063095ea7b31461016d57806323b872dd1461018257806342842e0e146101955780634cd88b76146101a857600080fd5b806301ffc9a7146100ef57806306fdde0314610117578063081812fc1461012c575b600080fd5b6101026100fd3660046109aa565b61025f565b60405190151581526020015b60405180910390f35b61011f6102b1565b60405161010e9190610a14565b61015561013a366004610a27565b6004602052600090815260409020546001600160a01b031681565b6040516001600160a01b03909116815260200161010e565b61018061017b366004610a57565b61033f565b005b610180610190366004610a81565b610426565b6101806101a3366004610a81565b61061f565b6101806101b6366004610b69565b61070e565b6101556101c9366004610a27565b610782565b6101e16101dc366004610bcd565b6107d9565b60405190815260200161010e565b61011f61083c565b610180610205366004610be8565b610849565b610180610218366004610c24565b6108b5565b61011f61022b366004610a27565b50606090565b61010261023f366004610ca0565b600560209081526000928352604080842090915290825290205460ff1681565b60006301ffc9a760e01b6001600160e01b03198316148061029057506380ac58cd60e01b6001600160e01b03198316145b806102ab5750635b5e139f60e01b6001600160e01b03198316145b92915050565b600080546102be90610cd3565b80601f01602080910402602001604051908101604052809291908181526020018280546102ea90610cd3565b80156103375780601f1061030c57610100808354040283529160200191610337565b820191906000526020600020905b81548152906001019060200180831161031a57829003601f168201915b505050505081565b6000818152600260205260409020546001600160a01b03163381148061038857506001600160a01b038116600090815260056020908152604080832033845290915290205460ff165b6103ca5760405162461bcd60e51b815260206004820152600e60248201526d1393d517d055551213d49256915160921b60448201526064015b60405180910390fd5b60008281526004602052604080822080546001600160a01b0319166001600160a01b0387811691821790925591518593918516917f8c5be1e5ebec7d5bd14f71427d1e84f3dd0314c0f7b2291e5b200ac8c7c3b92591a4505050565b6000818152600260205260409020546001600160a01b0384811691161461047c5760405162461bcd60e51b815260206004820152600a60248201526957524f4e475f46524f4d60b01b60448201526064016103c1565b6001600160a01b0382166104c65760405162461bcd60e51b81526020600482015260116024820152701253959053125117d49150d25412515395607a1b60448201526064016103c1565b336001600160a01b038416148061050057506001600160a01b038316600090815260056020908152604080832033845290915290205460ff165b8061052157506000818152600460205260409020546001600160a01b031633145b61055e5760405162461bcd60e51b815260206004820152600e60248201526d1393d517d055551213d49256915160921b60448201526064016103c1565b6001600160a01b038316600090815260036020526040812080549161058283610d23565b90915550506001600160a01b03821660009081526003602052604081208054916105ab83610d3a565b9091555050600081815260026020908152604080832080546001600160a01b038088166001600160a01b031992831681179093556004909452828520805490911690559051849391928716917fddf252ad1be2c89b69c2b068fc378daa952ba7f163c4a11628f55a4df523b3ef91a4505050565b61062a838383610426565b813b15806106ca5750604051630a85bd0160e11b8082523360048301526001600160a01b03858116602484015260448301849052608060648401526000608484015290919084169063150b7a029060a4016020604051808303816000875af115801561069a573d6000803e3d6000fd5b505050506040513d601f19601f820116820180604052508101906106be9190610d53565b6001600160e01b031916145b6107095760405162461bcd60e51b815260206004820152601060248201526f155394d0519157d49150d2541251539560821b60448201526064016103c1565b505050565b60065460ff16156107575760405162461bcd60e51b81526020600482015260136024820152721053149150511657d253925512505312569151606a1b60448201526064016103c1565b60006107638382610dbe565b5060016107708282610dbe565b50506006805460ff1916600117905550565b6000818152600260205260409020546001600160a01b0316806107d45760405162461bcd60e51b815260206004820152600a6024820152691393d517d3525395115160b21b60448201526064016103c1565b919050565b60006001600160a01b0382166108205760405162461bcd60e51b815260206004820152600c60248201526b5a45524f5f4144445245535360a01b60448201526064016103c1565b506001600160a01b031660009081526003602052604090205490565b600180546102be90610cd3565b3360008181526005602090815260408083206001600160a01b03871680855290835292819020805460ff191686151590811790915590519081529192917f17307eab39ab6107e8899845ad3d59bd9653f200f220920489ca2b5937696c31910160405180910390a35050565b6108c0848484610426565b823b158061094c5750604051630a85bd0160e11b808252906001600160a01b0385169063150b7a02906108fd903390899088908890600401610e7e565b6020604051808303816000875af115801561091c573d6000803e3d6000fd5b505050506040513d601f19601f820116820180604052508101906109409190610d53565b6001600160e01b031916145b61098b5760405162461bcd60e51b815260206004820152601060248201526f155394d0519157d49150d2541251539560821b60448201526064016103c1565b50505050565b6001600160e01b0319811681146109a757600080fd5b50565b6000602082840312156109bc57600080fd5b81356109c781610991565b9392505050565b6000815180845260005b818110156109f4576020818501810151868301820152016109d8565b506000602082860101526020601f19601f83011685010191505092915050565b6020815260006109c760208301846109ce565b600060208284031215610a3957600080fd5b5035919050565b80356001600160a01b03811681146107d457600080fd5b60008060408385031215610a6a57600080fd5b610a7383610a40565b946020939093013593505050565b600080600060608486031215610a9657600080fd5b610a9f84610a40565b9250610aad60208501610a40565b9150604084013590509250925092565b634e487b7160e01b600052604160045260246000fd5b600067ffffffffffffffff80841115610aee57610aee610abd565b604051601f8501601f19908116603f01168101908282118183101715610b1657610b16610abd565b81604052809350858152868686011115610b2f57600080fd5b858560208301376000602087830101525050509392505050565b600082601f830112610b5a57600080fd5b6109c783833560208501610ad3565b60008060408385031215610b7c57600080fd5b823567ffffffffffffffff80821115610b9457600080fd5b610ba086838701610b49565b93506020850135915080821115610bb657600080fd5b50610bc385828601610b49565b9150509250929050565b600060208284031215610bdf57600080fd5b6109c782610a40565b60008060408385031215610bfb57600080fd5b610c0483610a40565b915060208301358015158114610c1957600080fd5b809150509250929050565b60008060008060808587031215610c3a57600080fd5b610c4385610a40565b9350610c5160208601610a40565b925060408501359150606085013567ffffffffffffffff811115610c7457600080fd5b8501601f81018713610c8557600080fd5b610c9487823560208401610ad3565b91505092959194509250565b60008060408385031215610cb357600080fd5b610cbc83610a40565b9150610cca60208401610a40565b90509250929050565b600181811c90821680610ce757607f821691505b602082108103610d0757634e487b7160e01b600052602260045260246000fd5b50919050565b634e487b7160e01b600052601160045260246000fd5b600081610d3257610d32610d0d565b506000190190565b600060018201610d4c57610d4c610d0d565b5060010190565b600060208284031215610d6557600080fd5b81516109c781610991565b601f82111561070957600081815260208120601f850160051c81016020861015610d975750805b601f850160051c820191505b81811015610db657828155600101610da3565b505050505050565b815167ffffffffffffffff811115610dd857610dd8610abd565b610dec81610de68454610cd3565b84610d70565b602080601f831160018114610e215760008415610e095750858301515b600019600386901b1c1916600185901b178555610db6565b600085815260208120601f198616915b82811015610e5057888601518255948401946001909101908401610e31565b5085821015610e6e5787850151600019600388901b60f8161c191681555b5050505050600190811b01905550565b6001600160a01b0385811682528416602082015260408101839052608060608201819052600090610eb1908301846109ce565b969550505050505056fea2646970667358221220da6623a77ae5ffe6a0f726d4e23feaaec47506deea8c24904c83573e782b52d064736f6c63430008150033",
    "linkReferences": {}
  },
  "methodIdentifiers": {
    "approve(address,uint256)": "095ea7b3",
    "balanceOf(address)": "70a08231",
    "getApproved(uint256)": "081812fc",
    "initialize(string,string)": "4cd88b76",
    "isApprovedForAll(address,address)": "e985e9c5",
    "name()": "06fdde03",
    "ownerOf(uint256)": "6352211e",
    "safeTransferFrom(address,address,uint256)": "42842e0e",
    "safeTransferFrom(address,address,uint256,bytes)": "b88d4fde",
    "setApprovalForAll(address,bool)": "a22cb465",
    "supportsInterface(bytes4)": "01ffc9a7",
    "symbol()": "95d89b41",
    "tokenURI(uint256)": "c87b56dd",
    "transferFrom(address,address,uint256)": "23b872dd"
  },
  "id": 36
}