{
  "abi": [
    {
      "inputs": [],
      "stateMutability": "nonpayable",
      "type": "constructor"
    },
    {
      "anonymous": false,
      "inputs": [
        {
          "indexed": true,
          "internalType": "address",
          "name": "user",
          "type": "address"
        },
        {
          "indexed": false,
          "internalType": "bytes",
          "name": "userPublicKey",
          "type": "bytes"
        },
        {
          "indexed": false,
          "internalType": "bytes",
          "name": "gamePublicKey",
          "type": "bytes"
        },
        {
          "indexed": true,
          "internalType": "bytes32",
          "name": "channelID",
          "type": "bytes32"
        },
        {
          "indexed": false,
          "internalType": "uint256",
          "name": "balance",
          "type": "uint256"
        }
      ],
      "name": "CreateStateChannelEvent",
      "type": "event"
    },
    {
      "anonymous": false,
      "inputs": [
        {
          "indexed": true,
          "internalType": "address",
          "name": "user",
          "type": "address"
        },
        {
          "indexed": false,
          "internalType": "uint256",
          "name": "value",
          "type": "uint256"
        }
      ],
      "name": "DepositEvent",
      "type": "event"
    },
    {
      "anonymous": false,
      "inputs": [
        {
          "indexed": true,
          "internalType": "address",
          "name": "user",
          "type": "address"
        },
        {
          "indexed": false,
          "internalType": "uint256",
          "name": "value",
          "type": "uint256"
        }
      ],
      "name": "WithdrawalEvent",
      "type": "event"
    },
    {
      "inputs": [],
      "name": "USDT",
      "outputs": [
        {
          "internalType": "contract IERC20",
          "name": "",
          "type": "address"
        }
      ],
      "stateMutability": "view",
      "type": "function"
    },
    {
      "inputs": [],
      "name": "checkBalances",
      "outputs": [
        {
          "internalType": "uint256",
          "name": "",
          "type": "uint256"
        }
      ],
      "stateMutability": "view",
      "type": "function"
    },
    {
      "inputs": [
        {
          "internalType": "address",
          "name": "_user",
          "type": "address"
        },
        {
          "internalType": "bytes",
          "name": "_userPublicKey",
          "type": "bytes"
        },
        {
          "internalType": "bytes",
          "name": "_gamePublicKey",
          "type": "bytes"
        },
        {
          "internalType": "bytes32",
          "name": "_channelID",
          "type": "bytes32"
        },
        {
          "internalType": "uint256",
          "name": "_balance",
          "type": "uint256"
        }
      ],
      "name": "createStateChannel",
      "outputs": [],
      "stateMutability": "nonpayable",
      "type": "function"
    },
    {
      "inputs": [
        {
          "internalType": "uint256",
          "name": "_amount",
          "type": "uint256"
        }
      ],
      "name": "deposit",
      "outputs": [],
      "stateMutability": "payable",
      "type": "function"
    },
    {
      "inputs": [
        {
          "internalType": "uint256",
          "name": "finalNonce",
          "type": "uint256"
        },
        {
          "internalType": "uint256",
          "name": "finalUserBalance",
          "type": "uint256"
        },
        {
          "internalType": "uint256",
          "name": "finalGameRevenue",
          "type": "uint256"
        },
        {
          "internalType": "bytes",
          "name": "userSignature",
          "type": "bytes"
        },
        {
          "internalType": "bytes",
          "name": "gameProviderSignature",
          "type": "bytes"
        }
      ],
      "name": "exitStateChannel",
      "outputs": [],
      "stateMutability": "nonpayable",
      "type": "function"
    },
    {
      "inputs": [
        {
          "internalType": "address",
          "name": "",
          "type": "address"
        }
      ],
      "name": "gameRevenue",
      "outputs": [
        {
          "internalType": "uint256",
          "name": "",
          "type": "uint256"
        }
      ],
      "stateMutability": "view",
      "type": "function"
    },
    {
      "inputs": [
        {
          "internalType": "address",
          "name": "",
          "type": "address"
        }
      ],
      "name": "userBalances",
      "outputs": [
        {
          "internalType": "uint256",
          "name": "",
          "type": "uint256"
        }
      ],
      "stateMutability": "view",
      "type": "function"
    },
    {
      "inputs": [
        {
          "internalType": "uint256",
          "name": "_amount",
          "type": "uint256"
        }
      ],
      "name": "withdraw",
      "outputs": [],
      "stateMutability": "nonpayable",
      "type": "function"
    }
  ],
  "bytecode": {
    "object": "0x608060405234801561001057600080fd5b50600080546001600160a01b03191673c2132d05d31c914a87c6611c10748aeb04b58e8f17905561082a806100466000396000f3fe60806040526004361061007b5760003560e01c8063b6b55f251161004e578063b6b55f2514610131578063c54e44eb14610144578063e50cd84c1461017c578063f82e51651461019c57600080fd5b806326224c64146100805780632e1a7d4d146100c05780639c621222146100e25780639e241e851461010f575b600080fd5b34801561008c57600080fd5b506100ad61009b36600461052f565b60016020526000908152604090205481565b6040519081526020015b60405180910390f35b3480156100cc57600080fd5b506100e06100db366004610551565b6101be565b005b3480156100ee57600080fd5b506100ad6100fd36600461052f565b60026020526000908152604090205481565b34801561011b57600080fd5b50336000908152600160205260409020546100ad565b6100e061013f366004610551565b610353565b34801561015057600080fd5b50600054610164906001600160a01b031681565b6040516001600160a01b0390911681526020016100b7565b34801561018857600080fd5b506100e061019736600461060d565b6104c6565b3480156101a857600080fd5b506100e06101b7366004610693565b5050505050565b600081116102255760405162461bcd60e51b815260206004820152602960248201527f416d6f756e7420746f207769746864726177206d75737420626520677265617460448201526806572207468616e20360bc1b60648201526084015b60405180910390fd5b3360009081526001602052604090205481111561024157600080fd5b336000908152600160205260408120805483929061026090849061072a565b909155505060005460405163a9059cbb60e01b8152336004820152602481018390526001600160a01b039091169063a9059cbb906044016020604051808303816000875af11580156102b6573d6000803e3d6000fd5b505050506040513d601f19601f820116820180604052508101906102da9190610743565b61031a5760405162461bcd60e51b815260206004820152601160248201527015da5d1a191c985dd85b0811985a5b1959607a1b604482015260640161021c565b60405181815233907f2f174ca282119315c59efaf21147aef438581dabdeb498198ae28964373dd8bc906020015b60405180910390a250565b600081116103b85760405162461bcd60e51b815260206004820152602c60248201527f416d6f756e7420746f206465706f736974206d7573742062652067726561746560448201526b72207468616e207a65726f2160a01b606482015260840161021c565b6000546040516323b872dd60e01b8152336004820152306024820152604481018390526001600160a01b03909116906323b872dd906064016020604051808303816000875af115801561040f573d6000803e3d6000fd5b505050506040513d601f19601f820116820180604052508101906104339190610743565b6104705760405162461bcd60e51b815260206004820152600e60248201526d11195c1bdcda5d0811985a5b195960921b604482015260640161021c565b336000908152600160205260408120805483929061048f908490610765565b909155505060405181815233907f2d8a08b6430a894aea608bcaa6013d5d3e263bc49110605e4d4ba76930ae5c2990602001610348565b81856001600160a01b03167fd7f801ab7c17a1cc9ff1709fa89c3e9e2f578cf9ff9c0be6b011b31daa2a7fa2868685604051610504939291906107be565b60405180910390a35050505050565b80356001600160a01b038116811461052a57600080fd5b919050565b60006020828403121561054157600080fd5b61054a82610513565b9392505050565b60006020828403121561056357600080fd5b5035919050565b634e487b7160e01b600052604160045260246000fd5b600082601f83011261059157600080fd5b813567ffffffffffffffff808211156105ac576105ac61056a565b604051601f8301601f19908116603f011681019082821181831017156105d4576105d461056a565b816040528381528660208588010111156105ed57600080fd5b836020870160208301376000602085830101528094505050505092915050565b600080600080600060a0868803121561062557600080fd5b61062e86610513565b9450602086013567ffffffffffffffff8082111561064b57600080fd5b61065789838a01610580565b9550604088013591508082111561066d57600080fd5b5061067a88828901610580565b9598949750949560608101359550608001359392505050565b600080600080600060a086880312156106ab57600080fd5b853594506020860135935060408601359250606086013567ffffffffffffffff808211156106d857600080fd5b6106e489838a01610580565b935060808801359150808211156106fa57600080fd5b5061070788828901610580565b9150509295509295909350565b634e487b7160e01b600052601160045260246000fd5b8181038181111561073d5761073d610714565b92915050565b60006020828403121561075557600080fd5b8151801515811461054a57600080fd5b8082018082111561073d5761073d610714565b6000815180845260005b8181101561079e57602081850181015186830182015201610782565b506000602082860101526020601f19601f83011685010191505092915050565b6060815260006107d16060830186610778565b82810360208401526107e38186610778565b91505082604083015294935050505056fea26469706673582212204e47985cafe201d4ced985e132fc9e5f6c788b1d13edb4fd9b1e144ef43fe29064736f6c63430008150033",
    "linkReferences": {}
  },
  "methodIdentifiers": {
    "USDT()": "c54e44eb",
    "checkBalances()": "9e241e85",
    "createStateChannel(address,bytes,bytes,bytes32,uint256)": "e50cd84c",
    "deposit(uint256)": "b6b55f25",
    "exitStateChannel(uint256,uint256,uint256,bytes,bytes)": "f82e5165",
    "gameRevenue(address)": "9c621222",
    "userBalances(address)": "26224c64",
    "withdraw(uint256)": "2e1a7d4d"
  },
  "id": 27
}