{
  "abi": [
    {
      "inputs": [
        {
          "internalType": "string",
          "name": "name",
          "type": "string"
        },
        {
          "internalType": "string",
          "name": "symbol",
          "type": "string"
        }
      ],
      "stateMutability": "nonpayable",
      "type": "constructor"
    },
    {
      "inputs": [],
      "name": "ERC721EnumerableForbiddenBatchMint",
      "type": "error"
    },
    {
      "inputs": [
        {
          "internalType": "address",
          "name": "sender",
          "type": "address"
        },
        {
          "internalType": "uint256",
          "name": "tokenId",
          "type": "uint256"
        },
        {
          "internalType": "address",
          "name": "owner",
          "type": "address"
        }
      ],
      "name": "ERC721IncorrectOwner",
      "type": "error"
    },
    {
      "inputs": [
        {
          "internalType": "address",
          "name": "operator",
          "type": "address"
        },
        {
          "internalType": "uint256",
          "name": "tokenId",
          "type": "uint256"
        }
      ],
      "name": "ERC721InsufficientApproval",
      "type": "error"
    },
    {
      "inputs": [
        {
          "internalType": "address",
          "name": "approver",
          "type": "address"
        }
      ],
      "name": "ERC721InvalidApprover",
      "type": "error"
    },
    {
      "inputs": [
        {
          "internalType": "address",
          "name": "operator",
          "type": "address"
        }
      ],
      "name": "ERC721InvalidOperator",
      "type": "error"
    },
    {
      "inputs": [
        {
          "internalType": "address",
          "name": "owner",
          "type": "address"
        }
      ],
      "name": "ERC721InvalidOwner",
      "type": "error"
    },
    {
      "inputs": [
        {
          "internalType": "address",
          "name": "receiver",
          "type": "address"
        }
      ],
      "name": "ERC721InvalidReceiver",
      "type": "error"
    },
    {
      "inputs": [
        {
          "internalType": "address",
          "name": "sender",
          "type": "address"
        }
      ],
      "name": "ERC721InvalidSender",
      "type": "error"
    },
    {
      "inputs": [
        {
          "internalType": "uint256",
          "name": "tokenId",
          "type": "uint256"
        }
      ],
      "name": "ERC721NonexistentToken",
      "type": "error"
    },
    {
      "inputs": [
        {
          "internalType": "address",
          "name": "owner",
          "type": "address"
        },
        {
          "internalType": "uint256",
          "name": "index",
          "type": "uint256"
        }
      ],
      "name": "ERC721OutOfBoundsIndex",
      "type": "error"
    },
    {
      "anonymous": false,
      "inputs": [
        {
          "indexed": true,
          "internalType": "address",
          "name": "owner",
          "type": "address"
        },
        {
          "indexed": true,
          "internalType": "address",
          "name": "approved",
          "type": "address"
        },
        {
          "indexed": true,
          "internalType": "uint256",
          "name": "tokenId",
          "type": "uint256"
        }
      ],
      "name": "Approval",
      "type": "event"
    },
    {
      "anonymous": false,
      "inputs": [
        {
          "indexed": true,
          "internalType": "address",
          "name": "owner",
          "type": "address"
        },
        {
          "indexed": true,
          "internalType": "address",
          "name": "operator",
          "type": "address"
        },
        {
          "indexed": false,
          "internalType": "bool",
          "name": "approved",
          "type": "bool"
        }
      ],
      "name": "ApprovalForAll",
      "type": "event"
    },
    {
      "anonymous": false,
      "inputs": [
        {
          "indexed": true,
          "internalType": "address",
          "name": "from",
          "type": "address"
        },
        {
          "indexed": true,
          "internalType": "address",
          "name": "to",
          "type": "address"
        },
        {
          "indexed": true,
          "internalType": "uint256",
          "name": "tokenId",
          "type": "uint256"
        }
      ],
      "name": "Transfer",
      "type": "event"
    },
    {
      "inputs": [
        {
          "internalType": "address",
          "name": "to",
          "type": "address"
        },
        {
          "internalType": "uint256",
          "name": "tokenId",
          "type": "uint256"
        }
      ],
      "name": "approve",
      "outputs": [],
      "stateMutability": "nonpayable",
      "type": "function"
    },
    {
      "inputs": [
        {
          "internalType": "address",
          "name": "owner",
          "type": "address"
        }
      ],
      "name": "balanceOf",
      "outputs": [
        {
          "internalType": "uint256",
          "name": "",
          "type": "uint256"
        }
      ],
      "stateMutability": "view",
      "type": "function"
    },
    {
      "inputs": [
        {
          "internalType": "address",
          "name": "_to",
          "type": "address"
        },
        {
          "internalType": "uint256",
          "name": "_amount",
          "type": "uint256"
        }
      ],
      "name": "batchMint",
      "outputs": [],
      "stateMutability": "nonpayable",
      "type": "function"
    },
    {
      "inputs": [
        {
          "internalType": "uint256",
          "name": "tokenId",
          "type": "uint256"
        }
      ],
      "name": "getApproved",
      "outputs": [
        {
          "internalType": "address",
          "name": "",
          "type": "address"
        }
      ],
      "stateMutability": "view",
      "type": "function"
    },
    {
      "inputs": [
        {
          "internalType": "address",
          "name": "owner",
          "type": "address"
        },
        {
          "internalType": "address",
          "name": "operator",
          "type": "address"
        }
      ],
      "name": "isApprovedForAll",
      "outputs": [
        {
          "internalType": "bool",
          "name": "",
          "type": "bool"
        }
      ],
      "stateMutability": "view",
      "type": "function"
    },
    {
      "inputs": [],
      "name": "name",
      "outputs": [
        {
          "internalType": "string",
          "name": "",
          "type": "string"
        }
      ],
      "stateMutability": "view",
      "type": "function"
    },
    {
      "inputs": [
        {
          "internalType": "uint256",
          "name": "tokenId",
          "type": "uint256"
        }
      ],
      "name": "ownerOf",
      "outputs": [
        {
          "internalType": "address",
          "name": "",
          "type": "address"
        }
      ],
      "stateMutability": "view",
      "type": "function"
    },
    {
      "inputs": [
        {
          "internalType": "address",
          "name": "from",
          "type": "address"
        },
        {
          "internalType": "address",
          "name": "to",
          "type": "address"
        },
        {
          "internalType": "uint256",
          "name": "tokenId",
          "type": "uint256"
        }
      ],
      "name": "safeTransferFrom",
      "outputs": [],
      "stateMutability": "nonpayable",
      "type": "function"
    },
    {
      "inputs": [
        {
          "internalType": "address",
          "name": "from",
          "type": "address"
        },
        {
          "internalType": "address",
          "name": "to",
          "type": "address"
        },
        {
          "internalType": "uint256",
          "name": "tokenId",
          "type": "uint256"
        },
        {
          "internalType": "bytes",
          "name": "data",
          "type": "bytes"
        }
      ],
      "name": "safeTransferFrom",
      "outputs": [],
      "stateMutability": "nonpayable",
      "type": "function"
    },
    {
      "inputs": [
        {
          "internalType": "address",
          "name": "operator",
          "type": "address"
        },
        {
          "internalType": "bool",
          "name": "approved",
          "type": "bool"
        }
      ],
      "name": "setApprovalForAll",
      "outputs": [],
      "stateMutability": "nonpayable",
      "type": "function"
    },
    {
      "inputs": [
        {
          "internalType": "bytes4",
          "name": "interfaceId",
          "type": "bytes4"
        }
      ],
      "name": "supportsInterface",
      "outputs": [
        {
          "internalType": "bool",
          "name": "",
          "type": "bool"
        }
      ],
      "stateMutability": "view",
      "type": "function"
    },
    {
      "inputs": [],
      "name": "symbol",
      "outputs": [
        {
          "internalType": "string",
          "name": "",
          "type": "string"
        }
      ],
      "stateMutability": "view",
      "type": "function"
    },
    {
      "inputs": [
        {
          "internalType": "uint256",
          "name": "index",
          "type": "uint256"
        }
      ],
      "name": "tokenByIndex",
      "outputs": [
        {
          "internalType": "uint256",
          "name": "",
          "type": "uint256"
        }
      ],
      "stateMutability": "view",
      "type": "function"
    },
    {
      "inputs": [
        {
          "internalType": "address",
          "name": "owner",
          "type": "address"
        },
        {
          "internalType": "uint256",
          "name": "index",
          "type": "uint256"
        }
      ],
      "name": "tokenOfOwnerByIndex",
      "outputs": [
        {
          "internalType": "uint256",
          "name": "",
          "type": "uint256"
        }
      ],
      "stateMutability": "view",
      "type": "function"
    },
    {
      "inputs": [
        {
          "internalType": "uint256",
          "name": "tokenId",
          "type": "uint256"
        }
      ],
      "name": "tokenURI",
      "outputs": [
        {
          "internalType": "string",
          "name": "",
          "type": "string"
        }
      ],
      "stateMutability": "view",
      "type": "function"
    },
    {
      "inputs": [],
      "name": "totalSupply",
      "outputs": [
        {
          "internalType": "uint256",
          "name": "",
          "type": "uint256"
        }
      ],
      "stateMutability": "view",
      "type": "function"
    },
    {
      "inputs": [
        {
          "internalType": "address",
          "name": "from",
          "type": "address"
        },
        {
          "internalType": "address",
          "name": "to",
          "type": "address"
        },
        {
          "internalType": "uint256",
          "name": "tokenId",
          "type": "uint256"
        }
      ],
      "name": "transferFrom",
      "outputs": [],
      "stateMutability": "nonpayable",
      "type": "function"
    },
    {
      "inputs": [
        {
          "internalType": "address",
          "name": "_from",
          "type": "address"
        },
        {
          "internalType": "address",
          "name": "_to",
          "type": "address"
        },
        {
          "internalType": "uint256",
          "name": "_tokenId",
          "type": "uint256"
        }
      ],
      "name": "transferNFT",
      "outputs": [],
      "stateMutability": "nonpayable",
      "type": "function"
    }
  ],
  "bytecode": {
    "object": "0x60806040523480156200001157600080fd5b50604051620016e9380380620016e9833981016040819052620000349162000123565b818160006200004483826200021c565b5060016200005382826200021c565b5050505050620002e8565b634e487b7160e01b600052604160045260246000fd5b600082601f8301126200008657600080fd5b81516001600160401b0380821115620000a357620000a36200005e565b604051601f8301601f19908116603f01168101908282118183101715620000ce57620000ce6200005e565b81604052838152602092508683858801011115620000eb57600080fd5b600091505b838210156200010f5785820183015181830184015290820190620000f0565b600093810190920192909252949350505050565b600080604083850312156200013757600080fd5b82516001600160401b03808211156200014f57600080fd5b6200015d8683870162000074565b935060208501519150808211156200017457600080fd5b50620001838582860162000074565b9150509250929050565b600181811c90821680620001a257607f821691505b602082108103620001c357634e487b7160e01b600052602260045260246000fd5b50919050565b601f8211156200021757600081815260208120601f850160051c81016020861015620001f25750805b601f850160051c820191505b818110156200021357828155600101620001fe565b5050505b505050565b81516001600160401b038111156200023857620002386200005e565b62000250816200024984546200018d565b84620001c9565b602080601f8311600181146200028857600084156200026f5750858301515b600019600386901b1c1916600185901b17855562000213565b600085815260208120601f198616915b82811015620002b95788860151825594840194600190910190840162000298565b5085821015620002d85787850151600019600388901b60f8161c191681555b5050505050600190811b01905550565b6113f180620002f86000396000f3fe608060405234801561001057600080fd5b50600436106101165760003560e01c80634f6ccce7116100a257806395d89b411161007157806395d89b4114610242578063a22cb4651461024a578063b88d4fde1461025d578063c87b56dd14610270578063e985e9c51461028357600080fd5b80634f6ccce7146101f65780636352211e1461020957806369e9cae11461021c57806370a082311461022f57600080fd5b806318160ddd116100e957806318160ddd1461019857806323b872dd146101aa5780632f745c59146101bd57806342842e0e146101d057806343508b05146101e357600080fd5b806301ffc9a71461011b57806306fdde0314610143578063081812fc14610158578063095ea7b314610183575b600080fd5b61012e610129366004610ff3565b610296565b60405190151581526020015b60405180910390f35b61014b6102c1565b60405161013a9190611060565b61016b610166366004611073565b610353565b6040516001600160a01b03909116815260200161013a565b6101966101913660046110a8565b61037c565b005b6008545b60405190815260200161013a565b6101966101b83660046110d2565b61038b565b61019c6101cb3660046110a8565b61041b565b6101966101de3660046110d2565b610480565b6101966101f13660046110a8565b6104a0565b61019c610204366004611073565b6104c5565b61016b610217366004611073565b61051e565b61019661022a3660046110d2565b610529565b61019c61023d36600461110e565b610534565b61014b61057c565b610196610258366004611129565b61058b565b61019661026b36600461117b565b610596565b61014b61027e366004611073565b6105ad565b61012e610291366004611257565b610622565b60006001600160e01b0319821663780e9d6360e01b14806102bb57506102bb82610650565b92915050565b6060600080546102d09061128a565b80601f01602080910402602001604051908101604052809291908181526020018280546102fc9061128a565b80156103495780601f1061031e57610100808354040283529160200191610349565b820191906000526020600020905b81548152906001019060200180831161032c57829003601f168201915b5050505050905090565b600061035e826106a0565b506000828152600460205260409020546001600160a01b03166102bb565b6103878282336106d9565b5050565b6001600160a01b0382166103ba57604051633250574960e11b8152600060048201526024015b60405180910390fd5b60006103c78383336106e6565b9050836001600160a01b0316816001600160a01b031614610415576040516364283d7b60e01b81526001600160a01b03808616600483015260248201849052821660448201526064016103b1565b50505050565b600061042683610534565b82106104575760405163295f44f760e21b81526001600160a01b0384166004820152602481018390526044016103b1565b506001600160a01b03919091166000908152600660209081526040808320938352929052205490565b61049b83838360405180602001604052806000815250610596565b505050565b60005b8181101561049b576104b583826107bb565b6104be816112da565b90506104a3565b60006104d060085490565b82106104f95760405163295f44f760e21b815260006004820152602481018390526044016103b1565b6008828154811061050c5761050c6112f3565b90600052602060002001549050919050565b60006102bb826106a0565b61049b838383610480565b60006001600160a01b038216610560576040516322718ad960e21b8152600060048201526024016103b1565b506001600160a01b031660009081526003602052604090205490565b6060600180546102d09061128a565b6103873383836107d5565b6105a184848461038b565b61041584848484610874565b60606105b8826106a0565b5060006105d060408051602081019091526000815290565b905060008151116105f0576040518060200160405280600081525061061b565b806105fa8461099d565b60405160200161060b929190611309565b6040516020818303038152906040525b9392505050565b6001600160a01b03918216600090815260056020908152604080832093909416825291909152205460ff1690565b60006001600160e01b031982166380ac58cd60e01b148061068157506001600160e01b03198216635b5e139f60e01b145b806102bb57506301ffc9a760e01b6001600160e01b03198316146102bb565b6000818152600260205260408120546001600160a01b0316806102bb57604051637e27328960e01b8152600481018490526024016103b1565b61049b8383836001610a30565b6000806106f4858585610b36565b90506001600160a01b0381166107515761074c84600880546000838152600960205260408120829055600182018355919091527ff3f7a9fe364faab93b216da50a3214154f22a0a2b415b23a84c8169e8b636ee30155565b610774565b846001600160a01b0316816001600160a01b031614610774576107748185610c2f565b6001600160a01b0385166107905761078b84610cc0565b6107b3565b846001600160a01b0316816001600160a01b0316146107b3576107b38585610d6f565b949350505050565b610387828260405180602001604052806000815250610dbf565b6001600160a01b03821661080757604051630b61174360e31b81526001600160a01b03831660048201526024016103b1565b6001600160a01b03838116600081815260056020908152604080832094871680845294825291829020805460ff191686151590811790915591519182527f17307eab39ab6107e8899845ad3d59bd9653f200f220920489ca2b5937696c31910160405180910390a3505050565b6001600160a01b0383163b1561041557604051630a85bd0160e11b81526001600160a01b0384169063150b7a02906108b6903390889087908790600401611338565b6020604051808303816000875af19250505080156108f1575060408051601f3d908101601f191682019092526108ee91810190611375565b60015b61095a573d80801561091f576040519150601f19603f3d011682016040523d82523d6000602084013e610924565b606091505b50805160000361095257604051633250574960e11b81526001600160a01b03851660048201526024016103b1565b805181602001fd5b6001600160e01b03198116630a85bd0160e11b1461099657604051633250574960e11b81526001600160a01b03851660048201526024016103b1565b5050505050565b606060006109aa83610dd6565b600101905060008167ffffffffffffffff8111156109ca576109ca611165565b6040519080825280601f01601f1916602001820160405280156109f4576020820181803683370190505b5090508181016020015b600019016f181899199a1a9b1b9c1cb0b131b232b360811b600a86061a8153600a85049450846109fe57509392505050565b8080610a4457506001600160a01b03821615155b15610b06576000610a54846106a0565b90506001600160a01b03831615801590610a805750826001600160a01b0316816001600160a01b031614155b8015610a935750610a918184610622565b155b15610abc5760405163a9fbf51f60e01b81526001600160a01b03841660048201526024016103b1565b8115610b045783856001600160a01b0316826001600160a01b03167f8c5be1e5ebec7d5bd14f71427d1e84f3dd0314c0f7b2291e5b200ac8c7c3b92560405160405180910390a45b505b5050600090815260046020526040902080546001600160a01b0319166001600160a01b0392909216919091179055565b6000828152600260205260408120546001600160a01b0390811690831615610b6357610b63818486610eae565b6001600160a01b03811615610ba157610b80600085600080610a30565b6001600160a01b038116600090815260036020526040902080546000190190555b6001600160a01b03851615610bd0576001600160a01b0385166000908152600360205260409020805460010190555b60008481526002602052604080822080546001600160a01b0319166001600160a01b0389811691821790925591518793918516917fddf252ad1be2c89b69c2b068fc378daa952ba7f163c4a11628f55a4df523b3ef91a4949350505050565b6000610c3a83610534565b600083815260076020526040902054909150808214610c8d576001600160a01b03841660009081526006602090815260408083208584528252808320548484528184208190558352600790915290208190555b5060009182526007602090815260408084208490556001600160a01b039094168352600681528383209183525290812055565b600854600090610cd290600190611392565b60008381526009602052604081205460088054939450909284908110610cfa57610cfa6112f3565b906000526020600020015490508060088381548110610d1b57610d1b6112f3565b6000918252602080832090910192909255828152600990915260408082208490558582528120556008805480610d5357610d536113a5565b6001900381819060005260206000200160009055905550505050565b60006001610d7c84610534565b610d869190611392565b6001600160a01b039093166000908152600660209081526040808320868452825280832085905593825260079052919091209190915550565b610dc98383610f12565b61049b6000848484610874565b60008072184f03e93ff9f4daa797ed6e38ed64bf6a1f0160401b8310610e155772184f03e93ff9f4daa797ed6e38ed64bf6a1f0160401b830492506040015b6d04ee2d6d415b85acef81000000008310610e41576d04ee2d6d415b85acef8100000000830492506020015b662386f26fc100008310610e5f57662386f26fc10000830492506010015b6305f5e1008310610e77576305f5e100830492506008015b6127108310610e8b57612710830492506004015b60648310610e9d576064830492506002015b600a83106102bb5760010192915050565b610eb9838383610f77565b61049b576001600160a01b038316610ee757604051637e27328960e01b8152600481018290526024016103b1565b60405163177e802f60e01b81526001600160a01b0383166004820152602481018290526044016103b1565b6001600160a01b038216610f3c57604051633250574960e11b8152600060048201526024016103b1565b6000610f4a838360006106e6565b90506001600160a01b0381161561049b576040516339e3563760e11b8152600060048201526024016103b1565b60006001600160a01b038316158015906107b35750826001600160a01b0316846001600160a01b03161480610fb15750610fb18484610622565b806107b35750506000908152600460205260409020546001600160a01b03908116911614919050565b6001600160e01b031981168114610ff057600080fd5b50565b60006020828403121561100557600080fd5b813561061b81610fda565b60005b8381101561102b578181015183820152602001611013565b50506000910152565b6000815180845261104c816020860160208601611010565b601f01601f19169290920160200192915050565b60208152600061061b6020830184611034565b60006020828403121561108557600080fd5b5035919050565b80356001600160a01b03811681146110a357600080fd5b919050565b600080604083850312156110bb57600080fd5b6110c48361108c565b946020939093013593505050565b6000806000606084860312156110e757600080fd5b6110f08461108c565b92506110fe6020850161108c565b9150604084013590509250925092565b60006020828403121561112057600080fd5b61061b8261108c565b6000806040838503121561113c57600080fd5b6111458361108c565b91506020830135801515811461115a57600080fd5b809150509250929050565b634e487b7160e01b600052604160045260246000fd5b6000806000806080858703121561119157600080fd5b61119a8561108c565b93506111a86020860161108c565b925060408501359150606085013567ffffffffffffffff808211156111cc57600080fd5b818701915087601f8301126111e057600080fd5b8135818111156111f2576111f2611165565b604051601f8201601f19908116603f0116810190838211818310171561121a5761121a611165565b816040528281528a602084870101111561123357600080fd5b82602086016020830137600060208483010152809550505050505092959194509250565b6000806040838503121561126a57600080fd5b6112738361108c565b91506112816020840161108c565b90509250929050565b600181811c9082168061129e57607f821691505b6020821081036112be57634e487b7160e01b600052602260045260246000fd5b50919050565b634e487b7160e01b600052601160045260246000fd5b6000600182016112ec576112ec6112c4565b5060010190565b634e487b7160e01b600052603260045260246000fd5b6000835161131b818460208801611010565b83519083019061132f818360208801611010565b01949350505050565b6001600160a01b038581168252841660208201526040810183905260806060820181905260009061136b90830184611034565b9695505050505050565b60006020828403121561138757600080fd5b815161061b81610fda565b818103818111156102bb576102bb6112c4565b634e487b7160e01b600052603160045260246000fdfea2646970667358221220d389151606eea4c67fa6f5a08479bd5e2099faf40429f4c8389a0dbce88eacd364736f6c63430008150033",
    "linkReferences": {}
  },
  "methodIdentifiers": {
    "approve(address,uint256)": "095ea7b3",
    "balanceOf(address)": "70a08231",
    "batchMint(address,uint256)": "43508b05",
    "getApproved(uint256)": "081812fc",
    "isApprovedForAll(address,address)": "e985e9c5",
    "name()": "06fdde03",
    "ownerOf(uint256)": "6352211e",
    "safeTransferFrom(address,address,uint256)": "42842e0e",
    "safeTransferFrom(address,address,uint256,bytes)": "b88d4fde",
    "setApprovalForAll(address,bool)": "a22cb465",
    "supportsInterface(bytes4)": "01ffc9a7",
    "symbol()": "95d89b41",
    "tokenByIndex(uint256)": "4f6ccce7",
    "tokenOfOwnerByIndex(address,uint256)": "2f745c59",
    "tokenURI(uint256)": "c87b56dd",
    "totalSupply()": "18160ddd",
    "transferFrom(address,address,uint256)": "23b872dd",
    "transferNFT(address,address,uint256)": "69e9cae1"
  },
  "id": 33
}