{
  "abi": [
    {
      "inputs": [],
      "name": "AcceptAdminPendingAdminCheck",
      "type": "error"
    },
    {
      "inputs": [
        {
          "internalType": "uint256",
          "name": "actualAddAmount",
          "type": "uint256"
        }
      ],
      "name": "AddReservesFactorFreshCheck",
      "type": "error"
    },
    {
      "inputs": [],
      "name": "BorrowCashNotAvailable",
      "type": "error"
    },
    {
      "inputs": [
        {
          "internalType": "uint256",
          "name": "errorCode",
          "type": "uint256"
        }
      ],
      "name": "BorrowComptrollerRejection",
      "type": "error"
    },
    {
      "inputs": [],
      "name": "BorrowFreshnessCheck",
      "type": "error"
    },
    {
      "inputs": [
        {
          "internalType": "uint256",
          "name": "errorCode",
          "type": "uint256"
        }
      ],
      "name": "LiquidateAccrueBorrowInterestFailed",
      "type": "error"
    },
    {
      "inputs": [
        {
          "internalType": "uint256",
          "name": "errorCode",
          "type": "uint256"
        }
      ],
      "name": "LiquidateAccrueCollateralInterestFailed",
      "type": "error"
    },
    {
      "inputs": [],
      "name": "LiquidateCloseAmountIsUintMax",
      "type": "error"
    },
    {
      "inputs": [],
      "name": "LiquidateCloseAmountIsZero",
      "type": "error"
    },
    {
      "inputs": [],
      "name": "LiquidateCollateralFreshnessCheck",
      "type": "error"
    },
    {
      "inputs": [
        {
          "internalType": "uint256",
          "name": "errorCode",
          "type": "uint256"
        }
      ],
      "name": "LiquidateComptrollerRejection",
      "type": "error"
    },
    {
      "inputs": [],
      "name": "LiquidateFreshnessCheck",
      "type": "error"
    },
    {
      "inputs": [],
      "name": "LiquidateLiquidatorIsBorrower",
      "type": "error"
    },
    {
      "inputs": [
        {
          "internalType": "uint256",
          "name": "errorCode",
          "type": "uint256"
        }
      ],
      "name": "LiquidateRepayBorrowFreshFailed",
      "type": "error"
    },
    {
      "inputs": [
        {
          "internalType": "uint256",
          "name": "errorCode",
          "type": "uint256"
        }
      ],
      "name": "LiquidateSeizeComptrollerRejection",
      "type": "error"
    },
    {
      "inputs": [],
      "name": "LiquidateSeizeLiquidatorIsBorrower",
      "type": "error"
    },
    {
      "inputs": [
        {
          "internalType": "uint256",
          "name": "errorCode",
          "type": "uint256"
        }
      ],
      "name": "MintComptrollerRejection",
      "type": "error"
    },
    {
      "inputs": [],
      "name": "MintFreshnessCheck",
      "type": "error"
    },
    {
      "inputs": [
        {
          "internalType": "uint256",
          "name": "errorCode",
          "type": "uint256"
        }
      ],
      "name": "RedeemComptrollerRejection",
      "type": "error"
    },
    {
      "inputs": [],
      "name": "RedeemFreshnessCheck",
      "type": "error"
    },
    {
      "inputs": [],
      "name": "RedeemTransferOutNotPossible",
      "type": "error"
    },
    {
      "inputs": [],
      "name": "ReduceReservesAdminCheck",
      "type": "error"
    },
    {
      "inputs": [],
      "name": "ReduceReservesCashNotAvailable",
      "type": "error"
    },
    {
      "inputs": [],
      "name": "ReduceReservesCashValidation",
      "type": "error"
    },
    {
      "inputs": [],
      "name": "ReduceReservesFreshCheck",
      "type": "error"
    },
    {
      "inputs": [
        {
          "internalType": "uint256",
          "name": "errorCode",
          "type": "uint256"
        }
      ],
      "name": "RepayBorrowComptrollerRejection",
      "type": "error"
    },
    {
      "inputs": [],
      "name": "RepayBorrowFreshnessCheck",
      "type": "error"
    },
    {
      "inputs": [],
      "name": "SetComptrollerOwnerCheck",
      "type": "error"
    },
    {
      "inputs": [],
      "name": "SetInterestRateModelFreshCheck",
      "type": "error"
    },
    {
      "inputs": [],
      "name": "SetInterestRateModelOwnerCheck",
      "type": "error"
    },
    {
      "inputs": [],
      "name": "SetPendingAdminOwnerCheck",
      "type": "error"
    },
    {
      "inputs": [],
      "name": "SetReserveFactorAdminCheck",
      "type": "error"
    },
    {
      "inputs": [],
      "name": "SetReserveFactorBoundsCheck",
      "type": "error"
    },
    {
      "inputs": [],
      "name": "SetReserveFactorFreshCheck",
      "type": "error"
    },
    {
      "inputs": [
        {
          "internalType": "uint256",
          "name": "errorCode",
          "type": "uint256"
        }
      ],
      "name": "TransferComptrollerRejection",
      "type": "error"
    },
    {
      "inputs": [],
      "name": "TransferNotAllowed",
      "type": "error"
    },
    {
      "inputs": [],
      "name": "TransferNotEnough",
      "type": "error"
    },
    {
      "inputs": [],
      "name": "TransferTooMuch",
      "type": "error"
    },
    {
      "anonymous": false,
      "inputs": [
        {
          "indexed": false,
          "internalType": "uint256",
          "name": "cashPrior",
          "type": "uint256"
        },
        {
          "indexed": false,
          "internalType": "uint256",
          "name": "interestAccumulated",
          "type": "uint256"
        },
        {
          "indexed": false,
          "internalType": "uint256",
          "name": "borrowIndex",
          "type": "uint256"
        },
        {
          "indexed": false,
          "internalType": "uint256",
          "name": "totalBorrows",
          "type": "uint256"
        }
      ],
      "name": "AccrueInterest",
      "type": "event"
    },
    {
      "anonymous": false,
      "inputs": [
        {
          "indexed": true,
          "internalType": "address",
          "name": "owner",
          "type": "address"
        },
        {
          "indexed": true,
          "internalType": "address",
          "name": "spender",
          "type": "address"
        },
        {
          "indexed": false,
          "internalType": "uint256",
          "name": "amount",
          "type": "uint256"
        }
      ],
      "name": "Approval",
      "type": "event"
    },
    {
      "anonymous": false,
      "inputs": [
        {
          "indexed": false,
          "internalType": "address",
          "name": "borrower",
          "type": "address"
        },
        {
          "indexed": false,
          "internalType": "uint256",
          "name": "borrowAmount",
          "type": "uint256"
        },
        {
          "indexed": false,
          "internalType": "uint256",
          "name": "accountBorrows",
          "type": "uint256"
        },
        {
          "indexed": false,
          "internalType": "uint256",
          "name": "totalBorrows",
          "type": "uint256"
        }
      ],
      "name": "Borrow",
      "type": "event"
    },
    {
      "anonymous": false,
      "inputs": [
        {
          "indexed": false,
          "internalType": "address",
          "name": "liquidator",
          "type": "address"
        },
        {
          "indexed": false,
          "internalType": "address",
          "name": "borrower",
          "type": "address"
        },
        {
          "indexed": false,
          "internalType": "uint256",
          "name": "repayAmount",
          "type": "uint256"
        },
        {
          "indexed": false,
          "internalType": "address",
          "name": "cTokenCollateral",
          "type": "address"
        },
        {
          "indexed": false,
          "internalType": "uint256",
          "name": "seizeTokens",
          "type": "uint256"
        }
      ],
      "name": "LiquidateBorrow",
      "type": "event"
    },
    {
      "anonymous": false,
      "inputs": [
        {
          "indexed": false,
          "internalType": "address",
          "name": "minter",
          "type": "address"
        },
        {
          "indexed": false,
          "internalType": "uint256",
          "name": "mintAmount",
          "type": "uint256"
        },
        {
          "indexed": false,
          "internalType": "uint256",
          "name": "mintTokens",
          "type": "uint256"
        }
      ],
      "name": "Mint",
      "type": "event"
    },
    {
      "anonymous": false,
      "inputs": [
        {
          "indexed": false,
          "internalType": "address",
          "name": "oldAdmin",
          "type": "address"
        },
        {
          "indexed": false,
          "internalType": "address",
          "name": "newAdmin",
          "type": "address"
        }
      ],
      "name": "NewAdmin",
      "type": "event"
    },
    {
      "anonymous": false,
      "inputs": [
        {
          "indexed": false,
          "internalType": "contract ComptrollerInterface",
          "name": "oldComptroller",
          "type": "address"
        },
        {
          "indexed": false,
          "internalType": "contract ComptrollerInterface",
          "name": "newComptroller",
          "type": "address"
        }
      ],
      "name": "NewComptroller",
      "type": "event"
    },
    {
      "anonymous": false,
      "inputs": [
        {
          "indexed": false,
          "internalType": "contract InterestRateModel",
          "name": "oldInterestRateModel",
          "type": "address"
        },
        {
          "indexed": false,
          "internalType": "contract InterestRateModel",
          "name": "newInterestRateModel",
          "type": "address"
        }
      ],
      "name": "NewMarketInterestRateModel",
      "type": "event"
    },
    {
      "anonymous": false,
      "inputs": [
        {
          "indexed": false,
          "internalType": "address",
          "name": "oldPendingAdmin",
          "type": "address"
        },
        {
          "indexed": false,
          "internalType": "address",
          "name": "newPendingAdmin",
          "type": "address"
        }
      ],
      "name": "NewPendingAdmin",
      "type": "event"
    },
    {
      "anonymous": false,
      "inputs": [
        {
          "indexed": false,
          "internalType": "uint256",
          "name": "oldReserveFactorMantissa",
          "type": "uint256"
        },
        {
          "indexed": false,
          "internalType": "uint256",
          "name": "newReserveFactorMantissa",
          "type": "uint256"
        }
      ],
      "name": "NewReserveFactor",
      "type": "event"
    },
    {
      "anonymous": false,
      "inputs": [
        {
          "indexed": false,
          "internalType": "address",
          "name": "redeemer",
          "type": "address"
        },
        {
          "indexed": false,
          "internalType": "uint256",
          "name": "redeemAmount",
          "type": "uint256"
        },
        {
          "indexed": false,
          "internalType": "uint256",
          "name": "redeemTokens",
          "type": "uint256"
        }
      ],
      "name": "Redeem",
      "type": "event"
    },
    {
      "anonymous": false,
      "inputs": [
        {
          "indexed": false,
          "internalType": "address",
          "name": "payer",
          "type": "address"
        },
        {
          "indexed": false,
          "internalType": "address",
          "name": "borrower",
          "type": "address"
        },
        {
          "indexed": false,
          "internalType": "uint256",
          "name": "repayAmount",
          "type": "uint256"
        },
        {
          "indexed": false,
          "internalType": "uint256",
          "name": "accountBorrows",
          "type": "uint256"
        },
        {
          "indexed": false,
          "internalType": "uint256",
          "name": "totalBorrows",
          "type": "uint256"
        }
      ],
      "name": "RepayBorrow",
      "type": "event"
    },
    {
      "anonymous": false,
      "inputs": [
        {
          "indexed": false,
          "internalType": "address",
          "name": "benefactor",
          "type": "address"
        },
        {
          "indexed": false,
          "internalType": "uint256",
          "name": "addAmount",
          "type": "uint256"
        },
        {
          "indexed": false,
          "internalType": "uint256",
          "name": "newTotalReserves",
          "type": "uint256"
        }
      ],
      "name": "ReservesAdded",
      "type": "event"
    },
    {
      "anonymous": false,
      "inputs": [
        {
          "indexed": false,
          "internalType": "address",
          "name": "admin",
          "type": "address"
        },
        {
          "indexed": false,
          "internalType": "uint256",
          "name": "reduceAmount",
          "type": "uint256"
        },
        {
          "indexed": false,
          "internalType": "uint256",
          "name": "newTotalReserves",
          "type": "uint256"
        }
      ],
      "name": "ReservesReduced",
      "type": "event"
    },
    {
      "anonymous": false,
      "inputs": [
        {
          "indexed": true,
          "internalType": "address",
          "name": "from",
          "type": "address"
        },
        {
          "indexed": true,
          "internalType": "address",
          "name": "to",
          "type": "address"
        },
        {
          "indexed": false,
          "internalType": "uint256",
          "name": "amount",
          "type": "uint256"
        }
      ],
      "name": "Transfer",
      "type": "event"
    },
    {
      "inputs": [],
      "name": "NO_ERROR",
      "outputs": [
        {
          "internalType": "uint256",
          "name": "",
          "type": "uint256"
        }
      ],
      "stateMutability": "view",
      "type": "function"
    },
    {
      "inputs": [],
      "name": "_acceptAdmin",
      "outputs": [
        {
          "internalType": "uint256",
          "name": "",
          "type": "uint256"
        }
      ],
      "stateMutability": "nonpayable",
      "type": "function"
    },
    {
      "inputs": [
        {
          "internalType": "uint256",
          "name": "addAmount",
          "type": "uint256"
        }
      ],
      "name": "_addReserves",
      "outputs": [
        {
          "internalType": "uint256",
          "name": "",
          "type": "uint256"
        }
      ],
      "stateMutability": "nonpayable",
      "type": "function"
    },
    {
      "inputs": [
        {
          "internalType": "address",
          "name": "compLikeDelegatee",
          "type": "address"
        }
      ],
      "name": "_delegateCompLikeTo",
      "outputs": [],
      "stateMutability": "nonpayable",
      "type": "function"
    },
    {
      "inputs": [
        {
          "internalType": "uint256",
          "name": "reduceAmount",
          "type": "uint256"
        }
      ],
      "name": "_reduceReserves",
      "outputs": [
        {
          "internalType": "uint256",
          "name": "",
          "type": "uint256"
        }
      ],
      "stateMutability": "nonpayable",
      "type": "function"
    },
    {
      "inputs": [
        {
          "internalType": "contract ComptrollerInterface",
          "name": "newComptroller",
          "type": "address"
        }
      ],
      "name": "_setComptroller",
      "outputs": [
        {
          "internalType": "uint256",
          "name": "",
          "type": "uint256"
        }
      ],
      "stateMutability": "nonpayable",
      "type": "function"
    },
    {
      "inputs": [
        {
          "internalType": "contract InterestRateModel",
          "name": "newInterestRateModel",
          "type": "address"
        }
      ],
      "name": "_setInterestRateModel",
      "outputs": [
        {
          "internalType": "uint256",
          "name": "",
          "type": "uint256"
        }
      ],
      "stateMutability": "nonpayable",
      "type": "function"
    },
    {
      "inputs": [
        {
          "internalType": "address payable",
          "name": "newPendingAdmin",
          "type": "address"
        }
      ],
      "name": "_setPendingAdmin",
      "outputs": [
        {
          "internalType": "uint256",
          "name": "",
          "type": "uint256"
        }
      ],
      "stateMutability": "nonpayable",
      "type": "function"
    },
    {
      "inputs": [
        {
          "internalType": "uint256",
          "name": "newReserveFactorMantissa",
          "type": "uint256"
        }
      ],
      "name": "_setReserveFactor",
      "outputs": [
        {
          "internalType": "uint256",
          "name": "",
          "type": "uint256"
        }
      ],
      "stateMutability": "nonpayable",
      "type": "function"
    },
    {
      "inputs": [],
      "name": "accrualBlockNumber",
      "outputs": [
        {
          "internalType": "uint256",
          "name": "",
          "type": "uint256"
        }
      ],
      "stateMutability": "view",
      "type": "function"
    },
    {
      "inputs": [],
      "name": "accrueInterest",
      "outputs": [
        {
          "internalType": "uint256",
          "name": "",
          "type": "uint256"
        }
      ],
      "stateMutability": "nonpayable",
      "type": "function"
    },
    {
      "inputs": [],
      "name": "admin",
      "outputs": [
        {
          "internalType": "address payable",
          "name": "",
          "type": "address"
        }
      ],
      "stateMutability": "view",
      "type": "function"
    },
    {
      "inputs": [
        {
          "internalType": "address",
          "name": "owner",
          "type": "address"
        },
        {
          "internalType": "address",
          "name": "spender",
          "type": "address"
        }
      ],
      "name": "allowance",
      "outputs": [
        {
          "internalType": "uint256",
          "name": "",
          "type": "uint256"
        }
      ],
      "stateMutability": "view",
      "type": "function"
    },
    {
      "inputs": [
        {
          "internalType": "address",
          "name": "spender",
          "type": "address"
        },
        {
          "internalType": "uint256",
          "name": "amount",
          "type": "uint256"
        }
      ],
      "name": "approve",
      "outputs": [
        {
          "internalType": "bool",
          "name": "",
          "type": "bool"
        }
      ],
      "stateMutability": "nonpayable",
      "type": "function"
    },
    {
      "inputs": [
        {
          "internalType": "address",
          "name": "owner",
          "type": "address"
        }
      ],
      "name": "balanceOf",
      "outputs": [
        {
          "internalType": "uint256",
          "name": "",
          "type": "uint256"
        }
      ],
      "stateMutability": "view",
      "type": "function"
    },
    {
      "inputs": [
        {
          "internalType": "address",
          "name": "owner",
          "type": "address"
        }
      ],
      "name": "balanceOfUnderlying",
      "outputs": [
        {
          "internalType": "uint256",
          "name": "",
          "type": "uint256"
        }
      ],
      "stateMutability": "nonpayable",
      "type": "function"
    },
    {
      "inputs": [
        {
          "internalType": "uint256",
          "name": "borrowAmount",
          "type": "uint256"
        }
      ],
      "name": "borrow",
      "outputs": [
        {
          "internalType": "uint256",
          "name": "",
          "type": "uint256"
        }
      ],
      "stateMutability": "nonpayable",
      "type": "function"
    },
    {
      "inputs": [
        {
          "internalType": "address",
          "name": "account",
          "type": "address"
        }
      ],
      "name": "borrowBalanceCurrent",
      "outputs": [
        {
          "internalType": "uint256",
          "name": "",
          "type": "uint256"
        }
      ],
      "stateMutability": "nonpayable",
      "type": "function"
    },
    {
      "inputs": [
        {
          "internalType": "address",
          "name": "account",
          "type": "address"
        }
      ],
      "name": "borrowBalanceStored",
      "outputs": [
        {
          "internalType": "uint256",
          "name": "",
          "type": "uint256"
        }
      ],
      "stateMutability": "view",
      "type": "function"
    },
    {
      "inputs": [],
      "name": "borrowIndex",
      "outputs": [
        {
          "internalType": "uint256",
          "name": "",
          "type": "uint256"
        }
      ],
      "stateMutability": "view",
      "type": "function"
    },
    {
      "inputs": [],
      "name": "borrowRatePerBlock",
      "outputs": [
        {
          "internalType": "uint256",
          "name": "",
          "type": "uint256"
        }
      ],
      "stateMutability": "view",
      "type": "function"
    },
    {
      "inputs": [],
      "name": "comptroller",
      "outputs": [
        {
          "internalType": "contract ComptrollerInterface",
          "name": "",
          "type": "address"
        }
      ],
      "stateMutability": "view",
      "type": "function"
    },
    {
      "inputs": [],
      "name": "decimals",
      "outputs": [
        {
          "internalType": "uint8",
          "name": "",
          "type": "uint8"
        }
      ],
      "stateMutability": "view",
      "type": "function"
    },
    {
      "inputs": [],
      "name": "exchangeRateCurrent",
      "outputs": [
        {
          "internalType": "uint256",
          "name": "",
          "type": "uint256"
        }
      ],
      "stateMutability": "nonpayable",
      "type": "function"
    },
    {
      "inputs": [],
      "name": "exchangeRateStored",
      "outputs": [
        {
          "internalType": "uint256",
          "name": "",
          "type": "uint256"
        }
      ],
      "stateMutability": "view",
      "type": "function"
    },
    {
      "inputs": [
        {
          "internalType": "address",
          "name": "account",
          "type": "address"
        }
      ],
      "name": "getAccountSnapshot",
      "outputs": [
        {
          "internalType": "uint256",
          "name": "",
          "type": "uint256"
        },
        {
          "internalType": "uint256",
          "name": "",
          "type": "uint256"
        },
        {
          "internalType": "uint256",
          "name": "",
          "type": "uint256"
        },
        {
          "internalType": "uint256",
          "name": "",
          "type": "uint256"
        }
      ],
      "stateMutability": "view",
      "type": "function"
    },
    {
      "inputs": [],
      "name": "getCash",
      "outputs": [
        {
          "internalType": "uint256",
          "name": "",
          "type": "uint256"
        }
      ],
      "stateMutability": "view",
      "type": "function"
    },
    {
      "inputs": [
        {
          "internalType": "address",
          "name": "underlying_",
          "type": "address"
        },
        {
          "internalType": "contract ComptrollerInterface",
          "name": "comptroller_",
          "type": "address"
        },
        {
          "internalType": "contract InterestRateModel",
          "name": "interestRateModel_",
          "type": "address"
        },
        {
          "internalType": "uint256",
          "name": "initialExchangeRateMantissa_",
          "type": "uint256"
        },
        {
          "internalType": "string",
          "name": "name_",
          "type": "string"
        },
        {
          "internalType": "string",
          "name": "symbol_",
          "type": "string"
        },
        {
          "internalType": "uint8",
          "name": "decimals_",
          "type": "uint8"
        }
      ],
      "name": "initialize",
      "outputs": [],
      "stateMutability": "nonpayable",
      "type": "function"
    },
    {
      "inputs": [
        {
          "internalType": "contract ComptrollerInterface",
          "name": "comptroller_",
          "type": "address"
        },
        {
          "internalType": "contract InterestRateModel",
          "name": "interestRateModel_",
          "type": "address"
        },
        {
          "internalType": "uint256",
          "name": "initialExchangeRateMantissa_",
          "type": "uint256"
        },
        {
          "internalType": "string",
          "name": "name_",
          "type": "string"
        },
        {
          "internalType": "string",
          "name": "symbol_",
          "type": "string"
        },
        {
          "internalType": "uint8",
          "name": "decimals_",
          "type": "uint8"
        }
      ],
      "name": "initialize",
      "outputs": [],
      "stateMutability": "nonpayable",
      "type": "function"
    },
    {
      "inputs": [],
      "name": "interestRateModel",
      "outputs": [
        {
          "internalType": "contract InterestRateModel",
          "name": "",
          "type": "address"
        }
      ],
      "stateMutability": "view",
      "type": "function"
    },
    {
      "inputs": [],
      "name": "isCToken",
      "outputs": [
        {
          "internalType": "bool",
          "name": "",
          "type": "bool"
        }
      ],
      "stateMutability": "view",
      "type": "function"
    },
    {
      "inputs": [
        {
          "internalType": "address",
          "name": "borrower",
          "type": "address"
        },
        {
          "internalType": "uint256",
          "name": "repayAmount",
          "type": "uint256"
        },
        {
          "internalType": "contract CTokenInterface",
          "name": "cTokenCollateral",
          "type": "address"
        }
      ],
      "name": "liquidateBorrow",
      "outputs": [
        {
          "internalType": "uint256",
          "name": "",
          "type": "uint256"
        }
      ],
      "stateMutability": "nonpayable",
      "type": "function"
    },
    {
      "inputs": [
        {
          "internalType": "uint256",
          "name": "mintAmount",
          "type": "uint256"
        }
      ],
      "name": "mint",
      "outputs": [
        {
          "internalType": "uint256",
          "name": "",
          "type": "uint256"
        }
      ],
      "stateMutability": "nonpayable",
      "type": "function"
    },
    {
      "inputs": [],
      "name": "name",
      "outputs": [
        {
          "internalType": "string",
          "name": "",
          "type": "string"
        }
      ],
      "stateMutability": "view",
      "type": "function"
    },
    {
      "inputs": [],
      "name": "pendingAdmin",
      "outputs": [
        {
          "internalType": "address payable",
          "name": "",
          "type": "address"
        }
      ],
      "stateMutability": "view",
      "type": "function"
    },
    {
      "inputs": [],
      "name": "protocolSeizeShareMantissa",
      "outputs": [
        {
          "internalType": "uint256",
          "name": "",
          "type": "uint256"
        }
      ],
      "stateMutability": "view",
      "type": "function"
    },
    {
      "inputs": [
        {
          "internalType": "uint256",
          "name": "redeemTokens",
          "type": "uint256"
        }
      ],
      "name": "redeem",
      "outputs": [
        {
          "internalType": "uint256",
          "name": "",
          "type": "uint256"
        }
      ],
      "stateMutability": "nonpayable",
      "type": "function"
    },
    {
      "inputs": [
        {
          "internalType": "uint256",
          "name": "redeemAmount",
          "type": "uint256"
        }
      ],
      "name": "redeemUnderlying",
      "outputs": [
        {
          "internalType": "uint256",
          "name": "",
          "type": "uint256"
        }
      ],
      "stateMutability": "nonpayable",
      "type": "function"
    },
    {
      "inputs": [
        {
          "internalType": "uint256",
          "name": "repayAmount",
          "type": "uint256"
        }
      ],
      "name": "repayBorrow",
      "outputs": [
        {
          "internalType": "uint256",
          "name": "",
          "type": "uint256"
        }
      ],
      "stateMutability": "nonpayable",
      "type": "function"
    },
    {
      "inputs": [
        {
          "internalType": "address",
          "name": "borrower",
          "type": "address"
        },
        {
          "internalType": "uint256",
          "name": "repayAmount",
          "type": "uint256"
        }
      ],
      "name": "repayBorrowBehalf",
      "outputs": [
        {
          "internalType": "uint256",
          "name": "",
          "type": "uint256"
        }
      ],
      "stateMutability": "nonpayable",
      "type": "function"
    },
    {
      "inputs": [],
      "name": "reserveFactorMantissa",
      "outputs": [
        {
          "internalType": "uint256",
          "name": "",
          "type": "uint256"
        }
      ],
      "stateMutability": "view",
      "type": "function"
    },
    {
      "inputs": [
        {
          "internalType": "address",
          "name": "liquidator",
          "type": "address"
        },
        {
          "internalType": "address",
          "name": "borrower",
          "type": "address"
        },
        {
          "internalType": "uint256",
          "name": "seizeTokens",
          "type": "uint256"
        }
      ],
      "name": "seize",
      "outputs": [
        {
          "internalType": "uint256",
          "name": "",
          "type": "uint256"
        }
      ],
      "stateMutability": "nonpayable",
      "type": "function"
    },
    {
      "inputs": [],
      "name": "supplyRatePerBlock",
      "outputs": [
        {
          "internalType": "uint256",
          "name": "",
          "type": "uint256"
        }
      ],
      "stateMutability": "view",
      "type": "function"
    },
    {
      "inputs": [
        {
          "internalType": "contract EIP20NonStandardInterface",
          "name": "token",
          "type": "address"
        }
      ],
      "name": "sweepToken",
      "outputs": [],
      "stateMutability": "nonpayable",
      "type": "function"
    },
    {
      "inputs": [],
      "name": "symbol",
      "outputs": [
        {
          "internalType": "string",
          "name": "",
          "type": "string"
        }
      ],
      "stateMutability": "view",
      "type": "function"
    },
    {
      "inputs": [],
      "name": "totalBorrows",
      "outputs": [
        {
          "internalType": "uint256",
          "name": "",
          "type": "uint256"
        }
      ],
      "stateMutability": "view",
      "type": "function"
    },
    {
      "inputs": [],
      "name": "totalBorrowsCurrent",
      "outputs": [
        {
          "internalType": "uint256",
          "name": "",
          "type": "uint256"
        }
      ],
      "stateMutability": "nonpayable",
      "type": "function"
    },
    {
      "inputs": [],
      "name": "totalReserves",
      "outputs": [
        {
          "internalType": "uint256",
          "name": "",
          "type": "uint256"
        }
      ],
      "stateMutability": "view",
      "type": "function"
    },
    {
      "inputs": [],
      "name": "totalSupply",
      "outputs": [
        {
          "internalType": "uint256",
          "name": "",
          "type": "uint256"
        }
      ],
      "stateMutability": "view",
      "type": "function"
    },
    {
      "inputs": [
        {
          "internalType": "address",
          "name": "dst",
          "type": "address"
        },
        {
          "internalType": "uint256",
          "name": "amount",
          "type": "uint256"
        }
      ],
      "name": "transfer",
      "outputs": [
        {
          "internalType": "bool",
          "name": "",
          "type": "bool"
        }
      ],
      "stateMutability": "nonpayable",
      "type": "function"
    },
    {
      "inputs": [
        {
          "internalType": "address",
          "name": "src",
          "type": "address"
        },
        {
          "internalType": "address",
          "name": "dst",
          "type": "address"
        },
        {
          "internalType": "uint256",
          "name": "amount",
          "type": "uint256"
        }
      ],
      "name": "transferFrom",
      "outputs": [
        {
          "internalType": "bool",
          "name": "",
          "type": "bool"
        }
      ],
      "stateMutability": "nonpayable",
      "type": "function"
    },
    {
      "inputs": [],
      "name": "underlying",
      "outputs": [
        {
          "internalType": "address",
          "name": "",
          "type": "address"
        }
      ],
      "stateMutability": "view",
      "type": "function"
    }
  ],
  "bytecode": {
    "object": "0x608060405234801561001057600080fd5b50613a0a806100206000396000f3fe608060405234801561001057600080fd5b506004361061030c5760003560e01c80637f1e06be1161019d578063bd6d894d116100e9578063f2b3abbd116100a2578063f851a4401161007c578063f851a440146106a8578063f8f9da28146106c0578063fca7820b146106c8578063fe9c44ae146106db57600080fd5b8063f2b3abbd1461066f578063f3fdb15a14610682578063f5e3c4621461069557600080fd5b8063bd6d894d146105cd578063c37f68e2146105d5578063c5ebeaec14610608578063db006a751461061b578063dd62ed3e1461062e578063e9c714f21461066757600080fd5b8063a0712d6811610156578063aa5af0fd11610130578063aa5af0fd14610596578063ae9d70b01461059f578063b2a02ff1146105a7578063b71d1a0c146105ba57600080fd5b8063a0712d6814610568578063a6afed951461057b578063a9059cbb1461058357600080fd5b80637f1e06be1461050b578063852a12e31461051e5780638f840ddd1461053157806395d89b411461053a57806395dd91931461054257806399d8c1b41461055557600080fd5b80633af9e6691161025c578063601a0bf1116102155780636c540baf116101ef5780636c540baf146104be5780636f307dc3146104c757806370a08231146104da57806373acee981461050357600080fd5b8063601a0bf1146104955780636752e702146104a857806369ab3250146104b657600080fd5b80633af9e669146104385780633b1d21a21461044b5780633e941010146104535780634576b5db1461046657806347bd3718146104795780635fe3b5671461048257600080fd5b8063182df0f5116102c957806323b872dd116102a357806323b872dd146103c85780632608f818146103db57806326782247146103ee578063313ce5671461041957600080fd5b8063182df0f5146103985780631a31d465146103a05780631be19560146103b557600080fd5b806306fdde0314610311578063095ea7b31461032f5780630e75270214610352578063173b99041461037357806317bfdfbc1461037c57806318160ddd1461038f575b600080fd5b6103196106e3565b604051610326919061339d565b60405180910390f35b61034261033d366004613403565b610771565b6040519015158152602001610326565b61036561036036600461342f565b6107e1565b604051908152602001610326565b61036560085481565b61036561038a366004613448565b6107f4565b610365600d5481565b610365610850565b6103b36103ae36600461351e565b61085f565b005b6103b36103c3366004613448565b6108f4565b6103426103d63660046135d4565b610ac0565b6103656103e9366004613403565b610b10565b600454610401906001600160a01b031681565b6040516001600160a01b039091168152602001610326565b6003546104269060ff1681565b60405160ff9091168152602001610326565b610365610446366004613448565b610b25565b610365610b6b565b61036561046136600461342f565b610b75565b610365610474366004613448565b610b80565b610365600b5481565b600554610401906001600160a01b031681565b6103656104a336600461342f565b610cd2565b610365666379da05b6000081565b610365600081565b61036560095481565b601154610401906001600160a01b031681565b6103656104e8366004613448565b6001600160a01b03166000908152600e602052604090205490565b610365610d11565b6103b3610519366004613448565b610d5b565b61036561052c36600461342f565b610e32565b610365600c5481565b610319610e3d565b610365610550366004613448565b610e4a565b6103b3610563366004613615565b610e55565b61036561057636600461342f565b6110a2565b6103656110ad565b610342610591366004613403565b61129a565b610365600a5481565b6103656112e9565b6103656105b53660046135d4565b611381565b6103656105c8366004613448565b6113d0565b61036561145d565b6105e86105e3366004613448565b6114ad565b604080519485526020850193909352918301526060820152608001610326565b61036561061636600461342f565b6114ee565b61036561062936600461342f565b6114f9565b61036561063c3660046136b7565b6001600160a01b039182166000908152600f6020908152604080832093909416825291909152205490565b610365611504565b61036561067d366004613448565b61160b565b600654610401906001600160a01b031681565b6103656106a33660046136f0565b61161f565b6003546104019061010090046001600160a01b031681565b610365611636565b6103656106d636600461342f565b611689565b610342600181565b600180546106f090613732565b80601f016020809104026020016040519081016040528092919081815260200182805461071c90613732565b80156107695780601f1061073e57610100808354040283529160200191610769565b820191906000526020600020905b81548152906001019060200180831161074c57829003601f168201915b505050505081565b336000818152600f602090815260408083206001600160a01b03871680855292528083208590555191929182907f8c5be1e5ebec7d5bd14f71427d1e84f3dd0314c0f7b2291e5b200ac8c7c3b925906107cd9087815260200190565b60405180910390a360019150505b92915050565b60006107ec826116c8565b506000919050565b6000805460ff166108205760405162461bcd60e51b81526004016108179061376c565b60405180910390fd5b6000805460ff191690556108326110ad565b5061083c82610e4a565b90506000805460ff19166001179055919050565b600061085a611719565b905090565b61086d868686868686610e55565b601180546001600160a01b0319166001600160a01b038916908117909155604080516318160ddd60e01b815290516318160ddd916004808201926020929091908290030181865afa1580156108c6573d6000803e3d6000fd5b505050506040513d601f19601f820116820180604052508101906108ea9190613790565b5050505050505050565b60035461010090046001600160a01b0316331461096b5760405162461bcd60e51b815260206004820152602f60248201527f4345726332303a3a7377656570546f6b656e3a206f6e6c792061646d696e206360448201526e616e20737765657020746f6b656e7360881b6064820152608401610817565b6011546001600160a01b03908116908216036109e45760405162461bcd60e51b815260206004820152603260248201527f4345726332303a3a7377656570546f6b656e3a2063616e206e6f74207377656560448201527138103ab73232b9363cb4b733903a37b5b2b760711b6064820152608401610817565b6040516370a0823160e01b81523060048201526000906001600160a01b038316906370a0823190602401602060405180830381865afa158015610a2b573d6000803e3d6000fd5b505050506040513d601f19601f82011682018060405250810190610a4f9190613790565b60035460405163a9059cbb60e01b81526001600160a01b03610100909204821660048201526024810183905291925083169063a9059cbb90604401600060405180830381600087803b158015610aa457600080fd5b505af1158015610ab8573d6000803e3d6000fd5b505050505050565b6000805460ff16610ae35760405162461bcd60e51b81526004016108179061376c565b6000805460ff19168155610af933868686611781565b1490506000805460ff191660011790559392505050565b6000610b1c83836119ad565b50600092915050565b6000806040518060200160405280610b3b61145d565b90526001600160a01b0384166000908152600e6020526040902054909150610b649082906119ff565b9392505050565b600061085a611a1f565b60006107db82611a94565b60035460009061010090046001600160a01b03163314610bb35760405163d219dc1f60e01b815260040160405180910390fd5b60055460408051623f1ee960e11b815290516001600160a01b0392831692851691627e3dd29160048083019260209291908290030181865afa158015610bfd573d6000803e3d6000fd5b505050506040513d601f19601f82011682018060405250810190610c2191906137a9565b610c6d5760405162461bcd60e51b815260206004820152601c60248201527f6d61726b6572206d6574686f642072657475726e65642066616c7365000000006044820152606401610817565b600580546001600160a01b0319166001600160a01b0385811691821790925560408051928416835260208301919091527f7ac369dbd14fa5ea3f473ed67cc9d598964a77501540ba6751eb0b3decf5870d91015b60405180910390a150600092915050565b6000805460ff16610cf55760405162461bcd60e51b81526004016108179061376c565b6000805460ff19169055610d076110ad565b5061083c82611aeb565b6000805460ff16610d345760405162461bcd60e51b81526004016108179061376c565b6000805460ff19169055610d466110ad565b5050600b546000805460ff1916600117905590565b60035461010090046001600160a01b03163314610dd05760405162461bcd60e51b815260206004820152602d60248201527f6f6e6c79207468652061646d696e206d6179207365742074686520636f6d702d60448201526c6c696b652064656c656761746560981b6064820152608401610817565b6011546040516317066a5760e21b81526001600160a01b03838116600483015290911690635c19a95c90602401600060405180830381600087803b158015610e1757600080fd5b505af1158015610e2b573d6000803e3d6000fd5b5050505050565b60006107ec82611c06565b600280546106f090613732565b60006107db82611c57565b60035461010090046001600160a01b03163314610ec05760405162461bcd60e51b8152602060048201526024808201527f6f6e6c792061646d696e206d617920696e697469616c697a6520746865206d616044820152631c9ad95d60e21b6064820152608401610817565b600954158015610ed05750600a54155b610f285760405162461bcd60e51b815260206004820152602360248201527f6d61726b6574206d6179206f6e6c7920626520696e697469616c697a6564206f6044820152626e636560e81b6064820152608401610817565b600784905583610f935760405162461bcd60e51b815260206004820152603060248201527f696e697469616c2065786368616e67652072617465206d75737420626520677260448201526f32b0ba32b9103a3430b7103d32b9379760811b6064820152608401610817565b6000610f9e87610b80565b90508015610fee5760405162461bcd60e51b815260206004820152601a60248201527f73657474696e6720636f6d7074726f6c6c6572206661696c65640000000000006044820152606401610817565b43600955670de0b6b3a7640000600a5561100786611ca3565b905080156110625760405162461bcd60e51b815260206004820152602260248201527f73657474696e6720696e7465726573742072617465206d6f64656c206661696c604482015261195960f21b6064820152608401610817565b600161106e8582613816565b50600261107b8482613816565b50506003805460ff90921660ff199283161790556000805490911660011790555050505050565b60006107ec82611e18565b60095460009043908181036110c55760009250505090565b60006110cf611a1f565b600b54600c54600a546006546040516315f2405360e01b81526004810186905260248101859052604481018490529495509293919290916000916001600160a01b0316906315f2405390606401602060405180830381865afa158015611139573d6000803e3d6000fd5b505050506040513d601f19601f8201168201806040525081019061115d9190613790565b905065048c273950008111156111b55760405162461bcd60e51b815260206004820152601c60248201527f626f72726f772072617465206973206162737572646c792068696768000000006044820152606401610817565b60006111c187896138ec565b905060006111dd60405180602001604052808581525083611e57565b905060006111eb82886119ff565b905060006111f988836138ff565b905060006112186040518060200160405280600854815250848a611e88565b9050600061122785898a611e88565b60098e9055600a819055600b849055600c839055604080518d815260208101879052908101829052606081018590529091507f4dec04e750ca11537cabcd8a9eab06494de08da3735bc8871cd41250e190bc049060800160405180910390a160009d505050505050505050505050505090565b6000805460ff166112bd5760405162461bcd60e51b81526004016108179061376c565b6000805460ff191681556112d333808686611781565b1490506000805460ff1916600117905592915050565b6006546000906001600160a01b031663b8168816611305611a1f565b600b54600c546008546040516001600160e01b031960e087901b16815260048101949094526024840192909252604483015260648201526084015b602060405180830381865afa15801561135d573d6000803e3d6000fd5b505050506040513d601f19601f8201168201806040525081019061085a9190613790565b6000805460ff166113a45760405162461bcd60e51b81526004016108179061376c565b6000805460ff191690556113ba33858585611ea9565b50600080805460ff191660011790559392505050565b60035460009061010090046001600160a01b0316331461140357604051635cb56c2b60e01b815260040160405180910390fd5b600480546001600160a01b038481166001600160a01b031983168117909355604080519190921680825260208201939093527fca4f2f25d0898edd99413412fb94012f9e54ec8142f9b093e7720646a95b16a99101610cc1565b6000805460ff166114805760405162461bcd60e51b81526004016108179061376c565b6000805460ff191690556114926110ad565b5061149b610850565b90506000805460ff1916600117905590565b6001600160a01b0381166000908152600e602052604081205481908190819081906114d787611c57565b6114df611719565b93509350935093509193509193565b60006107ec82612121565b60006107ec82612160565b6004546000906001600160a01b03163314158061151f575033155b1561153d57604051631ba24f2960e21b815260040160405180910390fd5b60038054600480546001600160a01b03808216610100818102610100600160a81b0319871617968790556001600160a01b031990931690935560408051948390048216808652929095041660208401529290917ff9ffabca9c8276e99321725bcb43fb076a6c66a54b7f21c4e8146d8519b417dc910160405180910390a1600454604080516001600160a01b03808516825290921660208301527fca4f2f25d0898edd99413412fb94012f9e54ec8142f9b093e7720646a95b16a9910160405180910390a160009250505090565b60006116156110ad565b506107db82611ca3565b600061162c8484846121a1565b5060009392505050565b6006546000906001600160a01b03166315f24053611652611a1f565b600b54600c546040516001600160e01b031960e086901b168152600481019390935260248301919091526044820152606401611340565b6000805460ff166116ac5760405162461bcd60e51b81526004016108179061376c565b6000805460ff191690556116be6110ad565b5061083c8261227f565b60005460ff166116ea5760405162461bcd60e51b81526004016108179061376c565b6000805460ff191690556116fc6110ad565b5061170833338361233b565b50506000805460ff19166001179055565b600d5460009080820361172e57505060075490565b6000611738611a1f565b90506000600c54600b548361174d91906138ff565b61175791906138ec565b905060008361176e670de0b6b3a764000084613912565b6117789190613929565b95945050505050565b6005546040516317b9b84b60e31b81523060048201526001600160a01b038581166024830152848116604483015260648201849052600092839291169063bdcdc258906084016020604051808303816000875af11580156117e6573d6000803e3d6000fd5b505050506040513d601f19601f8201168201806040525081019061180a9190613790565b9050801561182e5760405163089d427760e11b815260048101829052602401610817565b836001600160a01b0316856001600160a01b03160361186057604051638cd22d1960e01b815260040160405180910390fd5b6000856001600160a01b0316876001600160a01b03160361188457506000196118ac565b506001600160a01b038086166000908152600f60209081526040808320938a16835292905220545b60006118b885836138ec565b6001600160a01b0388166000908152600e6020526040812054919250906118e09087906138ec565b6001600160a01b0388166000908152600e6020526040812054919250906119089088906138ff565b6001600160a01b03808b166000908152600e6020526040808220869055918b1681522081905590506000198414611962576001600160a01b03808a166000908152600f60209081526040808320938e168352929052208390555b876001600160a01b0316896001600160a01b03166000805160206139b58339815191528960405161199591815260200190565b60405180910390a35060009998505050505050505050565b60005460ff166119cf5760405162461bcd60e51b81526004016108179061376c565b6000805460ff191690556119e16110ad565b506119ed33838361233b565b50506000805460ff1916600117905550565b600080611a0c8484611e57565b9050611a17816124e4565b949350505050565b6011546040516370a0823160e01b81523060048201526000916001600160a01b03169081906370a0823190602401602060405180830381865afa158015611a6a573d6000803e3d6000fd5b505050506040513d601f19601f82011682018060405250810190611a8e9190613790565b91505090565b6000805460ff16611ab75760405162461bcd60e51b81526004016108179061376c565b6000805460ff19169055611ac96110ad565b50611ad3826124fc565b5050600090506000805460ff19166001179055919050565b600354600090819061010090046001600160a01b03163314611b2057604051630f7e5e6d60e41b815260040160405180910390fd5b4360095414611b4257604051630dff50cb60e41b815260040160405180910390fd5b82611b4b611a1f565b1015611b6a57604051633345e99960e01b815260040160405180910390fd5b600c54831115611b8d576040516378d2980560e11b815260040160405180910390fd5b82600c54611b9b91906138ec565b600c819055600354909150611bbe9061010090046001600160a01b031684612590565b7f3bad0c59cf2f06e7314077049f48a93578cd16f5ef92329f1dab1420a99c177e600360019054906101000a90046001600160a01b03168483604051610cc19392919061394b565b60005460ff16611c285760405162461bcd60e51b81526004016108179061376c565b6000805460ff19169055611c3a6110ad565b50611c473360008361267a565b506000805460ff19166001179055565b6001600160a01b038116600090815260106020526040812080548203611c805750600092915050565b600a548154600091611c9191613912565b9050816001015481611a179190613929565b600354600090819061010090046001600160a01b03163314611cd85760405163407fded560e01b815260040160405180910390fd5b4360095414611cfa57604051630be2a5cb60e11b815260040160405180910390fd5b600660009054906101000a90046001600160a01b03169050826001600160a01b0316632191f92a6040518163ffffffff1660e01b8152600401602060405180830381865afa158015611d50573d6000803e3d6000fd5b505050506040513d601f19601f82011682018060405250810190611d7491906137a9565b611dc05760405162461bcd60e51b815260206004820152601c60248201527f6d61726b6572206d6574686f642072657475726e65642066616c7365000000006044820152606401610817565b600680546001600160a01b0319166001600160a01b0385811691821790925560408051928416835260208301919091527fedffc32e068c7c95dfd4bdfd5c4d939a084d6b11c4199eac8436ed234d72f9269101610cc1565b60005460ff16611e3a5760405162461bcd60e51b81526004016108179061376c565b6000805460ff19169055611e4c6110ad565b50611c473382612957565b6040805160208101909152600081526040518060200160405280611e7f856000015185612b0d565b90529392505050565b600080611e958585611e57565b9050611778611ea3826124e4565b84612b19565b60055460405163d02f735160e01b81523060048201526001600160a01b0386811660248301528581166044830152848116606483015260848201849052600092169063d02f73519060a4016020604051808303816000875af1158015611f13573d6000803e3d6000fd5b505050506040513d601f19601f82011682018060405250810190611f379190613790565b90508015611f5b576040516363e00e3360e11b815260048101829052602401610817565b836001600160a01b0316836001600160a01b031603611f8d57604051633a94626760e11b815260040160405180910390fd5b6000611fae836040518060200160405280666379da05b60000815250612b25565b90506000611fbc82856138ec565b905060006040518060200160405280611fd3611719565b905290506000611fe382856119ff565b9050600081600c54611ff591906138ff565b600c819055600d5490915061200b9086906138ec565b600d556001600160a01b0388166000908152600e60205260409020546120329088906138ec565b6001600160a01b03808a166000908152600e602052604080822093909355908b16815220546120629085906138ff565b6001600160a01b03808b166000818152600e602052604090819020939093559151908a16906000805160206139b5833981519152906120a49088815260200190565b60405180910390a360405185815230906001600160a01b038a16906000805160206139b58339815191529060200160405180910390a37fa91e67c5ea634cd43a12c5a482724b03de01e85ca68702a53d0c2f45cb7c1dc530838360405161210d9392919061394b565b60405180910390a150505050505050505050565b60005460ff166121435760405162461bcd60e51b81526004016108179061376c565b6000805460ff191690556121556110ad565b50611c473382612b48565b60005460ff166121825760405162461bcd60e51b81526004016108179061376c565b6000805460ff191690556121946110ad565b50611c473382600061267a565b60005460ff166121c35760405162461bcd60e51b81526004016108179061376c565b6000805460ff191690556121d56110ad565b506000816001600160a01b031663a6afed956040518163ffffffff1660e01b81526004016020604051808303816000875af1158015612218573d6000803e3d6000fd5b505050506040513d601f19601f8201168201806040525081019061223c9190613790565b9050801561226057604051633eea49b760e11b815260048101829052602401610817565b61226c33858585612ce7565b50506000805460ff191660011790555050565b60035460009061010090046001600160a01b031633146122b257604051631205b57b60e11b815260040160405180910390fd5b43600954146122d457604051637dfca6b760e11b815260040160405180910390fd5b670de0b6b3a76400008211156122fd5760405163717220f360e11b815260040160405180910390fd5b600880549083905560408051828152602081018590527faaa68312e2ea9d50e16af5068410ab56e1a1fd06037b1a35664812c30f8214609101610cc1565b600554604051631200453160e11b81523060048201526001600160a01b03858116602483015284811660448301526064820184905260009283929116906324008a62906084016020604051808303816000875af11580156123a0573d6000803e3d6000fd5b505050506040513d601f19601f820116820180604052508101906123c49190613790565b905080156123e857604051638c81362d60e01b815260048101829052602401610817565b436009541461240a5760405163c9021e2f60e01b815260040160405180910390fd5b600061241585611c57565b905060006000198514612428578461242a565b815b9050600061243888836131a1565b9050600061244682856138ec565b9050600082600b5461245891906138ec565b6001600160a01b038a8116600081815260106020908152604091829020878155600a54600190910155600b8590558151938f168452830191909152810185905260608101849052608081018290529091507f1a2a22cb034d26d1854bdc6666a5b91fe25efbbb5dcad3b0355478d6f5c362a19060a00160405180910390a1509098975050505050505050565b80516000906107db90670de0b6b3a764000090613929565b60008080804360095414612526576040516338acf79960e01b815260048101829052602401610817565b61253033866131a1565b905080600c5461254091906138ff565b915081600c819055507fa91e67c5ea634cd43a12c5a482724b03de01e85ca68702a53d0c2f45cb7c1dc533828460405161257c9392919061394b565b60405180910390a160009590945092505050565b60115460405163a9059cbb60e01b81526001600160a01b0384811660048301526024820184905290911690819063a9059cbb90604401600060405180830381600087803b1580156125e057600080fd5b505af11580156125f4573d6000803e3d6000fd5b5050505060003d60008114612610576020811461261a57600080fd5b6000199150612626565b60206000803e60005191505b50806126745760405162461bcd60e51b815260206004820152601960248201527f544f4b454e5f5452414e534645525f4f55545f4641494c4544000000000000006044820152606401610817565b50505050565b811580612685575080155b6126ee5760405162461bcd60e51b815260206004820152603460248201527f6f6e65206f662072656465656d546f6b656e73496e206f722072656465656d416044820152736d6f756e74496e206d757374206265207a65726f60601b6064820152608401610817565b60006040518060200160405280612703611719565b9052905060008084156127245784915061271d83866119ff565b9050612734565b61272e8484613378565b91508390505b60055460405163eabe7d9160e01b81526000916001600160a01b03169063eabe7d91906127699030908b90889060040161396c565b6020604051808303816000875af1158015612788573d6000803e3d6000fd5b505050506040513d601f19601f820116820180604052508101906127ac9190613790565b905080156127d05760405163480f424760e01b815260048101829052602401610817565b43600954146127f2576040516397b5cfcd60e01b815260040160405180910390fd5b816127fb611a1f565b101561281a576040516391240a1b60e01b815260040160405180910390fd5b82600d5461282891906138ec565b600d556001600160a01b0387166000908152600e602052604090205461284f9084906138ec565b6001600160a01b0388166000908152600e60205260409020556128728783612590565b60405183815230906001600160a01b038916906000805160206139b58339815191529060200160405180910390a37fe5b754fb1abb7f01b499791d0b820ae3b6af3424ac1c59768edb53f4ec31a9298783856040516128d39392919061394b565b60405180910390a16005546040516351dff98960e01b81523060048201526001600160a01b0389811660248301526044820185905260648201869052909116906351dff98990608401600060405180830381600087803b15801561293657600080fd5b505af115801561294a573d6000803e3d6000fd5b5050505050505050505050565b600554604051634ef4c3e160e01b81526000916001600160a01b031690634ef4c3e19061298c9030908790879060040161396c565b6020604051808303816000875af11580156129ab573d6000803e3d6000fd5b505050506040513d601f19601f820116820180604052508101906129cf9190613790565b905080156129f3576040516349abd4fd60e01b815260048101829052602401610817565b4360095414612a15576040516338d8859760e01b815260040160405180910390fd5b60006040518060200160405280612a2a611719565b905290506000612a3a85856131a1565b90506000612a488284613378565b905080600d54612a5891906138ff565b600d556001600160a01b0386166000908152600e6020526040902054612a7f9082906138ff565b6001600160a01b0387166000908152600e60205260409081902091909155517f4c209b5fc8ad50758f13e2e1088ba56a560dff690a1c6fef26394f4c03821c4f90612acf9088908590859061394b565b60405180910390a16040518181526001600160a01b0387169030906000805160206139b58339815191529060200160405180910390a3505050505050565b6000610b648284613912565b6000610b6482846138ff565b6000670de0b6b3a7640000612b3e848460000151612b0d565b610b649190613929565b60055460405163368f515360e21b81526000916001600160a01b03169063da3d454c90612b7d9030908790879060040161396c565b6020604051808303816000875af1158015612b9c573d6000803e3d6000fd5b505050506040513d601f19601f82011682018060405250810190612bc09190613790565b90508015612be45760405163918db40f60e01b815260048101829052602401610817565b4360095414612c0657604051630e8d8c6160e21b815260040160405180910390fd5b81612c0f611a1f565b1015612c2e576040516348c2588160e01b815260040160405180910390fd5b6000612c3984611c57565b90506000612c4784836138ff565b9050600084600b54612c5991906138ff565b6001600160a01b0387166000908152601060205260409020838155600a54600190910155600b8190559050612c8e8686612590565b604080516001600160a01b038816815260208101879052908101839052606081018290527f13ed6866d4e1ee6da46f845c46d7e54120883d75c5ea9a2dacc1c4ca8984ab809060800160405180910390a1505050505050565b600554604051632fe3f38f60e11b81523060048201526001600160a01b03838116602483015286811660448301528581166064830152608482018590526000921690635fc7e71e9060a4016020604051808303816000875af1158015612d51573d6000803e3d6000fd5b505050506040513d601f19601f82011682018060405250810190612d759190613790565b90508015612d9957604051630a14d17960e11b815260048101829052602401610817565b4360095414612dbb576040516380965b1b60e01b815260040160405180910390fd5b43826001600160a01b0316636c540baf6040518163ffffffff1660e01b8152600401602060405180830381865afa158015612dfa573d6000803e3d6000fd5b505050506040513d601f19601f82011682018060405250810190612e1e9190613790565b14612e3c57604051631046f38d60e31b815260040160405180910390fd5b846001600160a01b0316846001600160a01b031603612e6e57604051631bd1a62160e21b815260040160405180910390fd5b82600003612e8f5760405163d29da7ef60e01b815260040160405180910390fd5b6000198303612eb157604051635982c5bb60e11b815260040160405180910390fd5b6000612ebe86868661233b565b60055460405163c488847b60e01b815291925060009182916001600160a01b03169063c488847b90612ef89030908990889060040161396c565b6040805180830381865afa158015612f14573d6000803e3d6000fd5b505050506040513d601f19601f82011682018060405250810190612f389190613990565b9150915060008214612fa85760405162461bcd60e51b815260206004820152603360248201527f4c49515549444154455f434f4d5054524f4c4c45525f43414c43554c4154455f604482015272105353d5539517d4d152569157d19052531151606a1b6064820152608401610817565b6040516370a0823160e01b81526001600160a01b0388811660048301528291908716906370a0823190602401602060405180830381865afa158015612ff1573d6000803e3d6000fd5b505050506040513d601f19601f820116820180604052508101906130159190613790565b10156130635760405162461bcd60e51b815260206004820152601860248201527f4c49515549444154455f5345495a455f544f4f5f4d55434800000000000000006044820152606401610817565b306001600160a01b038616036130845761307f30898984611ea9565b61313e565b60405163b2a02ff160e01b81526000906001600160a01b0387169063b2a02ff1906130b7908c908c90879060040161396c565b6020604051808303816000875af11580156130d6573d6000803e3d6000fd5b505050506040513d601f19601f820116820180604052508101906130fa9190613790565b1461313e5760405162461bcd60e51b81526020600482015260146024820152731d1bdad95b881cd95a5e9d5c994819985a5b195960621b6044820152606401610817565b604080516001600160a01b038a811682528981166020830152818301869052871660608201526080810183905290517f298637f684da70674f26509b10f07ec2fbc77a335ab1e7d6215a4b2484d8bb529181900360a00190a15050505050505050565b6011546040516370a0823160e01b81523060048201526000916001600160a01b0316908190839082906370a0823190602401602060405180830381865afa1580156131f0573d6000803e3d6000fd5b505050506040513d601f19601f820116820180604052508101906132149190613790565b6040516323b872dd60e01b81529091506001600160a01b038316906323b872dd9061324790899030908a9060040161396c565b600060405180830381600087803b15801561326157600080fd5b505af1158015613275573d6000803e3d6000fd5b5050505060003d60008114613291576020811461329b57600080fd5b60001991506132a7565b60206000803e60005191505b50806132f55760405162461bcd60e51b815260206004820152601860248201527f544f4b454e5f5452414e534645525f494e5f4641494c454400000000000000006044820152606401610817565b6040516370a0823160e01b81523060048201526000906001600160a01b038616906370a0823190602401602060405180830381865afa15801561333c573d6000803e3d6000fd5b505050506040513d601f19601f820116820180604052508101906133609190613790565b905061336c83826138ec565b98975050505050505050565b6000610b6461338f84670de0b6b3a7640000612b0d565b83516000610b648284613929565b600060208083528351808285015260005b818110156133ca578581018301518582016040015282016133ae565b506000604082860101526040601f19601f8301168501019250505092915050565b6001600160a01b038116811461340057600080fd5b50565b6000806040838503121561341657600080fd5b8235613421816133eb565b946020939093013593505050565b60006020828403121561344157600080fd5b5035919050565b60006020828403121561345a57600080fd5b8135610b64816133eb565b634e487b7160e01b600052604160045260246000fd5b600082601f83011261348c57600080fd5b813567ffffffffffffffff808211156134a7576134a7613465565b604051601f8301601f19908116603f011681019082821181831017156134cf576134cf613465565b816040528381528660208588010111156134e857600080fd5b836020870160208301376000602085830101528094505050505092915050565b803560ff8116811461351957600080fd5b919050565b600080600080600080600060e0888a03121561353957600080fd5b8735613544816133eb565b96506020880135613554816133eb565b95506040880135613564816133eb565b945060608801359350608088013567ffffffffffffffff8082111561358857600080fd5b6135948b838c0161347b565b945060a08a01359150808211156135aa57600080fd5b506135b78a828b0161347b565b9250506135c660c08901613508565b905092959891949750929550565b6000806000606084860312156135e957600080fd5b83356135f4816133eb565b92506020840135613604816133eb565b929592945050506040919091013590565b60008060008060008060c0878903121561362e57600080fd5b8635613639816133eb565b95506020870135613649816133eb565b945060408701359350606087013567ffffffffffffffff8082111561366d57600080fd5b6136798a838b0161347b565b9450608089013591508082111561368f57600080fd5b5061369c89828a0161347b565b9250506136ab60a08801613508565b90509295509295509295565b600080604083850312156136ca57600080fd5b82356136d5816133eb565b915060208301356136e5816133eb565b809150509250929050565b60008060006060848603121561370557600080fd5b8335613710816133eb565b9250602084013591506040840135613727816133eb565b809150509250925092565b600181811c9082168061374657607f821691505b60208210810361376657634e487b7160e01b600052602260045260246000fd5b50919050565b6020808252600a90820152691c994b595b9d195c995960b21b604082015260600190565b6000602082840312156137a257600080fd5b5051919050565b6000602082840312156137bb57600080fd5b81518015158114610b6457600080fd5b601f82111561381157600081815260208120601f850160051c810160208610156137f25750805b601f850160051c820191505b81811015610ab8578281556001016137fe565b505050565b815167ffffffffffffffff81111561383057613830613465565b6138448161383e8454613732565b846137cb565b602080601f83116001811461387957600084156138615750858301515b600019600386901b1c1916600185901b178555610ab8565b600085815260208120601f198616915b828110156138a857888601518255948401946001909101908401613889565b50858210156138c65787850151600019600388901b60f8161c191681555b5050505050600190811b01905550565b634e487b7160e01b600052601160045260246000fd5b818103818111156107db576107db6138d6565b808201808211156107db576107db6138d6565b80820281158282048414176107db576107db6138d6565b60008261394657634e487b7160e01b600052601260045260246000fd5b500490565b6001600160a01b039390931683526020830191909152604082015260600190565b6001600160a01b039384168152919092166020820152604081019190915260600190565b600080604083850312156139a357600080fd5b50508051602090910151909290915056feddf252ad1be2c89b69c2b068fc378daa952ba7f163c4a11628f55a4df523b3efa2646970667358221220393e18da84c1ef37f0141ca1227f61d196afeadcf5a78619844d93597f97eb3e64736f6c63430008150033",
    "linkReferences": {}
  },
  "methodIdentifiers": {
    "NO_ERROR()": "69ab3250",
    "_acceptAdmin()": "e9c714f2",
    "_addReserves(uint256)": "3e941010",
    "_delegateCompLikeTo(address)": "7f1e06be",
    "_reduceReserves(uint256)": "601a0bf1",
    "_setComptroller(address)": "4576b5db",
    "_setInterestRateModel(address)": "f2b3abbd",
    "_setPendingAdmin(address)": "b71d1a0c",
    "_setReserveFactor(uint256)": "fca7820b",
    "accrualBlockNumber()": "6c540baf",
    "accrueInterest()": "a6afed95",
    "admin()": "f851a440",
    "allowance(address,address)": "dd62ed3e",
    "approve(address,uint256)": "095ea7b3",
    "balanceOf(address)": "70a08231",
    "balanceOfUnderlying(address)": "3af9e669",
    "borrow(uint256)": "c5ebeaec",
    "borrowBalanceCurrent(address)": "17bfdfbc",
    "borrowBalanceStored(address)": "95dd9193",
    "borrowIndex()": "aa5af0fd",
    "borrowRatePerBlock()": "f8f9da28",
    "comptroller()": "5fe3b567",
    "decimals()": "313ce567",
    "exchangeRateCurrent()": "bd6d894d",
    "exchangeRateStored()": "182df0f5",
    "getAccountSnapshot(address)": "c37f68e2",
    "getCash()": "3b1d21a2",
    "initialize(address,address,address,uint256,string,string,uint8)": "1a31d465",
    "initialize(address,address,uint256,string,string,uint8)": "99d8c1b4",
    "interestRateModel()": "f3fdb15a",
    "isCToken()": "fe9c44ae",
    "liquidateBorrow(address,uint256,address)": "f5e3c462",
    "mint(uint256)": "a0712d68",
    "name()": "06fdde03",
    "pendingAdmin()": "26782247",
    "protocolSeizeShareMantissa()": "6752e702",
    "redeem(uint256)": "db006a75",
    "redeemUnderlying(uint256)": "852a12e3",
    "repayBorrow(uint256)": "0e752702",
    "repayBorrowBehalf(address,uint256)": "2608f818",
    "reserveFactorMantissa()": "173b9904",
    "seize(address,address,uint256)": "b2a02ff1",
    "supplyRatePerBlock()": "ae9d70b0",
    "sweepToken(address)": "1be19560",
    "symbol()": "95d89b41",
    "totalBorrows()": "47bd3718",
    "totalBorrowsCurrent()": "73acee98",
    "totalReserves()": "8f840ddd",
    "totalSupply()": "18160ddd",
    "transfer(address,uint256)": "a9059cbb",
    "transferFrom(address,address,uint256)": "23b872dd",
    "underlying()": "6f307dc3"
  },
  "id": 0
}