{
  "abi": [
    {
      "inputs": [],
      "stateMutability": "nonpayable",
      "type": "constructor"
    },
    {
      "anonymous": false,
      "inputs": [
        {
          "indexed": false,
          "internalType": "string",
          "name": "action",
          "type": "string"
        },
        {
          "indexed": false,
          "internalType": "bool",
          "name": "pauseState",
          "type": "bool"
        }
      ],
      "name": "ActionPaused",
      "type": "event"
    },
    {
      "anonymous": false,
      "inputs": [
        {
          "indexed": false,
          "internalType": "contract CToken",
          "name": "cToken",
          "type": "address"
        },
        {
          "indexed": false,
          "internalType": "string",
          "name": "action",
          "type": "string"
        },
        {
          "indexed": false,
          "internalType": "bool",
          "name": "pauseState",
          "type": "bool"
        }
      ],
      "name": "ActionPaused",
      "type": "event"
    },
    {
      "anonymous": false,
      "inputs": [
        {
          "indexed": true,
          "internalType": "address",
          "name": "user",
          "type": "address"
        },
        {
          "indexed": false,
          "internalType": "uint256",
          "name": "oldCompAccrued",
          "type": "uint256"
        },
        {
          "indexed": false,
          "internalType": "uint256",
          "name": "newCompAccrued",
          "type": "uint256"
        }
      ],
      "name": "CompAccruedAdjusted",
      "type": "event"
    },
    {
      "anonymous": false,
      "inputs": [
        {
          "indexed": true,
          "internalType": "contract CToken",
          "name": "cToken",
          "type": "address"
        },
        {
          "indexed": false,
          "internalType": "uint256",
          "name": "newSpeed",
          "type": "uint256"
        }
      ],
      "name": "CompBorrowSpeedUpdated",
      "type": "event"
    },
    {
      "anonymous": false,
      "inputs": [
        {
          "indexed": false,
          "internalType": "address",
          "name": "recipient",
          "type": "address"
        },
        {
          "indexed": false,
          "internalType": "uint256",
          "name": "amount",
          "type": "uint256"
        }
      ],
      "name": "CompGranted",
      "type": "event"
    },
    {
      "anonymous": false,
      "inputs": [
        {
          "indexed": true,
          "internalType": "address",
          "name": "user",
          "type": "address"
        },
        {
          "indexed": false,
          "internalType": "uint256",
          "name": "oldCompReceivable",
          "type": "uint256"
        },
        {
          "indexed": false,
          "internalType": "uint256",
          "name": "newCompReceivable",
          "type": "uint256"
        }
      ],
      "name": "CompReceivableUpdated",
      "type": "event"
    },
    {
      "anonymous": false,
      "inputs": [
        {
          "indexed": true,
          "internalType": "contract CToken",
          "name": "cToken",
          "type": "address"
        },
        {
          "indexed": false,
          "internalType": "uint256",
          "name": "newSpeed",
          "type": "uint256"
        }
      ],
      "name": "CompSupplySpeedUpdated",
      "type": "event"
    },
    {
      "anonymous": false,
      "inputs": [
        {
          "indexed": true,
          "internalType": "address",
          "name": "contributor",
          "type": "address"
        },
        {
          "indexed": false,
          "internalType": "uint256",
          "name": "newSpeed",
          "type": "uint256"
        }
      ],
      "name": "ContributorCompSpeedUpdated",
      "type": "event"
    },
    {
      "anonymous": false,
      "inputs": [
        {
          "indexed": true,
          "internalType": "contract CToken",
          "name": "cToken",
          "type": "address"
        },
        {
          "indexed": true,
          "internalType": "address",
          "name": "borrower",
          "type": "address"
        },
        {
          "indexed": false,
          "internalType": "uint256",
          "name": "compDelta",
          "type": "uint256"
        },
        {
          "indexed": false,
          "internalType": "uint256",
          "name": "compBorrowIndex",
          "type": "uint256"
        }
      ],
      "name": "DistributedBorrowerComp",
      "type": "event"
    },
    {
      "anonymous": false,
      "inputs": [
        {
          "indexed": true,
          "internalType": "contract CToken",
          "name": "cToken",
          "type": "address"
        },
        {
          "indexed": true,
          "internalType": "address",
          "name": "supplier",
          "type": "address"
        },
        {
          "indexed": false,
          "internalType": "uint256",
          "name": "compDelta",
          "type": "uint256"
        },
        {
          "indexed": false,
          "internalType": "uint256",
          "name": "compSupplyIndex",
          "type": "uint256"
        }
      ],
      "name": "DistributedSupplierComp",
      "type": "event"
    },
    {
      "anonymous": false,
      "inputs": [
        {
          "indexed": false,
          "internalType": "uint256",
          "name": "error",
          "type": "uint256"
        },
        {
          "indexed": false,
          "internalType": "uint256",
          "name": "info",
          "type": "uint256"
        },
        {
          "indexed": false,
          "internalType": "uint256",
          "name": "detail",
          "type": "uint256"
        }
      ],
      "name": "Failure",
      "type": "event"
    },
    {
      "anonymous": false,
      "inputs": [
        {
          "indexed": false,
          "internalType": "contract CToken",
          "name": "cToken",
          "type": "address"
        },
        {
          "indexed": false,
          "internalType": "address",
          "name": "account",
          "type": "address"
        }
      ],
      "name": "MarketEntered",
      "type": "event"
    },
    {
      "anonymous": false,
      "inputs": [
        {
          "indexed": false,
          "internalType": "contract CToken",
          "name": "cToken",
          "type": "address"
        },
        {
          "indexed": false,
          "internalType": "address",
          "name": "account",
          "type": "address"
        }
      ],
      "name": "MarketExited",
      "type": "event"
    },
    {
      "anonymous": false,
      "inputs": [
        {
          "indexed": false,
          "internalType": "contract CToken",
          "name": "cToken",
          "type": "address"
        }
      ],
      "name": "MarketListed",
      "type": "event"
    },
    {
      "anonymous": false,
      "inputs": [
        {
          "indexed": true,
          "internalType": "contract CToken",
          "name": "cToken",
          "type": "address"
        },
        {
          "indexed": false,
          "internalType": "uint256",
          "name": "newBorrowCap",
          "type": "uint256"
        }
      ],
      "name": "NewBorrowCap",
      "type": "event"
    },
    {
      "anonymous": false,
      "inputs": [
        {
          "indexed": false,
          "internalType": "address",
          "name": "oldBorrowCapGuardian",
          "type": "address"
        },
        {
          "indexed": false,
          "internalType": "address",
          "name": "newBorrowCapGuardian",
          "type": "address"
        }
      ],
      "name": "NewBorrowCapGuardian",
      "type": "event"
    },
    {
      "anonymous": false,
      "inputs": [
        {
          "indexed": false,
          "internalType": "uint256",
          "name": "oldCloseFactorMantissa",
          "type": "uint256"
        },
        {
          "indexed": false,
          "internalType": "uint256",
          "name": "newCloseFactorMantissa",
          "type": "uint256"
        }
      ],
      "name": "NewCloseFactor",
      "type": "event"
    },
    {
      "anonymous": false,
      "inputs": [
        {
          "indexed": false,
          "internalType": "contract CToken",
          "name": "cToken",
          "type": "address"
        },
        {
          "indexed": false,
          "internalType": "uint256",
          "name": "oldCollateralFactorMantissa",
          "type": "uint256"
        },
        {
          "indexed": false,
          "internalType": "uint256",
          "name": "newCollateralFactorMantissa",
          "type": "uint256"
        }
      ],
      "name": "NewCollateralFactor",
      "type": "event"
    },
    {
      "anonymous": false,
      "inputs": [
        {
          "indexed": false,
          "internalType": "uint256",
          "name": "oldLiquidationIncentiveMantissa",
          "type": "uint256"
        },
        {
          "indexed": false,
          "internalType": "uint256",
          "name": "newLiquidationIncentiveMantissa",
          "type": "uint256"
        }
      ],
      "name": "NewLiquidationIncentive",
      "type": "event"
    },
    {
      "anonymous": false,
      "inputs": [
        {
          "indexed": false,
          "internalType": "address",
          "name": "oldPauseGuardian",
          "type": "address"
        },
        {
          "indexed": false,
          "internalType": "address",
          "name": "newPauseGuardian",
          "type": "address"
        }
      ],
      "name": "NewPauseGuardian",
      "type": "event"
    },
    {
      "anonymous": false,
      "inputs": [
        {
          "indexed": false,
          "internalType": "contract PriceOracle",
          "name": "oldPriceOracle",
          "type": "address"
        },
        {
          "indexed": false,
          "internalType": "contract PriceOracle",
          "name": "newPriceOracle",
          "type": "address"
        }
      ],
      "name": "NewPriceOracle",
      "type": "event"
    },
    {
      "inputs": [
        {
          "internalType": "contract Unitroller",
          "name": "unitroller",
          "type": "address"
        }
      ],
      "name": "_become",
      "outputs": [],
      "stateMutability": "nonpayable",
      "type": "function"
    },
    {
      "inputs": [],
      "name": "_borrowGuardianPaused",
      "outputs": [
        {
          "internalType": "bool",
          "name": "",
          "type": "bool"
        }
      ],
      "stateMutability": "view",
      "type": "function"
    },
    {
      "inputs": [
        {
          "internalType": "address",
          "name": "recipient",
          "type": "address"
        },
        {
          "internalType": "uint256",
          "name": "amount",
          "type": "uint256"
        }
      ],
      "name": "_grantComp",
      "outputs": [],
      "stateMutability": "nonpayable",
      "type": "function"
    },
    {
      "inputs": [],
      "name": "_mintGuardianPaused",
      "outputs": [
        {
          "internalType": "bool",
          "name": "",
          "type": "bool"
        }
      ],
      "stateMutability": "view",
      "type": "function"
    },
    {
      "inputs": [
        {
          "internalType": "address",
          "name": "newBorrowCapGuardian",
          "type": "address"
        }
      ],
      "name": "_setBorrowCapGuardian",
      "outputs": [],
      "stateMutability": "nonpayable",
      "type": "function"
    },
    {
      "inputs": [
        {
          "internalType": "contract CToken",
          "name": "cToken",
          "type": "address"
        },
        {
          "internalType": "bool",
          "name": "state",
          "type": "bool"
        }
      ],
      "name": "_setBorrowPaused",
      "outputs": [
        {
          "internalType": "bool",
          "name": "",
          "type": "bool"
        }
      ],
      "stateMutability": "nonpayable",
      "type": "function"
    },
    {
      "inputs": [
        {
          "internalType": "uint256",
          "name": "newCloseFactorMantissa",
          "type": "uint256"
        }
      ],
      "name": "_setCloseFactor",
      "outputs": [
        {
          "internalType": "uint256",
          "name": "",
          "type": "uint256"
        }
      ],
      "stateMutability": "nonpayable",
      "type": "function"
    },
    {
      "inputs": [
        {
          "internalType": "contract CToken",
          "name": "cToken",
          "type": "address"
        },
        {
          "internalType": "uint256",
          "name": "newCollateralFactorMantissa",
          "type": "uint256"
        }
      ],
      "name": "_setCollateralFactor",
      "outputs": [
        {
          "internalType": "uint256",
          "name": "",
          "type": "uint256"
        }
      ],
      "stateMutability": "nonpayable",
      "type": "function"
    },
    {
      "inputs": [
        {
          "internalType": "contract CToken[]",
          "name": "cTokens",
          "type": "address[]"
        },
        {
          "internalType": "uint256[]",
          "name": "supplySpeeds",
          "type": "uint256[]"
        },
        {
          "internalType": "uint256[]",
          "name": "borrowSpeeds",
          "type": "uint256[]"
        }
      ],
      "name": "_setCompSpeeds",
      "outputs": [],
      "stateMutability": "nonpayable",
      "type": "function"
    },
    {
      "inputs": [
        {
          "internalType": "address",
          "name": "contributor",
          "type": "address"
        },
        {
          "internalType": "uint256",
          "name": "compSpeed",
          "type": "uint256"
        }
      ],
      "name": "_setContributorCompSpeed",
      "outputs": [],
      "stateMutability": "nonpayable",
      "type": "function"
    },
    {
      "inputs": [
        {
          "internalType": "uint256",
          "name": "newLiquidationIncentiveMantissa",
          "type": "uint256"
        }
      ],
      "name": "_setLiquidationIncentive",
      "outputs": [
        {
          "internalType": "uint256",
          "name": "",
          "type": "uint256"
        }
      ],
      "stateMutability": "nonpayable",
      "type": "function"
    },
    {
      "inputs": [
        {
          "internalType": "contract CToken[]",
          "name": "cTokens",
          "type": "address[]"
        },
        {
          "internalType": "uint256[]",
          "name": "newBorrowCaps",
          "type": "uint256[]"
        }
      ],
      "name": "_setMarketBorrowCaps",
      "outputs": [],
      "stateMutability": "nonpayable",
      "type": "function"
    },
    {
      "inputs": [
        {
          "internalType": "contract CToken",
          "name": "cToken",
          "type": "address"
        },
        {
          "internalType": "bool",
          "name": "state",
          "type": "bool"
        }
      ],
      "name": "_setMintPaused",
      "outputs": [
        {
          "internalType": "bool",
          "name": "",
          "type": "bool"
        }
      ],
      "stateMutability": "nonpayable",
      "type": "function"
    },
    {
      "inputs": [
        {
          "internalType": "address",
          "name": "newPauseGuardian",
          "type": "address"
        }
      ],
      "name": "_setPauseGuardian",
      "outputs": [
        {
          "internalType": "uint256",
          "name": "",
          "type": "uint256"
        }
      ],
      "stateMutability": "nonpayable",
      "type": "function"
    },
    {
      "inputs": [
        {
          "internalType": "contract PriceOracle",
          "name": "newOracle",
          "type": "address"
        }
      ],
      "name": "_setPriceOracle",
      "outputs": [
        {
          "internalType": "uint256",
          "name": "",
          "type": "uint256"
        }
      ],
      "stateMutability": "nonpayable",
      "type": "function"
    },
    {
      "inputs": [
        {
          "internalType": "bool",
          "name": "state",
          "type": "bool"
        }
      ],
      "name": "_setSeizePaused",
      "outputs": [
        {
          "internalType": "bool",
          "name": "",
          "type": "bool"
        }
      ],
      "stateMutability": "nonpayable",
      "type": "function"
    },
    {
      "inputs": [
        {
          "internalType": "bool",
          "name": "state",
          "type": "bool"
        }
      ],
      "name": "_setTransferPaused",
      "outputs": [
        {
          "internalType": "bool",
          "name": "",
          "type": "bool"
        }
      ],
      "stateMutability": "nonpayable",
      "type": "function"
    },
    {
      "inputs": [
        {
          "internalType": "contract CToken",
          "name": "cToken",
          "type": "address"
        }
      ],
      "name": "_supportMarket",
      "outputs": [
        {
          "internalType": "uint256",
          "name": "",
          "type": "uint256"
        }
      ],
      "stateMutability": "nonpayable",
      "type": "function"
    },
    {
      "inputs": [
        {
          "internalType": "address",
          "name": "",
          "type": "address"
        },
        {
          "internalType": "uint256",
          "name": "",
          "type": "uint256"
        }
      ],
      "name": "accountAssets",
      "outputs": [
        {
          "internalType": "contract CToken",
          "name": "",
          "type": "address"
        }
      ],
      "stateMutability": "view",
      "type": "function"
    },
    {
      "inputs": [],
      "name": "admin",
      "outputs": [
        {
          "internalType": "address",
          "name": "",
          "type": "address"
        }
      ],
      "stateMutability": "view",
      "type": "function"
    },
    {
      "inputs": [
        {
          "internalType": "uint256",
          "name": "",
          "type": "uint256"
        }
      ],
      "name": "allMarkets",
      "outputs": [
        {
          "internalType": "contract CToken",
          "name": "",
          "type": "address"
        }
      ],
      "stateMutability": "view",
      "type": "function"
    },
    {
      "inputs": [
        {
          "internalType": "address",
          "name": "cToken",
          "type": "address"
        },
        {
          "internalType": "address",
          "name": "borrower",
          "type": "address"
        },
        {
          "internalType": "uint256",
          "name": "borrowAmount",
          "type": "uint256"
        }
      ],
      "name": "borrowAllowed",
      "outputs": [
        {
          "internalType": "uint256",
          "name": "",
          "type": "uint256"
        }
      ],
      "stateMutability": "nonpayable",
      "type": "function"
    },
    {
      "inputs": [],
      "name": "borrowCapGuardian",
      "outputs": [
        {
          "internalType": "address",
          "name": "",
          "type": "address"
        }
      ],
      "stateMutability": "view",
      "type": "function"
    },
    {
      "inputs": [
        {
          "internalType": "address",
          "name": "",
          "type": "address"
        }
      ],
      "name": "borrowCaps",
      "outputs": [
        {
          "internalType": "uint256",
          "name": "",
          "type": "uint256"
        }
      ],
      "stateMutability": "view",
      "type": "function"
    },
    {
      "inputs": [
        {
          "internalType": "address",
          "name": "",
          "type": "address"
        }
      ],
      "name": "borrowGuardianPaused",
      "outputs": [
        {
          "internalType": "bool",
          "name": "",
          "type": "bool"
        }
      ],
      "stateMutability": "view",
      "type": "function"
    },
    {
      "inputs": [
        {
          "internalType": "address",
          "name": "cToken",
          "type": "address"
        },
        {
          "internalType": "address",
          "name": "borrower",
          "type": "address"
        },
        {
          "internalType": "uint256",
          "name": "borrowAmount",
          "type": "uint256"
        }
      ],
      "name": "borrowVerify",
      "outputs": [],
      "stateMutability": "nonpayable",
      "type": "function"
    },
    {
      "inputs": [
        {
          "internalType": "address",
          "name": "account",
          "type": "address"
        },
        {
          "internalType": "contract CToken",
          "name": "cToken",
          "type": "address"
        }
      ],
      "name": "checkMembership",
      "outputs": [
        {
          "internalType": "bool",
          "name": "",
          "type": "bool"
        }
      ],
      "stateMutability": "view",
      "type": "function"
    },
    {
      "inputs": [
        {
          "internalType": "address",
          "name": "holder",
          "type": "address"
        },
        {
          "internalType": "contract CToken[]",
          "name": "cTokens",
          "type": "address[]"
        }
      ],
      "name": "claimComp",
      "outputs": [],
      "stateMutability": "nonpayable",
      "type": "function"
    },
    {
      "inputs": [
        {
          "internalType": "address[]",
          "name": "holders",
          "type": "address[]"
        },
        {
          "internalType": "contract CToken[]",
          "name": "cTokens",
          "type": "address[]"
        },
        {
          "internalType": "bool",
          "name": "borrowers",
          "type": "bool"
        },
        {
          "internalType": "bool",
          "name": "suppliers",
          "type": "bool"
        }
      ],
      "name": "claimComp",
      "outputs": [],
      "stateMutability": "nonpayable",
      "type": "function"
    },
    {
      "inputs": [
        {
          "internalType": "address",
          "name": "holder",
          "type": "address"
        }
      ],
      "name": "claimComp",
      "outputs": [],
      "stateMutability": "nonpayable",
      "type": "function"
    },
    {
      "inputs": [],
      "name": "closeFactorMantissa",
      "outputs": [
        {
          "internalType": "uint256",
          "name": "",
          "type": "uint256"
        }
      ],
      "stateMutability": "view",
      "type": "function"
    },
    {
      "inputs": [
        {
          "internalType": "address",
          "name": "",
          "type": "address"
        }
      ],
      "name": "compAccrued",
      "outputs": [
        {
          "internalType": "uint256",
          "name": "",
          "type": "uint256"
        }
      ],
      "stateMutability": "view",
      "type": "function"
    },
    {
      "inputs": [
        {
          "internalType": "address",
          "name": "",
          "type": "address"
        }
      ],
      "name": "compBorrowSpeeds",
      "outputs": [
        {
          "internalType": "uint256",
          "name": "",
          "type": "uint256"
        }
      ],
      "stateMutability": "view",
      "type": "function"
    },
    {
      "inputs": [
        {
          "internalType": "address",
          "name": "",
          "type": "address"
        }
      ],
      "name": "compBorrowState",
      "outputs": [
        {
          "internalType": "uint224",
          "name": "index",
          "type": "uint224"
        },
        {
          "internalType": "uint32",
          "name": "block",
          "type": "uint32"
        }
      ],
      "stateMutability": "view",
      "type": "function"
    },
    {
      "inputs": [
        {
          "internalType": "address",
          "name": "",
          "type": "address"
        },
        {
          "internalType": "address",
          "name": "",
          "type": "address"
        }
      ],
      "name": "compBorrowerIndex",
      "outputs": [
        {
          "internalType": "uint256",
          "name": "",
          "type": "uint256"
        }
      ],
      "stateMutability": "view",
      "type": "function"
    },
    {
      "inputs": [
        {
          "internalType": "address",
          "name": "",
          "type": "address"
        }
      ],
      "name": "compContributorSpeeds",
      "outputs": [
        {
          "internalType": "uint256",
          "name": "",
          "type": "uint256"
        }
      ],
      "stateMutability": "view",
      "type": "function"
    },
    {
      "inputs": [],
      "name": "compInitialIndex",
      "outputs": [
        {
          "internalType": "uint224",
          "name": "",
          "type": "uint224"
        }
      ],
      "stateMutability": "view",
      "type": "function"
    },
    {
      "inputs": [],
      "name": "compRate",
      "outputs": [
        {
          "internalType": "uint256",
          "name": "",
          "type": "uint256"
        }
      ],
      "stateMutability": "view",
      "type": "function"
    },
    {
      "inputs": [
        {
          "internalType": "address",
          "name": "",
          "type": "address"
        }
      ],
      "name": "compReceivable",
      "outputs": [
        {
          "internalType": "uint256",
          "name": "",
          "type": "uint256"
        }
      ],
      "stateMutability": "view",
      "type": "function"
    },
    {
      "inputs": [
        {
          "internalType": "address",
          "name": "",
          "type": "address"
        }
      ],
      "name": "compSpeeds",
      "outputs": [
        {
          "internalType": "uint256",
          "name": "",
          "type": "uint256"
        }
      ],
      "stateMutability": "view",
      "type": "function"
    },
    {
      "inputs": [
        {
          "internalType": "address",
          "name": "",
          "type": "address"
        },
        {
          "internalType": "address",
          "name": "",
          "type": "address"
        }
      ],
      "name": "compSupplierIndex",
      "outputs": [
        {
          "internalType": "uint256",
          "name": "",
          "type": "uint256"
        }
      ],
      "stateMutability": "view",
      "type": "function"
    },
    {
      "inputs": [
        {
          "internalType": "address",
          "name": "",
          "type": "address"
        }
      ],
      "name": "compSupplySpeeds",
      "outputs": [
        {
          "internalType": "uint256",
          "name": "",
          "type": "uint256"
        }
      ],
      "stateMutability": "view",
      "type": "function"
    },
    {
      "inputs": [
        {
          "internalType": "address",
          "name": "",
          "type": "address"
        }
      ],
      "name": "compSupplyState",
      "outputs": [
        {
          "internalType": "uint224",
          "name": "index",
          "type": "uint224"
        },
        {
          "internalType": "uint32",
          "name": "block",
          "type": "uint32"
        }
      ],
      "stateMutability": "view",
      "type": "function"
    },
    {
      "inputs": [],
      "name": "comptrollerImplementation",
      "outputs": [
        {
          "internalType": "address",
          "name": "",
          "type": "address"
        }
      ],
      "stateMutability": "view",
      "type": "function"
    },
    {
      "inputs": [
        {
          "internalType": "address[]",
          "name": "cTokens",
          "type": "address[]"
        }
      ],
      "name": "enterMarkets",
      "outputs": [
        {
          "internalType": "uint256[]",
          "name": "",
          "type": "uint256[]"
        }
      ],
      "stateMutability": "nonpayable",
      "type": "function"
    },
    {
      "inputs": [
        {
          "internalType": "address",
          "name": "cTokenAddress",
          "type": "address"
        }
      ],
      "name": "exitMarket",
      "outputs": [
        {
          "internalType": "uint256",
          "name": "",
          "type": "uint256"
        }
      ],
      "stateMutability": "nonpayable",
      "type": "function"
    },
    {
      "inputs": [
        {
          "internalType": "address[]",
          "name": "affectedUsers",
          "type": "address[]"
        },
        {
          "internalType": "uint256[]",
          "name": "amounts",
          "type": "uint256[]"
        }
      ],
      "name": "fixBadAccruals",
      "outputs": [],
      "stateMutability": "nonpayable",
      "type": "function"
    },
    {
      "inputs": [
        {
          "internalType": "address",
          "name": "account",
          "type": "address"
        }
      ],
      "name": "getAccountLiquidity",
      "outputs": [
        {
          "internalType": "uint256",
          "name": "",
          "type": "uint256"
        },
        {
          "internalType": "uint256",
          "name": "",
          "type": "uint256"
        },
        {
          "internalType": "uint256",
          "name": "",
          "type": "uint256"
        }
      ],
      "stateMutability": "view",
      "type": "function"
    },
    {
      "inputs": [],
      "name": "getAllMarkets",
      "outputs": [
        {
          "internalType": "contract CToken[]",
          "name": "",
          "type": "address[]"
        }
      ],
      "stateMutability": "view",
      "type": "function"
    },
    {
      "inputs": [
        {
          "internalType": "address",
          "name": "account",
          "type": "address"
        }
      ],
      "name": "getAssetsIn",
      "outputs": [
        {
          "internalType": "contract CToken[]",
          "name": "",
          "type": "address[]"
        }
      ],
      "stateMutability": "view",
      "type": "function"
    },
    {
      "inputs": [],
      "name": "getBlockNumber",
      "outputs": [
        {
          "internalType": "uint256",
          "name": "",
          "type": "uint256"
        }
      ],
      "stateMutability": "view",
      "type": "function"
    },
    {
      "inputs": [],
      "name": "getCompAddress",
      "outputs": [
        {
          "internalType": "address",
          "name": "",
          "type": "address"
        }
      ],
      "stateMutability": "view",
      "type": "function"
    },
    {
      "inputs": [
        {
          "internalType": "address",
          "name": "account",
          "type": "address"
        },
        {
          "internalType": "address",
          "name": "cTokenModify",
          "type": "address"
        },
        {
          "internalType": "uint256",
          "name": "redeemTokens",
          "type": "uint256"
        },
        {
          "internalType": "uint256",
          "name": "borrowAmount",
          "type": "uint256"
        }
      ],
      "name": "getHypotheticalAccountLiquidity",
      "outputs": [
        {
          "internalType": "uint256",
          "name": "",
          "type": "uint256"
        },
        {
          "internalType": "uint256",
          "name": "",
          "type": "uint256"
        },
        {
          "internalType": "uint256",
          "name": "",
          "type": "uint256"
        }
      ],
      "stateMutability": "view",
      "type": "function"
    },
    {
      "inputs": [],
      "name": "isComptroller",
      "outputs": [
        {
          "internalType": "bool",
          "name": "",
          "type": "bool"
        }
      ],
      "stateMutability": "view",
      "type": "function"
    },
    {
      "inputs": [
        {
          "internalType": "contract CToken",
          "name": "cToken",
          "type": "address"
        }
      ],
      "name": "isDeprecated",
      "outputs": [
        {
          "internalType": "bool",
          "name": "",
          "type": "bool"
        }
      ],
      "stateMutability": "view",
      "type": "function"
    },
    {
      "inputs": [
        {
          "internalType": "address",
          "name": "",
          "type": "address"
        }
      ],
      "name": "lastContributorBlock",
      "outputs": [
        {
          "internalType": "uint256",
          "name": "",
          "type": "uint256"
        }
      ],
      "stateMutability": "view",
      "type": "function"
    },
    {
      "inputs": [
        {
          "internalType": "address",
          "name": "cTokenBorrowed",
          "type": "address"
        },
        {
          "internalType": "address",
          "name": "cTokenCollateral",
          "type": "address"
        },
        {
          "internalType": "address",
          "name": "liquidator",
          "type": "address"
        },
        {
          "internalType": "address",
          "name": "borrower",
          "type": "address"
        },
        {
          "internalType": "uint256",
          "name": "repayAmount",
          "type": "uint256"
        }
      ],
      "name": "liquidateBorrowAllowed",
      "outputs": [
        {
          "internalType": "uint256",
          "name": "",
          "type": "uint256"
        }
      ],
      "stateMutability": "nonpayable",
      "type": "function"
    },
    {
      "inputs": [
        {
          "internalType": "address",
          "name": "cTokenBorrowed",
          "type": "address"
        },
        {
          "internalType": "address",
          "name": "cTokenCollateral",
          "type": "address"
        },
        {
          "internalType": "address",
          "name": "liquidator",
          "type": "address"
        },
        {
          "internalType": "address",
          "name": "borrower",
          "type": "address"
        },
        {
          "internalType": "uint256",
          "name": "actualRepayAmount",
          "type": "uint256"
        },
        {
          "internalType": "uint256",
          "name": "seizeTokens",
          "type": "uint256"
        }
      ],
      "name": "liquidateBorrowVerify",
      "outputs": [],
      "stateMutability": "nonpayable",
      "type": "function"
    },
    {
      "inputs": [
        {
          "internalType": "address",
          "name": "cTokenBorrowed",
          "type": "address"
        },
        {
          "internalType": "address",
          "name": "cTokenCollateral",
          "type": "address"
        },
        {
          "internalType": "uint256",
          "name": "actualRepayAmount",
          "type": "uint256"
        }
      ],
      "name": "liquidateCalculateSeizeTokens",
      "outputs": [
        {
          "internalType": "uint256",
          "name": "",
          "type": "uint256"
        },
        {
          "internalType": "uint256",
          "name": "",
          "type": "uint256"
        }
      ],
      "stateMutability": "view",
      "type": "function"
    },
    {
      "inputs": [],
      "name": "liquidationIncentiveMantissa",
      "outputs": [
        {
          "internalType": "uint256",
          "name": "",
          "type": "uint256"
        }
      ],
      "stateMutability": "view",
      "type": "function"
    },
    {
      "inputs": [
        {
          "internalType": "address",
          "name": "",
          "type": "address"
        }
      ],
      "name": "markets",
      "outputs": [
        {
          "internalType": "bool",
          "name": "isListed",
          "type": "bool"
        },
        {
          "internalType": "uint256",
          "name": "collateralFactorMantissa",
          "type": "uint256"
        },
        {
          "internalType": "bool",
          "name": "isComped",
          "type": "bool"
        }
      ],
      "stateMutability": "view",
      "type": "function"
    },
    {
      "inputs": [],
      "name": "maxAssets",
      "outputs": [
        {
          "internalType": "uint256",
          "name": "",
          "type": "uint256"
        }
      ],
      "stateMutability": "view",
      "type": "function"
    },
    {
      "inputs": [
        {
          "internalType": "address",
          "name": "cToken",
          "type": "address"
        },
        {
          "internalType": "address",
          "name": "minter",
          "type": "address"
        },
        {
          "internalType": "uint256",
          "name": "mintAmount",
          "type": "uint256"
        }
      ],
      "name": "mintAllowed",
      "outputs": [
        {
          "internalType": "uint256",
          "name": "",
          "type": "uint256"
        }
      ],
      "stateMutability": "nonpayable",
      "type": "function"
    },
    {
      "inputs": [
        {
          "internalType": "address",
          "name": "",
          "type": "address"
        }
      ],
      "name": "mintGuardianPaused",
      "outputs": [
        {
          "internalType": "bool",
          "name": "",
          "type": "bool"
        }
      ],
      "stateMutability": "view",
      "type": "function"
    },
    {
      "inputs": [
        {
          "internalType": "address",
          "name": "cToken",
          "type": "address"
        },
        {
          "internalType": "address",
          "name": "minter",
          "type": "address"
        },
        {
          "internalType": "uint256",
          "name": "actualMintAmount",
          "type": "uint256"
        },
        {
          "internalType": "uint256",
          "name": "mintTokens",
          "type": "uint256"
        }
      ],
      "name": "mintVerify",
      "outputs": [],
      "stateMutability": "nonpayable",
      "type": "function"
    },
    {
      "inputs": [],
      "name": "oracle",
      "outputs": [
        {
          "internalType": "contract PriceOracle",
          "name": "",
          "type": "address"
        }
      ],
      "stateMutability": "view",
      "type": "function"
    },
    {
      "inputs": [],
      "name": "pauseGuardian",
      "outputs": [
        {
          "internalType": "address",
          "name": "",
          "type": "address"
        }
      ],
      "stateMutability": "view",
      "type": "function"
    },
    {
      "inputs": [],
      "name": "pendingAdmin",
      "outputs": [
        {
          "internalType": "address",
          "name": "",
          "type": "address"
        }
      ],
      "stateMutability": "view",
      "type": "function"
    },
    {
      "inputs": [],
      "name": "pendingComptrollerImplementation",
      "outputs": [
        {
          "internalType": "address",
          "name": "",
          "type": "address"
        }
      ],
      "stateMutability": "view",
      "type": "function"
    },
    {
      "inputs": [],
      "name": "proposal65FixExecuted",
      "outputs": [
        {
          "internalType": "bool",
          "name": "",
          "type": "bool"
        }
      ],
      "stateMutability": "view",
      "type": "function"
    },
    {
      "inputs": [
        {
          "internalType": "address",
          "name": "cToken",
          "type": "address"
        },
        {
          "internalType": "address",
          "name": "redeemer",
          "type": "address"
        },
        {
          "internalType": "uint256",
          "name": "redeemTokens",
          "type": "uint256"
        }
      ],
      "name": "redeemAllowed",
      "outputs": [
        {
          "internalType": "uint256",
          "name": "",
          "type": "uint256"
        }
      ],
      "stateMutability": "nonpayable",
      "type": "function"
    },
    {
      "inputs": [
        {
          "internalType": "address",
          "name": "cToken",
          "type": "address"
        },
        {
          "internalType": "address",
          "name": "redeemer",
          "type": "address"
        },
        {
          "internalType": "uint256",
          "name": "redeemAmount",
          "type": "uint256"
        },
        {
          "internalType": "uint256",
          "name": "redeemTokens",
          "type": "uint256"
        }
      ],
      "name": "redeemVerify",
      "outputs": [],
      "stateMutability": "nonpayable",
      "type": "function"
    },
    {
      "inputs": [
        {
          "internalType": "address",
          "name": "cToken",
          "type": "address"
        },
        {
          "internalType": "address",
          "name": "payer",
          "type": "address"
        },
        {
          "internalType": "address",
          "name": "borrower",
          "type": "address"
        },
        {
          "internalType": "uint256",
          "name": "repayAmount",
          "type": "uint256"
        }
      ],
      "name": "repayBorrowAllowed",
      "outputs": [
        {
          "internalType": "uint256",
          "name": "",
          "type": "uint256"
        }
      ],
      "stateMutability": "nonpayable",
      "type": "function"
    },
    {
      "inputs": [
        {
          "internalType": "address",
          "name": "cToken",
          "type": "address"
        },
        {
          "internalType": "address",
          "name": "payer",
          "type": "address"
        },
        {
          "internalType": "address",
          "name": "borrower",
          "type": "address"
        },
        {
          "internalType": "uint256",
          "name": "actualRepayAmount",
          "type": "uint256"
        },
        {
          "internalType": "uint256",
          "name": "borrowerIndex",
          "type": "uint256"
        }
      ],
      "name": "repayBorrowVerify",
      "outputs": [],
      "stateMutability": "nonpayable",
      "type": "function"
    },
    {
      "inputs": [
        {
          "internalType": "address",
          "name": "cTokenCollateral",
          "type": "address"
        },
        {
          "internalType": "address",
          "name": "cTokenBorrowed",
          "type": "address"
        },
        {
          "internalType": "address",
          "name": "liquidator",
          "type": "address"
        },
        {
          "internalType": "address",
          "name": "borrower",
          "type": "address"
        },
        {
          "internalType": "uint256",
          "name": "seizeTokens",
          "type": "uint256"
        }
      ],
      "name": "seizeAllowed",
      "outputs": [
        {
          "internalType": "uint256",
          "name": "",
          "type": "uint256"
        }
      ],
      "stateMutability": "nonpayable",
      "type": "function"
    },
    {
      "inputs": [],
      "name": "seizeGuardianPaused",
      "outputs": [
        {
          "internalType": "bool",
          "name": "",
          "type": "bool"
        }
      ],
      "stateMutability": "view",
      "type": "function"
    },
    {
      "inputs": [
        {
          "internalType": "address",
          "name": "cTokenCollateral",
          "type": "address"
        },
        {
          "internalType": "address",
          "name": "cTokenBorrowed",
          "type": "address"
        },
        {
          "internalType": "address",
          "name": "liquidator",
          "type": "address"
        },
        {
          "internalType": "address",
          "name": "borrower",
          "type": "address"
        },
        {
          "internalType": "uint256",
          "name": "seizeTokens",
          "type": "uint256"
        }
      ],
      "name": "seizeVerify",
      "outputs": [],
      "stateMutability": "nonpayable",
      "type": "function"
    },
    {
      "inputs": [
        {
          "internalType": "address",
          "name": "cToken",
          "type": "address"
        },
        {
          "internalType": "address",
          "name": "src",
          "type": "address"
        },
        {
          "internalType": "address",
          "name": "dst",
          "type": "address"
        },
        {
          "internalType": "uint256",
          "name": "transferTokens",
          "type": "uint256"
        }
      ],
      "name": "transferAllowed",
      "outputs": [
        {
          "internalType": "uint256",
          "name": "",
          "type": "uint256"
        }
      ],
      "stateMutability": "nonpayable",
      "type": "function"
    },
    {
      "inputs": [],
      "name": "transferGuardianPaused",
      "outputs": [
        {
          "internalType": "bool",
          "name": "",
          "type": "bool"
        }
      ],
      "stateMutability": "view",
      "type": "function"
    },
    {
      "inputs": [
        {
          "internalType": "address",
          "name": "cToken",
          "type": "address"
        },
        {
          "internalType": "address",
          "name": "src",
          "type": "address"
        },
        {
          "internalType": "address",
          "name": "dst",
          "type": "address"
        },
        {
          "internalType": "uint256",
          "name": "transferTokens",
          "type": "uint256"
        }
      ],
      "name": "transferVerify",
      "outputs": [],
      "stateMutability": "nonpayable",
      "type": "function"
    },
    {
      "inputs": [
        {
          "internalType": "address",
          "name": "contributor",
          "type": "address"
        }
      ],
      "name": "updateContributorRewards",
      "outputs": [],
      "stateMutability": "nonpayable",
      "type": "function"
    }
  ],
  "bytecode": {
    "object": "0x608060405234801561001057600080fd5b50600080546001600160a01b0319163317905561542f806100326000396000f3fe608060405234801561001057600080fd5b506004361061048a5760003560e01c8063731f0c2b11610262578063b21be7fd11610151578063dce15449116100ce578063e9af029211610092578063e9af029214610c04578063eabe7d9114610c17578063ede4edd014610c2a578063f00a7a9214610c3d578063f4a433c014610c4a578063f851a44014610c6a57600080fd5b8063dce1544914610bae578063dcfbc0c714610bc1578063e4028eee14610bd4578063e6653f3d14610be7578063e875544614610bfb57600080fd5b8063c488847b11610115578063c488847b14610b15578063ca0af04314610b3d578063cc7ebdc414610b68578063d02f735114610b88578063da3d454c14610b9b57600080fd5b8063b21be7fd14610a84578063bb82aa5e14610aaf578063bdcdc25814610ac2578063bea6b8b814610ad5578063c299823814610af557600080fd5b806394b2294b116101df578063a8b43948116101a3578063a8b4394814610a2c578063aa90075414610a3f578063abfceffc14610a48578063ac0b0bb714610a68578063b0772d0b14610a7c57600080fd5b806394b2294b146109a9578063986ab838146109b25780639d1b5a0a146109d2578063a76b3fda146109ec578063a7f0e231146109ff57600080fd5b80638c57804e116102265780638c57804e146108b75780638e8f294b146108ef5780638ebf636414610942578063929fe9a11461095557806394543c151461099657600080fd5b8063731f0c2b1461083a578063741b25251461085d5780637dc0d1d01461087057806385b7beb81461088357806387f76303146108a357600080fd5b80634a5844321161037e5780635ec88c79116102fb5780636a56947e116102bf5780636a56947e1461077f5780636aa875b51461078d5780636b79c38d146107ad5780636d154ea5146108095780636d35bf911461082c57600080fd5b80635ec88c79146107205780635f5af1aa146107335780635fc7e71e14610746578063607ef6c1146107595780636810dfa61461076c57600080fd5b806351dff9891161034257806351dff989146106c157806352d84d1e146106d457806355ee1fe1146106e7578063598ee1cb146106fa5780635c7786051461070d57600080fd5b80634a584432146106445780634ada90af146106645780634e79238f1461066d5780634ef4c3e11461069b5780634fd42e17146106ae57600080fd5b8063267822471161040c5780633bcf7ec1116103d05780633bcf7ec1146105ed5780633c94786f1461060057806341c728b91461061457806342cbb15c1461062857806347ef3b3b1461062e57600080fd5b8063267822471461058e57806327efe3cb146105a15780632d70db78146105b4578063317b0b77146105c7578063391957d7146105da57600080fd5b80631d7b33d7116104535780631d7b33d7146104fa5780631ededc911461052857806321af45691461053d57806324008a621461056857806324a3d6221461057b57600080fd5b80627e3dd21461048f57806316b95e8f146104ac57806318c882a5146104c15780631c3db2e0146104d45780631d504dc6146104e7575b600080fd5b610497600181565b60405190151581526020015b60405180910390f35b6104bf6104ba366004614a4a565b610c7d565b005b6104976104cf366004614ad9565b610f26565b6104bf6104e2366004614bf1565b61105f565b6104bf6104f5366004614c41565b6110c2565b61051a610508366004614c41565b600f6020526000908152604090205481565b6040519081526020016104a3565b6104bf610536366004614c5e565b5050505050565b601554610550906001600160a01b031681565b6040516001600160a01b0390911681526020016104a3565b61051a610576366004614cb9565b611240565b600a54610550906001600160a01b031681565b600154610550906001600160a01b031681565b6104bf6105af366004614d0a565b6112fe565b6104976105c2366004614d36565b6113f5565b61051a6105d5366004614d53565b6114e5565b6104bf6105e8366004614c41565b61158c565b6104976105fb366004614ad9565b611656565b600a5461049790600160a01b900460ff1681565b6104bf610622366004614d6c565b50505050565b4361051a565b6104bf61063c366004614db2565b505050505050565b61051a610652366004614c41565b60166020526000908152604090205481565b61051a60065481565b61068061067b366004614d6c565b611780565b604080519384526020840192909252908201526060016104a3565b61051a6106a9366004614e20565b6117c0565b61051a6106bc366004614d53565b611861565b6104bf6106cf366004614d6c565b6118be565b6105506106e2366004614d53565b61190d565b61051a6106f5366004614c41565b611937565b6104bf610708366004614d0a565b6119b0565b6104bf61071b366004614e20565b505050565b61068061072e366004614c41565b611aa7565b61051a610741366004614c41565b611ae2565b61051a610754366004614e61565b611b5b565b6104bf610767366004614a4a565b611d2d565b6104bf61077a366004614f29565b611f0b565b6104bf610622366004614cb9565b61051a61079b366004614c41565b601a6020526000908152604090205481565b6107e56107bb366004614c41565b6010602052600090815260409020546001600160e01b03811690600160e01b900463ffffffff1682565b604080516001600160e01b03909316835263ffffffff9091166020830152016104a3565b610497610817366004614c41565b600c6020526000908152604090205460ff1681565b6104bf610536366004614e61565b610497610848366004614c41565b600b6020526000908152604090205460ff1681565b6104bf61086b366004614c41565b612193565b600454610550906001600160a01b031681565b61051a610891366004614c41565b601c6020526000908152604090205481565b600a5461049790600160b01b900460ff1681565b6107e56108c5366004614c41565b6011602052600090815260409020546001600160e01b03811690600160e01b900463ffffffff1682565b6109236108fd366004614c41565b60096020526000908152604090208054600182015460039092015460ff91821692911683565b60408051931515845260208401929092521515908201526060016104a3565b610497610950366004614d36565b61223f565b610497610963366004614fb2565b6001600160a01b038082166000908152600960209081526040808320938616835260029093019052205460ff1692915050565b6104976109a4366004614c41565b612326565b61051a60075481565b61051a6109c0366004614c41565b60176020526000908152604090205481565b73c00e94cb662c3520282e6f5717214004a7f26888610550565b61051a6109fa366004614c41565b6123e5565b610a146a0c097ce7bc90715b34b9f160241b81565b6040516001600160e01b0390911681526020016104a3565b6104bf610a3a36600461503b565b612517565b61051a600e5481565b610a5b610a56366004614c41565b61264c565b6040516104a391906150c3565b600a5461049790600160b81b900460ff1681565b610a5b6126c2565b61051a610a92366004614fb2565b601260209081526000928352604080842090915290825290205481565b600254610550906001600160a01b031681565b61051a610ad0366004614cb9565b612724565b61051a610ae3366004614c41565b60186020526000908152604090205481565b610b08610b03366004615110565b6127af565b6040516104a39190615145565b610b28610b23366004614e20565b612877565b604080519283526020830191909152016104a3565b61051a610b4b366004614fb2565b601360209081526000928352604080842090915290825290205481565b61051a610b76366004614c41565b60146020526000908152604090205481565b61051a610b96366004614e61565b612a95565b61051a610ba9366004614e20565b612c3c565b610550610bbc366004614d0a565b61300f565b600354610550906001600160a01b031681565b61051a610be2366004614d0a565b613047565b600a5461049790600160a81b900460ff1681565b61051a60055481565b6104bf610c12366004614c41565b6131d9565b61051a610c25366004614e20565b61323d565b61051a610c38366004614c41565b613278565b601b546104979060ff1681565b61051a610c58366004614c41565b60196020526000908152604090205481565b600054610550906001600160a01b031681565b6000546001600160a01b03163314610ce65760405162461bcd60e51b815260206004820152602160248201527f4f6e6c792061646d696e2063616e2063616c6c20746869732066756e6374696f6044820152603760f91b60648201526084015b60405180910390fd5b601b5460ff1615610d485760405162461bcd60e51b815260206004820152602660248201527f416c72656164792065786563757465642074686973206f6e652d6f66662066756044820152653731ba34b7b760d11b6064820152608401610cdd565b828114610d875760405162461bcd60e51b815260206004820152600d60248201526c125b9d985b1a59081a5b9c1d5d609a1b6044820152606401610cdd565b60008060008060005b87811015610f0e57888882818110610daa57610daa61517d565b9050602002016020810190610dbf9190614c41565b6001600160a01b0381166000908152601460205260409020549095509350868682818110610def57610def61517d565b90506020020135925083831115610e93576000610e0c85856151a9565b6001600160a01b0387166000908152601c6020526040812054919250610e3282846135dd565b6001600160a01b0389166000818152601c6020908152604091829020849055815186815290810184905292935090917f17fea09d9a7ca41b2f9f9118f18f44848a62e9c70d55dd4385131eb2cf1b7e47910160405180910390a28695505050505b8215610efe57610ea384846135e9565b6001600160a01b038616600081815260146020908152604091829020849055815188815290810184905292945090917f4a5c134e28b537a76546993ea37f3b60d9190476df7356d3842aa40902e20f04910160405180910390a25b610f07816151bc565b9050610d90565b5050601b805460ff1916600117905550505050505050565b6001600160a01b03821660009081526009602052604081205460ff16610f5e5760405162461bcd60e51b8152600401610cdd906151d5565b600a546001600160a01b0316331480610f8157506000546001600160a01b031633145b610f9d5760405162461bcd60e51b8152600401610cdd9061521d565b6000546001600160a01b0316331480610fb857506001821515145b610fd45760405162461bcd60e51b8152600401610cdd90615264565b6001600160a01b0383166000818152600c6020908152604091829020805460ff19168615159081179091558251938452606091840182905260069184019190915265426f72726f7760d01b6080840152908201527f71aec636243f9709bb0007ae15e9afb8150ab01716d75fd7573be5cc096e03b09060a0015b60405180910390a150805b92915050565b6040805160018082528183019092526000916020808301908036833701905050905082816000815181106110955761109561517d565b60200260200101906001600160a01b031690816001600160a01b03168152505061071b8183600180611f0b565b806001600160a01b031663f851a4406040518163ffffffff1660e01b8152600401602060405180830381865afa158015611100573d6000803e3d6000fd5b505050506040513d601f19601f820116820180604052508101906111249190615294565b6001600160a01b0316336001600160a01b0316146111945760405162461bcd60e51b815260206004820152602760248201527f6f6e6c7920756e6974726f6c6c65722061646d696e2063616e206368616e676560448201526620627261696e7360c81b6064820152608401610cdd565b806001600160a01b031663c1e803346040518163ffffffff1660e01b81526004016020604051808303816000875af11580156111d4573d6000803e3d6000fd5b505050506040513d601f19601f820116820180604052508101906111f891906152b1565b1561123d5760405162461bcd60e51b815260206004820152601560248201527418da185b99d9481b9bdd08185d5d1a1bdc9a5e9959605a1b6044820152606401610cdd565b50565b6001600160a01b03841660009081526009602052604081205460ff16611268575060096112f6565b60006040518060200160405280876001600160a01b031663aa5af0fd6040518163ffffffff1660e01b8152600401602060405180830381865afa1580156112b3573d6000803e3d6000fd5b505050506040513d601f19601f820116820180604052508101906112d791906152b1565b905290506112e586826135f5565b6112f08685836137e8565b60009150505b949350505050565b611306613968565b6113525760405162461bcd60e51b815260206004820152601960248201527f6f6e6c792061646d696e2063616e206772616e7420636f6d70000000000000006044820152606401610cdd565b600061135e8383613991565b905080156113ae5760405162461bcd60e51b815260206004820152601b60248201527f696e73756666696369656e7420636f6d7020666f72206772616e7400000000006044820152606401610cdd565b604080516001600160a01b0385168152602081018490527f98b2f82a3a07f223a0be64b3d0f47711c64dccd1feafb94aa28156b38cd9695c910160405180910390a1505050565b600a546000906001600160a01b031633148061141b57506000546001600160a01b031633145b6114375760405162461bcd60e51b8152600401610cdd9061521d565b6000546001600160a01b031633148061145257506001821515145b61146e5760405162461bcd60e51b8152600401610cdd90615264565b600a8054831515600160b81b0260ff60b81b199091161790556040517fef159d9a32b2472e32b098f954f3ce62d232939f1c207070b584df1814de2de0906114d99084906040808252600590820152645365697a6560d81b6060820152901515602082015260800190565b60405180910390a15090565b600080546001600160a01b031633146115405760405162461bcd60e51b815260206004820152601f60248201527f6f6e6c792061646d696e2063616e2073657420636c6f736520666163746f72006044820152606401610cdd565b600580549083905560408051828152602081018590527f3b9670cf975d26958e754b57098eaa2ac914d8d2a31b83257997b9f346110fd991015b60405180910390a160005b9392505050565b6000546001600160a01b031633146115f55760405162461bcd60e51b815260206004820152602660248201527f6f6e6c792061646d696e2063616e2073657420626f72726f772063617020677560448201526530b93234b0b760d11b6064820152608401610cdd565b601580546001600160a01b038381166001600160a01b031983168117909355604080519190921680825260208201939093527feda98690e518e9a05f8ec6837663e188211b2da8f4906648b323f2c1d4434e29910160405180910390a15050565b6001600160a01b03821660009081526009602052604081205460ff1661168e5760405162461bcd60e51b8152600401610cdd906151d5565b600a546001600160a01b03163314806116b157506000546001600160a01b031633145b6116cd5760405162461bcd60e51b8152600401610cdd9061521d565b6000546001600160a01b03163314806116e857506001821515145b6117045760405162461bcd60e51b8152600401610cdd90615264565b6001600160a01b0383166000818152600b6020908152604091829020805460ff19168615159081179091558251938452606091840182905260049184019190915263135a5b9d60e21b6080840152908201527f71aec636243f9709bb0007ae15e9afb8150ab01716d75fd7573be5cc096e03b09060a00161104e565b6000806000806000806117958a8a8a8a613ab6565b9250925092508260118111156117ad576117ad6152ca565b95509093509150505b9450945094915050565b6001600160a01b0383166000908152600b602052604081205460ff161561181a5760405162461bcd60e51b815260206004820152600e60248201526d1b5a5b9d081a5cc81c185d5cd95960921b6044820152606401610cdd565b6001600160a01b03841660009081526009602052604090205460ff166118445760095b9050611585565b61184d84613de6565b6118578484613f5e565b6000949350505050565b600080546001600160a01b03163314611880576110596001600b6140fc565b600680549083905560408051828152602081018590527faeba5a6c40a8ac138134bff1aaa65debf25971188a58804bad717f82f0ec1316910161157a565b801580156118cc5750600082115b156106225760405162461bcd60e51b815260206004820152601160248201527072656465656d546f6b656e73207a65726f60781b6044820152606401610cdd565b600d818154811061191d57600080fd5b6000918252602090912001546001600160a01b0316905081565b600080546001600160a01b0316331461195657611059600160106140fc565b600480546001600160a01b038481166001600160a01b031983168117909355604080519190921680825260208201939093527fd52b2b9b7e9ee655fcb95d2e5b9e0c9f69e7ef2b8e9d2d0ea78402d576d22e22910161157a565b6119b8613968565b611a045760405162461bcd60e51b815260206004820152601d60248201527f6f6e6c792061646d696e2063616e2073657420636f6d702073706565640000006044820152606401610cdd565b611a0d82612193565b80600003611a33576001600160a01b038216600090815260186020526040812055611a4e565b436001600160a01b0383166000908152601860205260409020555b6001600160a01b03821660008181526017602052604090819020839055517f386537fa92edc3319af95f1f904dcf1900021e4f3f4e08169a577a09076e66b390611a9b9084815260200190565b60405180910390a25050565b600080600080600080611abe876000806000613ab6565b925092509250826011811115611ad657611ad66152ca565b97919650945092505050565b600080546001600160a01b03163314611b0157611059600160136140fc565b600a80546001600160a01b038481166001600160a01b031983168117909355604080519190921680825260208201939093527f0613b6ee6a04f0d09f390e4d9318894b9f6ac7fd83897cd8d18896ba579c401e910161157a565b6001600160a01b03851660009081526009602052604081205460ff161580611b9c57506001600160a01b03851660009081526009602052604090205460ff16155b15611bab5760095b9050611d24565b6040516395dd919360e01b81526001600160a01b038481166004830152600091908816906395dd919390602401602060405180830381865afa158015611bf5573d6000803e3d6000fd5b505050506040513d601f19601f82011682018060405250810190611c1991906152b1565b9050611c2487612326565b15611c8f5782811015611c8a5760405162461bcd60e51b815260206004820152602860248201527f43616e206e6f74207265706179206d6f7265207468616e2074686520746f74616044820152676c20626f72726f7760c01b6064820152608401610cdd565b611d1e565b600080611c9b86614175565b91935090915060009050826011811115611cb757611cb76152ca565b14611cd857816011811115611cce57611cce6152ca565b9350505050611d24565b80600003611ce7576003611cce565b6000611d03604051806020016040528060055481525085614195565b905080861115611d1a576011945050505050611d24565b5050505b60009150505b95945050505050565b6000546001600160a01b0316331480611d5057506015546001600160a01b031633145b611dba5760405162461bcd60e51b815260206004820152603560248201527f6f6e6c792061646d696e206f7220626f72726f772063617020677561726469616044820152746e2063616e2073657420626f72726f77206361707360581b6064820152608401610cdd565b82818115801590611dca57508082145b611e065760405162461bcd60e51b815260206004820152600d60248201526c1a5b9d985b1a59081a5b9c1d5d609a1b6044820152606401610cdd565b60005b82811015611f0257848482818110611e2357611e2361517d565b9050602002013560166000898985818110611e4057611e4061517d565b9050602002016020810190611e559190614c41565b6001600160a01b03168152602081019190915260400160002055868682818110611e8157611e8161517d565b9050602002016020810190611e969190614c41565b6001600160a01b03167f6f1951b2aad10f3fc81b86d91105b413a5b3f847a34bbc5ce1904201b14438f6868684818110611ed257611ed261517d565b90506020020135604051611ee891815260200190565b60405180910390a280611efa816151bc565b915050611e09565b50505050505050565b60005b83518110156120d0576000848281518110611f2b57611f2b61517d565b6020908102919091018101516001600160a01b0381166000908152600990925260409091205490915060ff16611f9b5760405162461bcd60e51b81526020600482015260156024820152741b585c9ad95d081b5d5cdd081899481b1a5cdd1959605a1b6044820152606401610cdd565b8315156001036120675760006040518060200160405280836001600160a01b031663aa5af0fd6040518163ffffffff1660e01b8152600401602060405180830381865afa158015611ff0573d6000803e3d6000fd5b505050506040513d601f19601f8201168201806040525081019061201491906152b1565b9052905061202282826135f5565b60005b875181101561206457612052838983815181106120445761204461517d565b6020026020010151846137e8565b8061205c816151bc565b915050612025565b50505b8215156001036120bd5761207a81613de6565b60005b86518110156120bb576120a98288838151811061209c5761209c61517d565b6020026020010151613f5e565b806120b3816151bc565b91505061207d565b505b50806120c8816151bc565b915050611f0e565b5060005b84518110156105365761213e8582815181106120f2576120f261517d565b6020026020010151601460008885815181106121105761211061517d565b60200260200101516001600160a01b03166001600160a01b0316815260200190815260200160002054613991565b601460008784815181106121545761215461517d565b60200260200101516001600160a01b03166001600160a01b0316815260200190815260200160002081905550808061218b906151bc565b9150506120d4565b6001600160a01b0381166000908152601760209081526040808320546018909252822054909143916121c69083906135e9565b90506000811180156121d85750600083115b156106225760006121e982856141ad565b6001600160a01b0386166000908152601460205260408120549192509061221090836135dd565b6001600160a01b0387166000908152601460209081526040808320939093556018905220849055505050505050565b600a546000906001600160a01b031633148061226557506000546001600160a01b031633145b6122815760405162461bcd60e51b8152600401610cdd9061521d565b6000546001600160a01b031633148061229c57506001821515145b6122b85760405162461bcd60e51b8152600401610cdd90615264565b600a8054831515600160b01b0260ff60b01b199091161790556040517fef159d9a32b2472e32b098f954f3ce62d232939f1c207070b584df1814de2de0906114d99084906040808252600890820152672a3930b739b332b960c11b6060820152901515602082015260800190565b6001600160a01b03811660009081526009602052604081206001015415801561236c57506001600160a01b0382166000908152600c602052604090205460ff1615156001145b80156110595750816001600160a01b031663173b99046040518163ffffffff1660e01b8152600401602060405180830381865afa1580156123b1573d6000803e3d6000fd5b505050506040513d601f19601f820116820180604052508101906123d591906152b1565b670de0b6b3a76400001492915050565b600080546001600160a01b0316331461240457611059600160126140fc565b6001600160a01b03821660009081526009602052604090205460ff161561243157611059600a60116140fc565b816001600160a01b031663fe9c44ae6040518163ffffffff1660e01b8152600401602060405180830381865afa15801561246f573d6000803e3d6000fd5b505050506040513d601f19601f8201168201806040525081019061249391906152e0565b506001600160a01b03821660009081526009602052604081208054600160ff19918216811783556003830180549092169091558101919091556124d5836141b9565b6124de836142a1565b6040516001600160a01b03841681527fcf583bb0c569eb967f806b11601c4cb93c10310485c67add5f8362c2f212321f9060200161157a565b61251f613968565b61256b5760405162461bcd60e51b815260206004820152601d60248201527f6f6e6c792061646d696e2063616e2073657420636f6d702073706565640000006044820152606401610cdd565b825182518114801561257d5750815181145b6125db5760405162461bcd60e51b815260206004820152602960248201527f436f6d7074726f6c6c65723a3a5f736574436f6d7053706565647320696e76616044820152681b1a59081a5b9c1d5d60ba1b6064820152608401610cdd565b60005b818110156105365761263c8582815181106125fb576125fb61517d565b60200260200101518583815181106126155761261561517d565b602002602001015185848151811061262f5761262f61517d565b6020026020010151614365565b612645816151bc565b90506125de565b6001600160a01b03811660009081526008602090815260408083208054825181850281018501909352808352606094938301828280156126b557602002820191906000526020600020905b81546001600160a01b03168152600190910190602001808311612697575b5093979650505050505050565b6060600d80548060200260200160405190810160405280929190818152602001828054801561271a57602002820191906000526020600020905b81546001600160a01b031681526001909101906020018083116126fc575b5050505050905090565b600a54600090600160b01b900460ff16156127765760405162461bcd60e51b81526020600482015260126024820152711d1c985b9cd9995c881a5cc81c185d5cd95960721b6044820152606401610cdd565b6000612783868685614544565b905080156127925790506112f6565b61279b86613de6565b6127a58686613f5e565b6112f08685613f5e565b805160609060008167ffffffffffffffff8111156127cf576127cf614b12565b6040519080825280602002602001820160405280156127f8578160200160208202803683370190505b50905060005b8281101561286f57600085828151811061281a5761281a61517d565b6020026020010151905061282e81336145fc565b601181111561283f5761283f6152ca565b8383815181106128515761285161517d565b60209081029190910101525080612867816151bc565b9150506127fe565b509392505050565b6004805460405163fc57d4df60e01b81526001600160a01b03868116938201939093526000928392839291169063fc57d4df90602401602060405180830381865afa1580156128ca573d6000803e3d6000fd5b505050506040513d601f19601f820116820180604052508101906128ee91906152b1565b6004805460405163fc57d4df60e01b81526001600160a01b038981169382019390935292935060009291169063fc57d4df90602401602060405180830381865afa158015612940573d6000803e3d6000fd5b505050506040513d601f19601f8201168201806040525081019061296491906152b1565b9050811580612971575080155b1561298557600d6000935093505050612a8d565b6000866001600160a01b031663182df0f56040518163ffffffff1660e01b8152600401602060405180830381865afa1580156129c5573d6000803e3d6000fd5b505050506040513d601f19601f820116820180604052508101906129e991906152b1565b90506000612a036040518060200160405280600081525090565b604080516020808201835260008083528351808301855290815283518083018552600654815284519283019094528882529192612a3f916146f0565b9250612a676040518060200160405280888152506040518060200160405280888152506146f0565b9150612a738383614738565b9050612a7f818b614195565b600099509750505050505050505b935093915050565b600a54600090600160b81b900460ff1615612ae45760405162461bcd60e51b815260206004820152600f60248201526e1cd95a5e99481a5cc81c185d5cd959608a1b6044820152606401610cdd565b6001600160a01b03861660009081526009602052604090205460ff161580612b2557506001600160a01b03851660009081526009602052604090205460ff16155b15612b31576009611ba4565b846001600160a01b0316635fe3b5676040518163ffffffff1660e01b8152600401602060405180830381865afa158015612b6f573d6000803e3d6000fd5b505050506040513d601f19601f82011682018060405250810190612b939190615294565b6001600160a01b0316866001600160a01b0316635fe3b5676040518163ffffffff1660e01b8152600401602060405180830381865afa158015612bda573d6000803e3d6000fd5b505050506040513d601f19601f82011682018060405250810190612bfe9190615294565b6001600160a01b031614612c13576002611ba4565b612c1c86613de6565b612c268684613f5e565b612c308685613f5e565b60009695505050505050565b6001600160a01b0383166000908152600c602052604081205460ff1615612c985760405162461bcd60e51b815260206004820152601060248201526f189bdc9c9bddc81a5cc81c185d5cd95960821b6044820152606401610cdd565b6001600160a01b03841660009081526009602052604090205460ff16612cbf57600961183d565b6001600160a01b038085166000908152600960209081526040808320938716835260029093019052205460ff16612dbc57336001600160a01b03851614612d405760405162461bcd60e51b815260206004820152601560248201527439b2b73232b91036bab9ba1031329031aa37b5b2b760591b6044820152606401610cdd565b6000612d4c33856145fc565b90506000816011811115612d6257612d626152ca565b14612d8157806011811115612d7957612d796152ca565b915050611585565b6001600160a01b038086166000908152600960209081526040808320938816835260029093019052205460ff16612dba57612dba6152fd565b505b6004805460405163fc57d4df60e01b81526001600160a01b038781169382019390935291169063fc57d4df90602401602060405180830381865afa158015612e08573d6000803e3d6000fd5b505050506040513d601f19601f82011682018060405250810190612e2c91906152b1565b600003612e3a57600d61183d565b6001600160a01b0384166000908152601660205260409020548015612f1f576000856001600160a01b03166347bd37186040518163ffffffff1660e01b8152600401602060405180830381865afa158015612e99573d6000803e3d6000fd5b505050506040513d601f19601f82011682018060405250810190612ebd91906152b1565b90506000612ecb82866135dd565b9050828110612f1c5760405162461bcd60e51b815260206004820152601960248201527f6d61726b657420626f72726f77206361702072656163686564000000000000006044820152606401610cdd565b50505b600080612f2f8688600088613ab6565b91935090915060009050826011811115612f4b57612f4b6152ca565b14612f6c57816011811115612f6257612f626152ca565b9350505050611585565b8015612f79576004612f62565b60006040518060200160405280896001600160a01b031663aa5af0fd6040518163ffffffff1660e01b8152600401602060405180830381865afa158015612fc4573d6000803e3d6000fd5b505050506040513d601f19601f82011682018060405250810190612fe891906152b1565b90529050612ff688826135f5565b6130018888836137e8565b600098975050505050505050565b6008602052816000526040600020818154811061302b57600080fd5b6000918252602090912001546001600160a01b03169150829050565b600080546001600160a01b0316331461306d57613066600160066140fc565b9050611059565b6001600160a01b0383166000908152600960205260409020805460ff166130a25761309a600960076140fc565b915050611059565b60408051602080820183528582528251908101909252670c7d713b49da00008252906130d081835190511090565b156130eb576130e1600660086140fc565b9350505050611059565b841580159061316757506004805460405163fc57d4df60e01b81526001600160a01b038981169382019390935291169063fc57d4df90602401602060405180830381865afa158015613141573d6000803e3d6000fd5b505050506040513d601f19601f8201168201806040525081019061316591906152b1565b155b15613178576130e1600d60096140fc565b60018301805490869055604080516001600160a01b0389168152602081018390529081018790527f70483e6592cd5182d45ac970e05bc62cdcc90e9d8ef2c2dbe686cf383bcd7fc59060600160405180910390a16000979650505050505050565b61123d81600d80548060200260200160405190810160405280929190818152602001828054801561323357602002820191906000526020600020905b81546001600160a01b03168152600190910190602001808311613215575b505050505061105f565b60008061324b858585614544565b9050801561325a579050611585565b61326385613de6565b61326d8585613f5e565b600095945050505050565b6040516361bfb47160e11b815233600482015260009082908290819081906001600160a01b0385169063c37f68e290602401608060405180830381865afa1580156132c7573d6000803e3d6000fd5b505050506040513d601f19601f820116820180604052508101906132eb9190615313565b50925092509250826000146133505760405162461bcd60e51b815260206004820152602560248201527f657869744d61726b65743a206765744163636f756e74536e617073686f742066604482015264185a5b195960da1b6064820152608401610cdd565b801561336c57613362600c60026140fc565b9695505050505050565b6000613379873385614544565b905080156133995761338e600e600383614772565b979650505050505050565b6001600160a01b0385166000908152600960209081526040808320338452600281019092529091205460ff166133d757600098975050505050505050565b3360009081526002820160209081526040808320805460ff19169055600882528083208054825181850281018501909352808352919290919083018282801561344957602002820191906000526020600020905b81546001600160a01b0316815260019091019060200180831161342b575b5050835193945083925060009150505b828110156134ad57896001600160a01b031684828151811061347d5761347d61517d565b60200260200101516001600160a01b03160361349b578091506134ad565b806134a5816151bc565b915050613459565b508181106134bd576134bd6152fd565b336000908152600860205260409020805481906134dc906001906151a9565b815481106134ec576134ec61517d565b9060005260206000200160009054906101000a90046001600160a01b031681838154811061351c5761351c61517d565b9060005260206000200160006101000a8154816001600160a01b0302191690836001600160a01b031602179055508080548061355a5761355a615349565b600082815260209020810160001990810180546001600160a01b03191690550190556040517fe699a64c18b07ac5b7301aa273f36a2287239eb9501d81950672794afba29a0d906135c3908c9033906001600160a01b0392831681529116602082015260400190565b60405180910390a160009c9b505050505050505050505050565b6000611585828461535f565b600061158582846151a9565b6001600160a01b03821660009081526011602090815260408083206019909252822054909161365a435b6040518060400160405280601c81526020017f626c6f636b206e756d62657220657863656564732033322062697473000000008152506147ea565b835490915060009061367c9063ffffffff80851691600160e01b9004166135e9565b905060008111801561368e5750600083115b156137bd576000613700876001600160a01b03166347bd37186040518163ffffffff1660e01b8152600401602060405180830381865afa1580156136d6573d6000803e3d6000fd5b505050506040513d601f19601f820116820180604052508101906136fa91906152b1565b8761481a565b9050600061370e83866141ad565b9050600080831161372e5760405180602001604052806000815250613738565b6137388284614838565b604080516020810190915288546001600160e01b0316815290915061379b906137619083614873565b5160408051808201909152601a81527f6e657720696e6465782065786365656473203232342062697473000000000000602082015261489f565b6001600160e01b0316600160e01b63ffffffff8716021787555061063c915050565b801561063c57835463ffffffff8316600160e01b026001600160e01b03909116178455505050505050565b6001600160a01b03838116600090815260116020908152604080832080546013845282852095881685529490925290912080546001600160e01b039093169081905590918015801561384857506a0c097ce7bc90715b34b9f160241b8210155b1561385e57506a0c097ce7bc90715b34b9f160241b5b6000604051806020016040528061387585856135e9565b90526040516395dd919360e01b81526001600160a01b0388811660048301529192506000916138c891908a16906395dd919390602401602060405180830381865afa1580156136d6573d6000803e3d6000fd5b905060006138d682846148c6565b6001600160a01b038916600090815260146020526040812054919250906138fd90836135dd565b6001600160a01b038a811660008181526014602090815260409182902085905581518781529081018b90529394509092918d16917f1fc3ecc087d8d2d15e23d0032af5a47059c3892d003d8e139fdcb6bb327c99a6910160405180910390a350505050505050505050565b600080546001600160a01b031633148061398c57506002546001600160a01b031633145b905090565b60008073c00e94cb662c3520282e6f5717214004a7f268886040516370a0823160e01b81523060048201529091506000906001600160a01b038316906370a0823190602401602060405180830381865afa1580156139f3573d6000803e3d6000fd5b505050506040513d601f19601f82011682018060405250810190613a1791906152b1565b9050600084118015613a295750808411155b15613aad5760405163a9059cbb60e01b81526001600160a01b0386811660048301526024820186905283169063a9059cbb906044016020604051808303816000875af1158015613a7d573d6000803e3d6000fd5b505050506040513d601f19601f82011682018060405250810190613aa191906152e0565b50600092505050611059565b50919392505050565b6000806000613ac361495c565b6001600160a01b038816600090815260086020908152604080832080548251818502810185019093528083528493830182828015613b2a57602002820191906000526020600020905b81546001600160a01b03168152600190910190602001808311613b0c575b5050505050905060005b8151811015613d90576000828281518110613b5157613b5161517d565b60209081029190910101516040516361bfb47160e11b81526001600160a01b038e811660048301529192509082169063c37f68e290602401608060405180830381865afa158015613ba6573d6000803e3d6000fd5b505050506040513d601f19601f82011682018060405250810190613bca9190615313565b60808901526060880152604087015293508315613bf657600f60008097509750975050505050506117b6565b60408051602080820183526001600160a01b0384811660008181526009845285902060010154845260c08a01939093528351808301855260808a0151815260e08a015260048054855163fc57d4df60e01b815291820194909452935192169263fc57d4df92602480830193928290030181865afa158015613c7b573d6000803e3d6000fd5b505050506040513d601f19601f82011682018060405250810190613c9f91906152b1565b60a08601819052600003613cc257600d60008097509750975050505050506117b6565b604080516020810190915260a0860151815261010086015260c085015160e0860151613cfc91613cf1916146f0565b8661010001516146f0565b610120860181905260408601518651613d169291906148ef565b855261010085015160608601516020870151613d339291906148ef565b60208601526001600160a01b03808c1690821603613d7d57613d5f8561012001518b87602001516148ef565b60208601819052610100860151613d77918b906148ef565b60208601525b5080613d88816151bc565b915050613b34565b50602083015183511115613dc15760208301518351600091613db1916151a9565b60009550955095505050506117b6565b60008084600001518560200151613dd891906151a9565b9550955095505050506117b6565b6001600160a01b0381166000908152601060209081526040808320601a9092528220549091613e144361361f565b8354909150600090613e369063ffffffff80851691600160e01b9004166135e9565b9050600081118015613e485750600083115b15613f34576000856001600160a01b03166318160ddd6040518163ffffffff1660e01b8152600401602060405180830381865afa158015613e8d573d6000803e3d6000fd5b505050506040513d601f19601f82011682018060405250810190613eb191906152b1565b90506000613ebf83866141ad565b90506000808311613edf5760405180602001604052806000815250613ee9565b613ee98284614838565b604080516020810190915288546001600160e01b03168152909150613f12906137619083614873565b6001600160e01b0316600160e01b63ffffffff87160217875550610536915050565b801561053657835463ffffffff8316600160e01b026001600160e01b039091161784555050505050565b6001600160a01b03828116600090815260106020908152604080832080546012845282852095871685529490925290912080546001600160e01b0390931690819055909180158015613fbe57506a0c097ce7bc90715b34b9f160241b8210155b15613fd457506a0c097ce7bc90715b34b9f160241b5b60006040518060200160405280613feb85856135e9565b90526040516370a0823160e01b81526001600160a01b0387811660048301529192506000918816906370a0823190602401602060405180830381865afa158015614039573d6000803e3d6000fd5b505050506040513d601f19601f8201168201806040525081019061405d91906152b1565b9050600061406b82846148c6565b6001600160a01b0388166000908152601460205260408120549192509061409290836135dd565b6001600160a01b0389811660008181526014602090815260409182902085905581518781529081018b90529394509092918c16917f2caecd17d02f56fa897705dcc740da2d237c373f70686f4e0d9bd3bf0400ea7a910160405180910390a3505050505050505050565b60007f45b96fe442630264581b197e84bbada861235052c5a1aadfff9ea4e40a969aa0836011811115614131576141316152ca565b836013811115614143576141436152ca565b60408051928352602083019190915260009082015260600160405180910390a1826011811115611585576115856152ca565b6000806000614188846000806000613ab6565b9250925092509193909250565b6000806141a28484614910565b90506112f681614938565b60006115858284615372565b60005b600d5481101561424e57816001600160a01b0316600d82815481106141e3576141e361517d565b6000918252602090912001546001600160a01b03160361423c5760405162461bcd60e51b81526020600482015260146024820152731b585c9ad95d08185b1c9958591e48185919195960621b6044820152606401610cdd565b80614246816151bc565b9150506141bc565b50600d80546001810182556000919091527fd7b6990105719101dabeb77144f2a3385c8033acd3af97e9423a695e81ad1eb50180546001600160a01b0319166001600160a01b0392909216919091179055565b60006142ac4361361f565b6001600160a01b0383166000908152601060209081526040808320601190925282208154939450909290916001600160e01b0390911690036143075781546001600160e01b0319166a0c097ce7bc90715b34b9f160241b1782555b80546001600160e01b03166000036143385780546001600160e01b0319166a0c097ce7bc90715b34b9f160241b1781555b805463ffffffff909316600160e01b026001600160e01b0393841681179091558154909216909117905550565b6001600160a01b0383166000908152600960205260409020805460ff166143ce5760405162461bcd60e51b815260206004820152601960248201527f636f6d70206d61726b6574206973206e6f74206c6973746564000000000000006044820152606401610cdd565b6001600160a01b0384166000908152601a6020526040902054831461444c576143f684613de6565b6001600160a01b0384166000818152601a602052604090819020859055517fdeafccd0c0b768b2529f7dcbbe58e155d6023059150b7490ed4535cc3744b92d906144439086815260200190565b60405180910390a25b6001600160a01b03841660009081526019602052604090205482146106225760006040518060200160405280866001600160a01b031663aa5af0fd6040518163ffffffff1660e01b8152600401602060405180830381865afa1580156144b6573d6000803e3d6000fd5b505050506040513d601f19601f820116820180604052508101906144da91906152b1565b905290506144e885826135f5565b6001600160a01b03851660008181526019602052604090819020859055517f20af8e791cc98f74b2d7a391c80980ca8e5aebf3d4060bf581997b6acae2e537906145359086815260200190565b60405180910390a25050505050565b6001600160a01b03831660009081526009602052604081205460ff1661456b57600961183d565b6001600160a01b038085166000908152600960209081526040808320938716835260029093019052205460ff166145a357600061183d565b6000806145b38587866000613ab6565b919350909150600090508260118111156145cf576145cf6152ca565b146145ef578160118111156145e6576145e66152ca565b92505050611585565b8015612c305760046145e6565b6001600160a01b0382166000908152600960205260408120805460ff16614627576009915050611059565b6001600160a01b038316600090815260028201602052604090205460ff161515600103614658576000915050611059565b6001600160a01b03838116600081815260028401602090815260408083208054600160ff199091168117909155600883528184208054918201815584529282902090920180546001600160a01b031916948916948517905581519384528301919091527f3ab23ab0d51cccc0c3085aec51f99228625aa1a922b3a8ca89a26b0f2027a1a5910160405180910390a15060009392505050565b6040805160208101909152600081526040518060200160405280670de0b6b3a7640000614725866000015186600001516141ad565b61472f9190615389565b90529392505050565b604080516020810190915260008152604051806020016040528061472f61476b8660000151670de0b6b3a76400006141ad565b8551614950565b60007f45b96fe442630264581b197e84bbada861235052c5a1aadfff9ea4e40a969aa08460118111156147a7576147a76152ca565b8460138111156147b9576147b96152ca565b604080519283526020830191909152810184905260600160405180910390a18360118111156112f6576112f66152ca565b60008164010000000084106148125760405162461bcd60e51b8152600401610cdd91906153ab565b509192915050565b600061158561483184670de0b6b3a76400006141ad565b8351614950565b604080516020810190915260008152604051806020016040528061472f61486d866a0c097ce7bc90715b34b9f160241b6141ad565b85614950565b604080516020810190915260008152604051806020016040528061472f856000015185600001516135dd565b600081600160e01b84106148125760405162461bcd60e51b8152600401610cdd91906153ab565b60006a0c097ce7bc90715b34b9f160241b6148e58484600001516141ad565b6115859190615389565b6000806148fc8585614910565b9050611d2461490a82614938565b846135dd565b604080516020810190915260008152604051806020016040528061472f8560000151856141ad565b805160009061105990670de0b6b3a764000090615389565b60006115858284615389565b6040518061014001604052806000815260200160008152602001600081526020016000815260200160008152602001600081526020016149a86040518060200160405280600081525090565b81526020016149c36040518060200160405280600081525090565b81526020016149de6040518060200160405280600081525090565b81526020016149f96040518060200160405280600081525090565b905290565b60008083601f840112614a1057600080fd5b50813567ffffffffffffffff811115614a2857600080fd5b6020830191508360208260051b8501011115614a4357600080fd5b9250929050565b60008060008060408587031215614a6057600080fd5b843567ffffffffffffffff80821115614a7857600080fd5b614a84888389016149fe565b90965094506020870135915080821115614a9d57600080fd5b50614aaa878288016149fe565b95989497509550505050565b6001600160a01b038116811461123d57600080fd5b801515811461123d57600080fd5b60008060408385031215614aec57600080fd5b8235614af781614ab6565b91506020830135614b0781614acb565b809150509250929050565b634e487b7160e01b600052604160045260246000fd5b604051601f8201601f1916810167ffffffffffffffff81118282101715614b5157614b51614b12565b604052919050565b600067ffffffffffffffff821115614b7357614b73614b12565b5060051b60200190565b600082601f830112614b8e57600080fd5b81356020614ba3614b9e83614b59565b614b28565b82815260059290921b84018101918181019086841115614bc257600080fd5b8286015b84811015614be6578035614bd981614ab6565b8352918301918301614bc6565b509695505050505050565b60008060408385031215614c0457600080fd5b8235614c0f81614ab6565b9150602083013567ffffffffffffffff811115614c2b57600080fd5b614c3785828601614b7d565b9150509250929050565b600060208284031215614c5357600080fd5b813561158581614ab6565b600080600080600060a08688031215614c7657600080fd5b8535614c8181614ab6565b94506020860135614c9181614ab6565b93506040860135614ca181614ab6565b94979396509394606081013594506080013592915050565b60008060008060808587031215614ccf57600080fd5b8435614cda81614ab6565b93506020850135614cea81614ab6565b92506040850135614cfa81614ab6565b9396929550929360600135925050565b60008060408385031215614d1d57600080fd5b8235614d2881614ab6565b946020939093013593505050565b600060208284031215614d4857600080fd5b813561158581614acb565b600060208284031215614d6557600080fd5b5035919050565b60008060008060808587031215614d8257600080fd5b8435614d8d81614ab6565b93506020850135614d9d81614ab6565b93969395505050506040820135916060013590565b60008060008060008060c08789031215614dcb57600080fd5b8635614dd681614ab6565b95506020870135614de681614ab6565b94506040870135614df681614ab6565b93506060870135614e0681614ab6565b9598949750929560808101359460a0909101359350915050565b600080600060608486031215614e3557600080fd5b8335614e4081614ab6565b92506020840135614e5081614ab6565b929592945050506040919091013590565b600080600080600060a08688031215614e7957600080fd5b8535614e8481614ab6565b94506020860135614e9481614ab6565b93506040860135614ea481614ab6565b92506060860135614eb481614ab6565b949793965091946080013592915050565b600082601f830112614ed657600080fd5b81356020614ee6614b9e83614b59565b82815260059290921b84018101918181019086841115614f0557600080fd5b8286015b84811015614be6578035614f1c81614ab6565b8352918301918301614f09565b60008060008060808587031215614f3f57600080fd5b843567ffffffffffffffff80821115614f5757600080fd5b614f6388838901614ec5565b95506020870135915080821115614f7957600080fd5b50614f8687828801614b7d565b9350506040850135614f9781614acb565b91506060850135614fa781614acb565b939692955090935050565b60008060408385031215614fc557600080fd5b8235614fd081614ab6565b91506020830135614b0781614ab6565b600082601f830112614ff157600080fd5b81356020615001614b9e83614b59565b82815260059290921b8401810191818101908684111561502057600080fd5b8286015b84811015614be65780358352918301918301615024565b60008060006060848603121561505057600080fd5b833567ffffffffffffffff8082111561506857600080fd5b61507487838801614b7d565b9450602086013591508082111561508a57600080fd5b61509687838801614fe0565b935060408601359150808211156150ac57600080fd5b506150b986828701614fe0565b9150509250925092565b6020808252825182820181905260009190848201906040850190845b818110156151045783516001600160a01b0316835292840192918401916001016150df565b50909695505050505050565b60006020828403121561512257600080fd5b813567ffffffffffffffff81111561513957600080fd5b6112f684828501614ec5565b6020808252825182820181905260009190848201906040850190845b8181101561510457835183529284019291840191600101615161565b634e487b7160e01b600052603260045260246000fd5b634e487b7160e01b600052601160045260246000fd5b8181038181111561105957611059615193565b6000600182016151ce576151ce615193565b5060010190565b60208082526028908201527f63616e6e6f742070617573652061206d61726b65742074686174206973206e6f6040820152671d081b1a5cdd195960c21b606082015260800190565b60208082526027908201527f6f6e6c7920706175736520677561726469616e20616e642061646d696e2063616040820152666e20706175736560c81b606082015260800190565b6020808252601690820152756f6e6c792061646d696e2063616e20756e706175736560501b604082015260600190565b6000602082840312156152a657600080fd5b815161158581614ab6565b6000602082840312156152c357600080fd5b5051919050565b634e487b7160e01b600052602160045260246000fd5b6000602082840312156152f257600080fd5b815161158581614acb565b634e487b7160e01b600052600160045260246000fd5b6000806000806080858703121561532957600080fd5b505082516020840151604085015160609095015191969095509092509050565b634e487b7160e01b600052603160045260246000fd5b8082018082111561105957611059615193565b808202811582820484141761105957611059615193565b6000826153a657634e487b7160e01b600052601260045260246000fd5b500490565b600060208083528351808285015260005b818110156153d8578581018301518582016040015282016153bc565b506000604082860101526040601f19601f830116850101925050509291505056fea26469706673582212202060c6739240811b1ef6a682a768c3518f984b9013c3dad7b60659dec0a7f28464736f6c63430008150033",
    "linkReferences": {}
  },
  "methodIdentifiers": {
    "_become(address)": "1d504dc6",
    "_borrowGuardianPaused()": "e6653f3d",
    "_grantComp(address,uint256)": "27efe3cb",
    "_mintGuardianPaused()": "3c94786f",
    "_setBorrowCapGuardian(address)": "391957d7",
    "_setBorrowPaused(address,bool)": "18c882a5",
    "_setCloseFactor(uint256)": "317b0b77",
    "_setCollateralFactor(address,uint256)": "e4028eee",
    "_setCompSpeeds(address[],uint256[],uint256[])": "a8b43948",
    "_setContributorCompSpeed(address,uint256)": "598ee1cb",
    "_setLiquidationIncentive(uint256)": "4fd42e17",
    "_setMarketBorrowCaps(address[],uint256[])": "607ef6c1",
    "_setMintPaused(address,bool)": "3bcf7ec1",
    "_setPauseGuardian(address)": "5f5af1aa",
    "_setPriceOracle(address)": "55ee1fe1",
    "_setSeizePaused(bool)": "2d70db78",
    "_setTransferPaused(bool)": "8ebf6364",
    "_supportMarket(address)": "a76b3fda",
    "accountAssets(address,uint256)": "dce15449",
    "admin()": "f851a440",
    "allMarkets(uint256)": "52d84d1e",
    "borrowAllowed(address,address,uint256)": "da3d454c",
    "borrowCapGuardian()": "21af4569",
    "borrowCaps(address)": "4a584432",
    "borrowGuardianPaused(address)": "6d154ea5",
    "borrowVerify(address,address,uint256)": "5c778605",
    "checkMembership(address,address)": "929fe9a1",
    "claimComp(address)": "e9af0292",
    "claimComp(address,address[])": "1c3db2e0",
    "claimComp(address[],address[],bool,bool)": "6810dfa6",
    "closeFactorMantissa()": "e8755446",
    "compAccrued(address)": "cc7ebdc4",
    "compBorrowSpeeds(address)": "f4a433c0",
    "compBorrowState(address)": "8c57804e",
    "compBorrowerIndex(address,address)": "ca0af043",
    "compContributorSpeeds(address)": "986ab838",
    "compInitialIndex()": "a7f0e231",
    "compRate()": "aa900754",
    "compReceivable(address)": "85b7beb8",
    "compSpeeds(address)": "1d7b33d7",
    "compSupplierIndex(address,address)": "b21be7fd",
    "compSupplySpeeds(address)": "6aa875b5",
    "compSupplyState(address)": "6b79c38d",
    "comptrollerImplementation()": "bb82aa5e",
    "enterMarkets(address[])": "c2998238",
    "exitMarket(address)": "ede4edd0",
    "fixBadAccruals(address[],uint256[])": "16b95e8f",
    "getAccountLiquidity(address)": "5ec88c79",
    "getAllMarkets()": "b0772d0b",
    "getAssetsIn(address)": "abfceffc",
    "getBlockNumber()": "42cbb15c",
    "getCompAddress()": "9d1b5a0a",
    "getHypotheticalAccountLiquidity(address,address,uint256,uint256)": "4e79238f",
    "isComptroller()": "007e3dd2",
    "isDeprecated(address)": "94543c15",
    "lastContributorBlock(address)": "bea6b8b8",
    "liquidateBorrowAllowed(address,address,address,address,uint256)": "5fc7e71e",
    "liquidateBorrowVerify(address,address,address,address,uint256,uint256)": "47ef3b3b",
    "liquidateCalculateSeizeTokens(address,address,uint256)": "c488847b",
    "liquidationIncentiveMantissa()": "4ada90af",
    "markets(address)": "8e8f294b",
    "maxAssets()": "94b2294b",
    "mintAllowed(address,address,uint256)": "4ef4c3e1",
    "mintGuardianPaused(address)": "731f0c2b",
    "mintVerify(address,address,uint256,uint256)": "41c728b9",
    "oracle()": "7dc0d1d0",
    "pauseGuardian()": "24a3d622",
    "pendingAdmin()": "26782247",
    "pendingComptrollerImplementation()": "dcfbc0c7",
    "proposal65FixExecuted()": "f00a7a92",
    "redeemAllowed(address,address,uint256)": "eabe7d91",
    "redeemVerify(address,address,uint256,uint256)": "51dff989",
    "repayBorrowAllowed(address,address,address,uint256)": "24008a62",
    "repayBorrowVerify(address,address,address,uint256,uint256)": "1ededc91",
    "seizeAllowed(address,address,address,address,uint256)": "d02f7351",
    "seizeGuardianPaused()": "ac0b0bb7",
    "seizeVerify(address,address,address,address,uint256)": "6d35bf91",
    "transferAllowed(address,address,address,uint256)": "bdcdc258",
    "transferGuardianPaused()": "87f76303",
    "transferVerify(address,address,address,uint256)": "6a56947e",
    "updateContributorRewards(address)": "741b2525"
  },
  "id": 5
}