{
  "abi": [
    {
      "inputs": [],
      "stateMutability": "nonpayable",
      "type": "constructor"
    },
    {
      "inputs": [],
      "name": "AcceptAdminPendingAdminCheck",
      "type": "error"
    },
    {
      "inputs": [
        {
          "internalType": "uint256",
          "name": "actualAddAmount",
          "type": "uint256"
        }
      ],
      "name": "AddReservesFactorFreshCheck",
      "type": "error"
    },
    {
      "inputs": [],
      "name": "BorrowCashNotAvailable",
      "type": "error"
    },
    {
      "inputs": [
        {
          "internalType": "uint256",
          "name": "errorCode",
          "type": "uint256"
        }
      ],
      "name": "BorrowComptrollerRejection",
      "type": "error"
    },
    {
      "inputs": [],
      "name": "BorrowFreshnessCheck",
      "type": "error"
    },
    {
      "inputs": [
        {
          "internalType": "uint256",
          "name": "errorCode",
          "type": "uint256"
        }
      ],
      "name": "LiquidateAccrueBorrowInterestFailed",
      "type": "error"
    },
    {
      "inputs": [
        {
          "internalType": "uint256",
          "name": "errorCode",
          "type": "uint256"
        }
      ],
      "name": "LiquidateAccrueCollateralInterestFailed",
      "type": "error"
    },
    {
      "inputs": [],
      "name": "LiquidateCloseAmountIsUintMax",
      "type": "error"
    },
    {
      "inputs": [],
      "name": "LiquidateCloseAmountIsZero",
      "type": "error"
    },
    {
      "inputs": [],
      "name": "LiquidateCollateralFreshnessCheck",
      "type": "error"
    },
    {
      "inputs": [
        {
          "internalType": "uint256",
          "name": "errorCode",
          "type": "uint256"
        }
      ],
      "name": "LiquidateComptrollerRejection",
      "type": "error"
    },
    {
      "inputs": [],
      "name": "LiquidateFreshnessCheck",
      "type": "error"
    },
    {
      "inputs": [],
      "name": "LiquidateLiquidatorIsBorrower",
      "type": "error"
    },
    {
      "inputs": [
        {
          "internalType": "uint256",
          "name": "errorCode",
          "type": "uint256"
        }
      ],
      "name": "LiquidateRepayBorrowFreshFailed",
      "type": "error"
    },
    {
      "inputs": [
        {
          "internalType": "uint256",
          "name": "errorCode",
          "type": "uint256"
        }
      ],
      "name": "LiquidateSeizeComptrollerRejection",
      "type": "error"
    },
    {
      "inputs": [],
      "name": "LiquidateSeizeLiquidatorIsBorrower",
      "type": "error"
    },
    {
      "inputs": [
        {
          "internalType": "uint256",
          "name": "errorCode",
          "type": "uint256"
        }
      ],
      "name": "MintComptrollerRejection",
      "type": "error"
    },
    {
      "inputs": [],
      "name": "MintFreshnessCheck",
      "type": "error"
    },
    {
      "inputs": [
        {
          "internalType": "uint256",
          "name": "errorCode",
          "type": "uint256"
        }
      ],
      "name": "RedeemComptrollerRejection",
      "type": "error"
    },
    {
      "inputs": [],
      "name": "RedeemFreshnessCheck",
      "type": "error"
    },
    {
      "inputs": [],
      "name": "RedeemTransferOutNotPossible",
      "type": "error"
    },
    {
      "inputs": [],
      "name": "ReduceReservesAdminCheck",
      "type": "error"
    },
    {
      "inputs": [],
      "name": "ReduceReservesCashNotAvailable",
      "type": "error"
    },
    {
      "inputs": [],
      "name": "ReduceReservesCashValidation",
      "type": "error"
    },
    {
      "inputs": [],
      "name": "ReduceReservesFreshCheck",
      "type": "error"
    },
    {
      "inputs": [
        {
          "internalType": "uint256",
          "name": "errorCode",
          "type": "uint256"
        }
      ],
      "name": "RepayBorrowComptrollerRejection",
      "type": "error"
    },
    {
      "inputs": [],
      "name": "RepayBorrowFreshnessCheck",
      "type": "error"
    },
    {
      "inputs": [],
      "name": "SetComptrollerOwnerCheck",
      "type": "error"
    },
    {
      "inputs": [],
      "name": "SetInterestRateModelFreshCheck",
      "type": "error"
    },
    {
      "inputs": [],
      "name": "SetInterestRateModelOwnerCheck",
      "type": "error"
    },
    {
      "inputs": [],
      "name": "SetPendingAdminOwnerCheck",
      "type": "error"
    },
    {
      "inputs": [],
      "name": "SetReserveFactorAdminCheck",
      "type": "error"
    },
    {
      "inputs": [],
      "name": "SetReserveFactorBoundsCheck",
      "type": "error"
    },
    {
      "inputs": [],
      "name": "SetReserveFactorFreshCheck",
      "type": "error"
    },
    {
      "inputs": [
        {
          "internalType": "uint256",
          "name": "errorCode",
          "type": "uint256"
        }
      ],
      "name": "TransferComptrollerRejection",
      "type": "error"
    },
    {
      "inputs": [],
      "name": "TransferNotAllowed",
      "type": "error"
    },
    {
      "inputs": [],
      "name": "TransferNotEnough",
      "type": "error"
    },
    {
      "inputs": [],
      "name": "TransferTooMuch",
      "type": "error"
    },
    {
      "anonymous": false,
      "inputs": [
        {
          "indexed": false,
          "internalType": "uint256",
          "name": "cashPrior",
          "type": "uint256"
        },
        {
          "indexed": false,
          "internalType": "uint256",
          "name": "interestAccumulated",
          "type": "uint256"
        },
        {
          "indexed": false,
          "internalType": "uint256",
          "name": "borrowIndex",
          "type": "uint256"
        },
        {
          "indexed": false,
          "internalType": "uint256",
          "name": "totalBorrows",
          "type": "uint256"
        }
      ],
      "name": "AccrueInterest",
      "type": "event"
    },
    {
      "anonymous": false,
      "inputs": [
        {
          "indexed": true,
          "internalType": "address",
          "name": "owner",
          "type": "address"
        },
        {
          "indexed": true,
          "internalType": "address",
          "name": "spender",
          "type": "address"
        },
        {
          "indexed": false,
          "internalType": "uint256",
          "name": "amount",
          "type": "uint256"
        }
      ],
      "name": "Approval",
      "type": "event"
    },
    {
      "anonymous": false,
      "inputs": [
        {
          "indexed": false,
          "internalType": "address",
          "name": "borrower",
          "type": "address"
        },
        {
          "indexed": false,
          "internalType": "uint256",
          "name": "borrowAmount",
          "type": "uint256"
        },
        {
          "indexed": false,
          "internalType": "uint256",
          "name": "accountBorrows",
          "type": "uint256"
        },
        {
          "indexed": false,
          "internalType": "uint256",
          "name": "totalBorrows",
          "type": "uint256"
        }
      ],
      "name": "Borrow",
      "type": "event"
    },
    {
      "anonymous": false,
      "inputs": [
        {
          "indexed": false,
          "internalType": "address",
          "name": "liquidator",
          "type": "address"
        },
        {
          "indexed": false,
          "internalType": "address",
          "name": "borrower",
          "type": "address"
        },
        {
          "indexed": false,
          "internalType": "uint256",
          "name": "repayAmount",
          "type": "uint256"
        },
        {
          "indexed": false,
          "internalType": "address",
          "name": "cTokenCollateral",
          "type": "address"
        },
        {
          "indexed": false,
          "internalType": "uint256",
          "name": "seizeTokens",
          "type": "uint256"
        }
      ],
      "name": "LiquidateBorrow",
      "type": "event"
    },
    {
      "anonymous": false,
      "inputs": [
        {
          "indexed": false,
          "internalType": "address",
          "name": "minter",
          "type": "address"
        },
        {
          "indexed": false,
          "internalType": "uint256",
          "name": "mintAmount",
          "type": "uint256"
        },
        {
          "indexed": false,
          "internalType": "uint256",
          "name": "mintTokens",
          "type": "uint256"
        }
      ],
      "name": "Mint",
      "type": "event"
    },
    {
      "anonymous": false,
      "inputs": [
        {
          "indexed": false,
          "internalType": "address",
          "name": "oldAdmin",
          "type": "address"
        },
        {
          "indexed": false,
          "internalType": "address",
          "name": "newAdmin",
          "type": "address"
        }
      ],
      "name": "NewAdmin",
      "type": "event"
    },
    {
      "anonymous": false,
      "inputs": [
        {
          "indexed": false,
          "internalType": "contract ComptrollerInterface",
          "name": "oldComptroller",
          "type": "address"
        },
        {
          "indexed": false,
          "internalType": "contract ComptrollerInterface",
          "name": "newComptroller",
          "type": "address"
        }
      ],
      "name": "NewComptroller",
      "type": "event"
    },
    {
      "anonymous": false,
      "inputs": [
        {
          "indexed": false,
          "internalType": "contract InterestRateModel",
          "name": "oldInterestRateModel",
          "type": "address"
        },
        {
          "indexed": false,
          "internalType": "contract InterestRateModel",
          "name": "newInterestRateModel",
          "type": "address"
        }
      ],
      "name": "NewMarketInterestRateModel",
      "type": "event"
    },
    {
      "anonymous": false,
      "inputs": [
        {
          "indexed": false,
          "internalType": "address",
          "name": "oldPendingAdmin",
          "type": "address"
        },
        {
          "indexed": false,
          "internalType": "address",
          "name": "newPendingAdmin",
          "type": "address"
        }
      ],
      "name": "NewPendingAdmin",
      "type": "event"
    },
    {
      "anonymous": false,
      "inputs": [
        {
          "indexed": false,
          "internalType": "uint256",
          "name": "oldReserveFactorMantissa",
          "type": "uint256"
        },
        {
          "indexed": false,
          "internalType": "uint256",
          "name": "newReserveFactorMantissa",
          "type": "uint256"
        }
      ],
      "name": "NewReserveFactor",
      "type": "event"
    },
    {
      "anonymous": false,
      "inputs": [
        {
          "indexed": false,
          "internalType": "address",
          "name": "redeemer",
          "type": "address"
        },
        {
          "indexed": false,
          "internalType": "uint256",
          "name": "redeemAmount",
          "type": "uint256"
        },
        {
          "indexed": false,
          "internalType": "uint256",
          "name": "redeemTokens",
          "type": "uint256"
        }
      ],
      "name": "Redeem",
      "type": "event"
    },
    {
      "anonymous": false,
      "inputs": [
        {
          "indexed": false,
          "internalType": "address",
          "name": "payer",
          "type": "address"
        },
        {
          "indexed": false,
          "internalType": "address",
          "name": "borrower",
          "type": "address"
        },
        {
          "indexed": false,
          "internalType": "uint256",
          "name": "repayAmount",
          "type": "uint256"
        },
        {
          "indexed": false,
          "internalType": "uint256",
          "name": "accountBorrows",
          "type": "uint256"
        },
        {
          "indexed": false,
          "internalType": "uint256",
          "name": "totalBorrows",
          "type": "uint256"
        }
      ],
      "name": "RepayBorrow",
      "type": "event"
    },
    {
      "anonymous": false,
      "inputs": [
        {
          "indexed": false,
          "internalType": "address",
          "name": "benefactor",
          "type": "address"
        },
        {
          "indexed": false,
          "internalType": "uint256",
          "name": "addAmount",
          "type": "uint256"
        },
        {
          "indexed": false,
          "internalType": "uint256",
          "name": "newTotalReserves",
          "type": "uint256"
        }
      ],
      "name": "ReservesAdded",
      "type": "event"
    },
    {
      "anonymous": false,
      "inputs": [
        {
          "indexed": false,
          "internalType": "address",
          "name": "admin",
          "type": "address"
        },
        {
          "indexed": false,
          "internalType": "uint256",
          "name": "reduceAmount",
          "type": "uint256"
        },
        {
          "indexed": false,
          "internalType": "uint256",
          "name": "newTotalReserves",
          "type": "uint256"
        }
      ],
      "name": "ReservesReduced",
      "type": "event"
    },
    {
      "anonymous": false,
      "inputs": [
        {
          "indexed": true,
          "internalType": "address",
          "name": "from",
          "type": "address"
        },
        {
          "indexed": true,
          "internalType": "address",
          "name": "to",
          "type": "address"
        },
        {
          "indexed": false,
          "internalType": "uint256",
          "name": "amount",
          "type": "uint256"
        }
      ],
      "name": "Transfer",
      "type": "event"
    },
    {
      "inputs": [],
      "name": "NO_ERROR",
      "outputs": [
        {
          "internalType": "uint256",
          "name": "",
          "type": "uint256"
        }
      ],
      "stateMutability": "view",
      "type": "function"
    },
    {
      "inputs": [],
      "name": "_acceptAdmin",
      "outputs": [
        {
          "internalType": "uint256",
          "name": "",
          "type": "uint256"
        }
      ],
      "stateMutability": "nonpayable",
      "type": "function"
    },
    {
      "inputs": [
        {
          "internalType": "uint256",
          "name": "addAmount",
          "type": "uint256"
        }
      ],
      "name": "_addReserves",
      "outputs": [
        {
          "internalType": "uint256",
          "name": "",
          "type": "uint256"
        }
      ],
      "stateMutability": "nonpayable",
      "type": "function"
    },
    {
      "inputs": [
        {
          "internalType": "bytes",
          "name": "data",
          "type": "bytes"
        }
      ],
      "name": "_becomeImplementation",
      "outputs": [],
      "stateMutability": "nonpayable",
      "type": "function"
    },
    {
      "inputs": [
        {
          "internalType": "address",
          "name": "compLikeDelegatee",
          "type": "address"
        }
      ],
      "name": "_delegateCompLikeTo",
      "outputs": [],
      "stateMutability": "nonpayable",
      "type": "function"
    },
    {
      "inputs": [
        {
          "internalType": "uint256",
          "name": "reduceAmount",
          "type": "uint256"
        }
      ],
      "name": "_reduceReserves",
      "outputs": [
        {
          "internalType": "uint256",
          "name": "",
          "type": "uint256"
        }
      ],
      "stateMutability": "nonpayable",
      "type": "function"
    },
    {
      "inputs": [],
      "name": "_resignImplementation",
      "outputs": [],
      "stateMutability": "nonpayable",
      "type": "function"
    },
    {
      "inputs": [
        {
          "internalType": "contract ComptrollerInterface",
          "name": "newComptroller",
          "type": "address"
        }
      ],
      "name": "_setComptroller",
      "outputs": [
        {
          "internalType": "uint256",
          "name": "",
          "type": "uint256"
        }
      ],
      "stateMutability": "nonpayable",
      "type": "function"
    },
    {
      "inputs": [
        {
          "internalType": "contract InterestRateModel",
          "name": "newInterestRateModel",
          "type": "address"
        }
      ],
      "name": "_setInterestRateModel",
      "outputs": [
        {
          "internalType": "uint256",
          "name": "",
          "type": "uint256"
        }
      ],
      "stateMutability": "nonpayable",
      "type": "function"
    },
    {
      "inputs": [
        {
          "internalType": "address payable",
          "name": "newPendingAdmin",
          "type": "address"
        }
      ],
      "name": "_setPendingAdmin",
      "outputs": [
        {
          "internalType": "uint256",
          "name": "",
          "type": "uint256"
        }
      ],
      "stateMutability": "nonpayable",
      "type": "function"
    },
    {
      "inputs": [
        {
          "internalType": "uint256",
          "name": "newReserveFactorMantissa",
          "type": "uint256"
        }
      ],
      "name": "_setReserveFactor",
      "outputs": [
        {
          "internalType": "uint256",
          "name": "",
          "type": "uint256"
        }
      ],
      "stateMutability": "nonpayable",
      "type": "function"
    },
    {
      "inputs": [],
      "name": "accrualBlockNumber",
      "outputs": [
        {
          "internalType": "uint256",
          "name": "",
          "type": "uint256"
        }
      ],
      "stateMutability": "view",
      "type": "function"
    },
    {
      "inputs": [],
      "name": "accrueInterest",
      "outputs": [
        {
          "internalType": "uint256",
          "name": "",
          "type": "uint256"
        }
      ],
      "stateMutability": "nonpayable",
      "type": "function"
    },
    {
      "inputs": [],
      "name": "admin",
      "outputs": [
        {
          "internalType": "address payable",
          "name": "",
          "type": "address"
        }
      ],
      "stateMutability": "view",
      "type": "function"
    },
    {
      "inputs": [
        {
          "internalType": "address",
          "name": "owner",
          "type": "address"
        },
        {
          "internalType": "address",
          "name": "spender",
          "type": "address"
        }
      ],
      "name": "allowance",
      "outputs": [
        {
          "internalType": "uint256",
          "name": "",
          "type": "uint256"
        }
      ],
      "stateMutability": "view",
      "type": "function"
    },
    {
      "inputs": [
        {
          "internalType": "address",
          "name": "spender",
          "type": "address"
        },
        {
          "internalType": "uint256",
          "name": "amount",
          "type": "uint256"
        }
      ],
      "name": "approve",
      "outputs": [
        {
          "internalType": "bool",
          "name": "",
          "type": "bool"
        }
      ],
      "stateMutability": "nonpayable",
      "type": "function"
    },
    {
      "inputs": [
        {
          "internalType": "address",
          "name": "owner",
          "type": "address"
        }
      ],
      "name": "balanceOf",
      "outputs": [
        {
          "internalType": "uint256",
          "name": "",
          "type": "uint256"
        }
      ],
      "stateMutability": "view",
      "type": "function"
    },
    {
      "inputs": [
        {
          "internalType": "address",
          "name": "owner",
          "type": "address"
        }
      ],
      "name": "balanceOfUnderlying",
      "outputs": [
        {
          "internalType": "uint256",
          "name": "",
          "type": "uint256"
        }
      ],
      "stateMutability": "nonpayable",
      "type": "function"
    },
    {
      "inputs": [
        {
          "internalType": "uint256",
          "name": "borrowAmount",
          "type": "uint256"
        }
      ],
      "name": "borrow",
      "outputs": [
        {
          "internalType": "uint256",
          "name": "",
          "type": "uint256"
        }
      ],
      "stateMutability": "nonpayable",
      "type": "function"
    },
    {
      "inputs": [
        {
          "internalType": "address",
          "name": "account",
          "type": "address"
        }
      ],
      "name": "borrowBalanceCurrent",
      "outputs": [
        {
          "internalType": "uint256",
          "name": "",
          "type": "uint256"
        }
      ],
      "stateMutability": "nonpayable",
      "type": "function"
    },
    {
      "inputs": [
        {
          "internalType": "address",
          "name": "account",
          "type": "address"
        }
      ],
      "name": "borrowBalanceStored",
      "outputs": [
        {
          "internalType": "uint256",
          "name": "",
          "type": "uint256"
        }
      ],
      "stateMutability": "view",
      "type": "function"
    },
    {
      "inputs": [],
      "name": "borrowIndex",
      "outputs": [
        {
          "internalType": "uint256",
          "name": "",
          "type": "uint256"
        }
      ],
      "stateMutability": "view",
      "type": "function"
    },
    {
      "inputs": [],
      "name": "borrowRatePerBlock",
      "outputs": [
        {
          "internalType": "uint256",
          "name": "",
          "type": "uint256"
        }
      ],
      "stateMutability": "view",
      "type": "function"
    },
    {
      "inputs": [],
      "name": "comptroller",
      "outputs": [
        {
          "internalType": "contract ComptrollerInterface",
          "name": "",
          "type": "address"
        }
      ],
      "stateMutability": "view",
      "type": "function"
    },
    {
      "inputs": [],
      "name": "decimals",
      "outputs": [
        {
          "internalType": "uint8",
          "name": "",
          "type": "uint8"
        }
      ],
      "stateMutability": "view",
      "type": "function"
    },
    {
      "inputs": [],
      "name": "exchangeRateCurrent",
      "outputs": [
        {
          "internalType": "uint256",
          "name": "",
          "type": "uint256"
        }
      ],
      "stateMutability": "nonpayable",
      "type": "function"
    },
    {
      "inputs": [],
      "name": "exchangeRateStored",
      "outputs": [
        {
          "internalType": "uint256",
          "name": "",
          "type": "uint256"
        }
      ],
      "stateMutability": "view",
      "type": "function"
    },
    {
      "inputs": [
        {
          "internalType": "address",
          "name": "account",
          "type": "address"
        }
      ],
      "name": "getAccountSnapshot",
      "outputs": [
        {
          "internalType": "uint256",
          "name": "",
          "type": "uint256"
        },
        {
          "internalType": "uint256",
          "name": "",
          "type": "uint256"
        },
        {
          "internalType": "uint256",
          "name": "",
          "type": "uint256"
        },
        {
          "internalType": "uint256",
          "name": "",
          "type": "uint256"
        }
      ],
      "stateMutability": "view",
      "type": "function"
    },
    {
      "inputs": [],
      "name": "getCash",
      "outputs": [
        {
          "internalType": "uint256",
          "name": "",
          "type": "uint256"
        }
      ],
      "stateMutability": "view",
      "type": "function"
    },
    {
      "inputs": [],
      "name": "implementation",
      "outputs": [
        {
          "internalType": "address",
          "name": "",
          "type": "address"
        }
      ],
      "stateMutability": "view",
      "type": "function"
    },
    {
      "inputs": [
        {
          "internalType": "address",
          "name": "underlying_",
          "type": "address"
        },
        {
          "internalType": "contract ComptrollerInterface",
          "name": "comptroller_",
          "type": "address"
        },
        {
          "internalType": "contract InterestRateModel",
          "name": "interestRateModel_",
          "type": "address"
        },
        {
          "internalType": "uint256",
          "name": "initialExchangeRateMantissa_",
          "type": "uint256"
        },
        {
          "internalType": "string",
          "name": "name_",
          "type": "string"
        },
        {
          "internalType": "string",
          "name": "symbol_",
          "type": "string"
        },
        {
          "internalType": "uint8",
          "name": "decimals_",
          "type": "uint8"
        }
      ],
      "name": "initialize",
      "outputs": [],
      "stateMutability": "nonpayable",
      "type": "function"
    },
    {
      "inputs": [
        {
          "internalType": "contract ComptrollerInterface",
          "name": "comptroller_",
          "type": "address"
        },
        {
          "internalType": "contract InterestRateModel",
          "name": "interestRateModel_",
          "type": "address"
        },
        {
          "internalType": "uint256",
          "name": "initialExchangeRateMantissa_",
          "type": "uint256"
        },
        {
          "internalType": "string",
          "name": "name_",
          "type": "string"
        },
        {
          "internalType": "string",
          "name": "symbol_",
          "type": "string"
        },
        {
          "internalType": "uint8",
          "name": "decimals_",
          "type": "uint8"
        }
      ],
      "name": "initialize",
      "outputs": [],
      "stateMutability": "nonpayable",
      "type": "function"
    },
    {
      "inputs": [],
      "name": "interestRateModel",
      "outputs": [
        {
          "internalType": "contract InterestRateModel",
          "name": "",
          "type": "address"
        }
      ],
      "stateMutability": "view",
      "type": "function"
    },
    {
      "inputs": [],
      "name": "isCToken",
      "outputs": [
        {
          "internalType": "bool",
          "name": "",
          "type": "bool"
        }
      ],
      "stateMutability": "view",
      "type": "function"
    },
    {
      "inputs": [
        {
          "internalType": "address",
          "name": "borrower",
          "type": "address"
        },
        {
          "internalType": "uint256",
          "name": "repayAmount",
          "type": "uint256"
        },
        {
          "internalType": "contract CTokenInterface",
          "name": "cTokenCollateral",
          "type": "address"
        }
      ],
      "name": "liquidateBorrow",
      "outputs": [
        {
          "internalType": "uint256",
          "name": "",
          "type": "uint256"
        }
      ],
      "stateMutability": "nonpayable",
      "type": "function"
    },
    {
      "inputs": [
        {
          "internalType": "uint256",
          "name": "mintAmount",
          "type": "uint256"
        }
      ],
      "name": "mint",
      "outputs": [
        {
          "internalType": "uint256",
          "name": "",
          "type": "uint256"
        }
      ],
      "stateMutability": "nonpayable",
      "type": "function"
    },
    {
      "inputs": [],
      "name": "name",
      "outputs": [
        {
          "internalType": "string",
          "name": "",
          "type": "string"
        }
      ],
      "stateMutability": "view",
      "type": "function"
    },
    {
      "inputs": [],
      "name": "pendingAdmin",
      "outputs": [
        {
          "internalType": "address payable",
          "name": "",
          "type": "address"
        }
      ],
      "stateMutability": "view",
      "type": "function"
    },
    {
      "inputs": [],
      "name": "protocolSeizeShareMantissa",
      "outputs": [
        {
          "internalType": "uint256",
          "name": "",
          "type": "uint256"
        }
      ],
      "stateMutability": "view",
      "type": "function"
    },
    {
      "inputs": [
        {
          "internalType": "uint256",
          "name": "redeemTokens",
          "type": "uint256"
        }
      ],
      "name": "redeem",
      "outputs": [
        {
          "internalType": "uint256",
          "name": "",
          "type": "uint256"
        }
      ],
      "stateMutability": "nonpayable",
      "type": "function"
    },
    {
      "inputs": [
        {
          "internalType": "uint256",
          "name": "redeemAmount",
          "type": "uint256"
        }
      ],
      "name": "redeemUnderlying",
      "outputs": [
        {
          "internalType": "uint256",
          "name": "",
          "type": "uint256"
        }
      ],
      "stateMutability": "nonpayable",
      "type": "function"
    },
    {
      "inputs": [
        {
          "internalType": "uint256",
          "name": "repayAmount",
          "type": "uint256"
        }
      ],
      "name": "repayBorrow",
      "outputs": [
        {
          "internalType": "uint256",
          "name": "",
          "type": "uint256"
        }
      ],
      "stateMutability": "nonpayable",
      "type": "function"
    },
    {
      "inputs": [
        {
          "internalType": "address",
          "name": "borrower",
          "type": "address"
        },
        {
          "internalType": "uint256",
          "name": "repayAmount",
          "type": "uint256"
        }
      ],
      "name": "repayBorrowBehalf",
      "outputs": [
        {
          "internalType": "uint256",
          "name": "",
          "type": "uint256"
        }
      ],
      "stateMutability": "nonpayable",
      "type": "function"
    },
    {
      "inputs": [],
      "name": "reserveFactorMantissa",
      "outputs": [
        {
          "internalType": "uint256",
          "name": "",
          "type": "uint256"
        }
      ],
      "stateMutability": "view",
      "type": "function"
    },
    {
      "inputs": [
        {
          "internalType": "address",
          "name": "liquidator",
          "type": "address"
        },
        {
          "internalType": "address",
          "name": "borrower",
          "type": "address"
        },
        {
          "internalType": "uint256",
          "name": "seizeTokens",
          "type": "uint256"
        }
      ],
      "name": "seize",
      "outputs": [
        {
          "internalType": "uint256",
          "name": "",
          "type": "uint256"
        }
      ],
      "stateMutability": "nonpayable",
      "type": "function"
    },
    {
      "inputs": [],
      "name": "supplyRatePerBlock",
      "outputs": [
        {
          "internalType": "uint256",
          "name": "",
          "type": "uint256"
        }
      ],
      "stateMutability": "view",
      "type": "function"
    },
    {
      "inputs": [
        {
          "internalType": "contract EIP20NonStandardInterface",
          "name": "token",
          "type": "address"
        }
      ],
      "name": "sweepToken",
      "outputs": [],
      "stateMutability": "nonpayable",
      "type": "function"
    },
    {
      "inputs": [],
      "name": "symbol",
      "outputs": [
        {
          "internalType": "string",
          "name": "",
          "type": "string"
        }
      ],
      "stateMutability": "view",
      "type": "function"
    },
    {
      "inputs": [],
      "name": "totalBorrows",
      "outputs": [
        {
          "internalType": "uint256",
          "name": "",
          "type": "uint256"
        }
      ],
      "stateMutability": "view",
      "type": "function"
    },
    {
      "inputs": [],
      "name": "totalBorrowsCurrent",
      "outputs": [
        {
          "internalType": "uint256",
          "name": "",
          "type": "uint256"
        }
      ],
      "stateMutability": "nonpayable",
      "type": "function"
    },
    {
      "inputs": [],
      "name": "totalReserves",
      "outputs": [
        {
          "internalType": "uint256",
          "name": "",
          "type": "uint256"
        }
      ],
      "stateMutability": "view",
      "type": "function"
    },
    {
      "inputs": [],
      "name": "totalSupply",
      "outputs": [
        {
          "internalType": "uint256",
          "name": "",
          "type": "uint256"
        }
      ],
      "stateMutability": "view",
      "type": "function"
    },
    {
      "inputs": [
        {
          "internalType": "address",
          "name": "dst",
          "type": "address"
        },
        {
          "internalType": "uint256",
          "name": "amount",
          "type": "uint256"
        }
      ],
      "name": "transfer",
      "outputs": [
        {
          "internalType": "bool",
          "name": "",
          "type": "bool"
        }
      ],
      "stateMutability": "nonpayable",
      "type": "function"
    },
    {
      "inputs": [
        {
          "internalType": "address",
          "name": "src",
          "type": "address"
        },
        {
          "internalType": "address",
          "name": "dst",
          "type": "address"
        },
        {
          "internalType": "uint256",
          "name": "amount",
          "type": "uint256"
        }
      ],
      "name": "transferFrom",
      "outputs": [
        {
          "internalType": "bool",
          "name": "",
          "type": "bool"
        }
      ],
      "stateMutability": "nonpayable",
      "type": "function"
    },
    {
      "inputs": [],
      "name": "underlying",
      "outputs": [
        {
          "internalType": "address",
          "name": "",
          "type": "address"
        }
      ],
      "stateMutability": "view",
      "type": "function"
    }
  ],
  "bytecode": {
    "object": "0x608060405234801561001057600080fd5b50613bc3806100206000396000f3fe608060405234801561001057600080fd5b506004361061035d5760003560e01c806370a08231116101d3578063b71d1a0c11610104578063f2b3abbd116100a2578063f851a4401161007c578063f851a44014610727578063f8f9da281461073f578063fca7820b14610747578063fe9c44ae1461075a57600080fd5b8063f2b3abbd146106ee578063f3fdb15a14610701578063f5e3c4621461071457600080fd5b8063c5ebeaec116100de578063c5ebeaec14610687578063db006a751461069a578063dd62ed3e146106ad578063e9c714f2146106e657600080fd5b8063b71d1a0c14610639578063bd6d894d1461064c578063c37f68e21461065457600080fd5b806399d8c1b411610171578063a9059cbb1161014b578063a9059cbb14610602578063aa5af0fd14610615578063ae9d70b01461061e578063b2a02ff11461062657600080fd5b806399d8c1b4146105d4578063a0712d68146105e7578063a6afed95146105fa57600080fd5b8063852a12e3116101ad578063852a12e31461059d5780638f840ddd146105b057806395d89b41146105b957806395dd9193146105c157600080fd5b806370a082311461055957806373acee98146105825780637f1e06be1461058a57600080fd5b8063313ce567116102ad5780635c60da1b1161024b5780636752e702116102255780636752e7021461052757806369ab3250146105355780636c540baf1461053d5780636f307dc31461054657600080fd5b80635c60da1b146104ee5780635fe3b56714610501578063601a0bf11461051457600080fd5b80633e941010116102875780633e941010146104ac5780634576b5db146104bf57806347bd3718146104d257806356e67728146104db57600080fd5b8063313ce567146104725780633af9e669146104915780633b1d21a2146104a457600080fd5b806318160ddd1161031a5780631be19560116102f45780631be195601461040e57806323b872dd146104215780632608f81814610434578063267822471461044757600080fd5b806318160ddd146103ea578063182df0f5146103f35780631a31d465146103fb57600080fd5b806306fdde0314610362578063095ea7b3146103805780630e752702146103a3578063153ab505146103c4578063173b9904146103ce57806317bfdfbc146103d7575b600080fd5b61036a610762565b6040516103779190613507565b60405180910390f35b61039361038e36600461356a565b6107f0565b6040519015158152602001610377565b6103b66103b1366004613596565b610860565b604051908152602001610377565b6103cc610873565b005b6103b660085481565b6103b66103e53660046135af565b6108ef565b6103b6600d5481565b6103b6610942565b6103cc61040936600461368e565b610951565b6103cc61041c3660046135af565b6109e6565b61039361042f366004613744565b610bb2565b6103b661044236600461356a565b610c02565b60045461045a906001600160a01b031681565b6040516001600160a01b039091168152602001610377565b60035461047f9060ff1681565b60405160ff9091168152602001610377565b6103b661049f3660046135af565b610c17565b6103b6610c5d565b6103b66104ba366004613596565b610c67565b6103b66104cd3660046135af565b610c72565b6103b6600b5481565b6103cc6104e9366004613785565b610dc4565b60125461045a906001600160a01b031681565b60055461045a906001600160a01b031681565b6103b6610522366004613596565b610e3c565b6103b6666379da05b6000081565b6103b6600081565b6103b660095481565b60115461045a906001600160a01b031681565b6103b66105673660046135af565b6001600160a01b03166000908152600e602052604090205490565b6103b6610e7b565b6103cc6105983660046135af565b610ec5565b6103b66105ab366004613596565b610f9c565b6103b6600c5481565b61036a610fa7565b6103b66105cf3660046135af565b610fb4565b6103cc6105e23660046137ce565b610fbf565b6103b66105f5366004613596565b61120c565b6103b6611217565b61039361061036600461356a565b611404565b6103b6600a5481565b6103b6611453565b6103b6610634366004613744565b6114eb565b6103b66106473660046135af565b61153a565b6103b66115c7565b6106676106623660046135af565b611617565b604080519485526020850193909352918301526060820152608001610377565b6103b6610695366004613596565b611658565b6103b66106a8366004613596565b611663565b6103b66106bb366004613870565b6001600160a01b039182166000908152600f6020908152604080832093909416825291909152205490565b6103b661166e565b6103b66106fc3660046135af565b611775565b60065461045a906001600160a01b031681565b6103b66107223660046138a9565b611789565b60035461045a9061010090046001600160a01b031681565b6103b66117a0565b6103b6610755366004613596565b6117f3565b610393600181565b6001805461076f906138eb565b80601f016020809104026020016040519081016040528092919081815260200182805461079b906138eb565b80156107e85780601f106107bd576101008083540402835291602001916107e8565b820191906000526020600020905b8154815290600101906020018083116107cb57829003601f168201915b505050505081565b336000818152600f602090815260408083206001600160a01b03871680855292528083208590555191929182907f8c5be1e5ebec7d5bd14f71427d1e84f3dd0314c0f7b2291e5b200ac8c7c3b9259061084c9087815260200190565b60405180910390a360019150505b92915050565b600061086b82611832565b506000919050565b60035461010090046001600160a01b031633146108ed5760405162461bcd60e51b815260206004820152602d60248201527f6f6e6c79207468652061646d696e206d61792063616c6c205f72657369676e4960448201526c36b83632b6b2b73a30ba34b7b760991b60648201526084015b60405180910390fd5b565b6000805460ff166109125760405162461bcd60e51b81526004016108e490613925565b6000805460ff19169055610924611217565b5061092e82610fb4565b90506000805460ff19166001179055919050565b600061094c611883565b905090565b61095f868686868686610fbf565b601180546001600160a01b0319166001600160a01b038916908117909155604080516318160ddd60e01b815290516318160ddd916004808201926020929091908290030181865afa1580156109b8573d6000803e3d6000fd5b505050506040513d601f19601f820116820180604052508101906109dc9190613949565b5050505050505050565b60035461010090046001600160a01b03163314610a5d5760405162461bcd60e51b815260206004820152602f60248201527f4345726332303a3a7377656570546f6b656e3a206f6e6c792061646d696e206360448201526e616e20737765657020746f6b656e7360881b60648201526084016108e4565b6011546001600160a01b0390811690821603610ad65760405162461bcd60e51b815260206004820152603260248201527f4345726332303a3a7377656570546f6b656e3a2063616e206e6f74207377656560448201527138103ab73232b9363cb4b733903a37b5b2b760711b60648201526084016108e4565b6040516370a0823160e01b81523060048201526000906001600160a01b038316906370a0823190602401602060405180830381865afa158015610b1d573d6000803e3d6000fd5b505050506040513d601f19601f82011682018060405250810190610b419190613949565b60035460405163a9059cbb60e01b81526001600160a01b03610100909204821660048201526024810183905291925083169063a9059cbb90604401600060405180830381600087803b158015610b9657600080fd5b505af1158015610baa573d6000803e3d6000fd5b505050505050565b6000805460ff16610bd55760405162461bcd60e51b81526004016108e490613925565b6000805460ff19168155610beb338686866118eb565b1490506000805460ff191660011790559392505050565b6000610c0e8383611b17565b50600092915050565b6000806040518060200160405280610c2d6115c7565b90526001600160a01b0384166000908152600e6020526040902054909150610c56908290611b69565b9392505050565b600061094c611b89565b600061085a82611bfe565b60035460009061010090046001600160a01b03163314610ca55760405163d219dc1f60e01b815260040160405180910390fd5b60055460408051623f1ee960e11b815290516001600160a01b0392831692851691627e3dd29160048083019260209291908290030181865afa158015610cef573d6000803e3d6000fd5b505050506040513d601f19601f82011682018060405250810190610d139190613962565b610d5f5760405162461bcd60e51b815260206004820152601c60248201527f6d61726b6572206d6574686f642072657475726e65642066616c73650000000060448201526064016108e4565b600580546001600160a01b0319166001600160a01b0385811691821790925560408051928416835260208301919091527f7ac369dbd14fa5ea3f473ed67cc9d598964a77501540ba6751eb0b3decf5870d91015b60405180910390a150600092915050565b60035461010090046001600160a01b03163314610e395760405162461bcd60e51b815260206004820152602d60248201527f6f6e6c79207468652061646d696e206d61792063616c6c205f6265636f6d654960448201526c36b83632b6b2b73a30ba34b7b760991b60648201526084016108e4565b50565b6000805460ff16610e5f5760405162461bcd60e51b81526004016108e490613925565b6000805460ff19169055610e71611217565b5061092e82611c55565b6000805460ff16610e9e5760405162461bcd60e51b81526004016108e490613925565b6000805460ff19169055610eb0611217565b5050600b546000805460ff1916600117905590565b60035461010090046001600160a01b03163314610f3a5760405162461bcd60e51b815260206004820152602d60248201527f6f6e6c79207468652061646d696e206d6179207365742074686520636f6d702d60448201526c6c696b652064656c656761746560981b60648201526084016108e4565b6011546040516317066a5760e21b81526001600160a01b03838116600483015290911690635c19a95c90602401600060405180830381600087803b158015610f8157600080fd5b505af1158015610f95573d6000803e3d6000fd5b5050505050565b600061086b82611d70565b6002805461076f906138eb565b600061085a82611dc1565b60035461010090046001600160a01b0316331461102a5760405162461bcd60e51b8152602060048201526024808201527f6f6e6c792061646d696e206d617920696e697469616c697a6520746865206d616044820152631c9ad95d60e21b60648201526084016108e4565b60095415801561103a5750600a54155b6110925760405162461bcd60e51b815260206004820152602360248201527f6d61726b6574206d6179206f6e6c7920626520696e697469616c697a6564206f6044820152626e636560e81b60648201526084016108e4565b6007849055836110fd5760405162461bcd60e51b815260206004820152603060248201527f696e697469616c2065786368616e67652072617465206d75737420626520677260448201526f32b0ba32b9103a3430b7103d32b9379760811b60648201526084016108e4565b600061110887610c72565b905080156111585760405162461bcd60e51b815260206004820152601a60248201527f73657474696e6720636f6d7074726f6c6c6572206661696c656400000000000060448201526064016108e4565b43600955670de0b6b3a7640000600a5561117186611e0d565b905080156111cc5760405162461bcd60e51b815260206004820152602260248201527f73657474696e6720696e7465726573742072617465206d6f64656c206661696c604482015261195960f21b60648201526084016108e4565b60016111d885826139cf565b5060026111e584826139cf565b50506003805460ff90921660ff199283161790556000805490911660011790555050505050565b600061086b82611f82565b600954600090439081810361122f5760009250505090565b6000611239611b89565b600b54600c54600a546006546040516315f2405360e01b81526004810186905260248101859052604481018490529495509293919290916000916001600160a01b0316906315f2405390606401602060405180830381865afa1580156112a3573d6000803e3d6000fd5b505050506040513d601f19601f820116820180604052508101906112c79190613949565b905065048c2739500081111561131f5760405162461bcd60e51b815260206004820152601c60248201527f626f72726f772072617465206973206162737572646c7920686967680000000060448201526064016108e4565b600061132b8789613aa5565b9050600061134760405180602001604052808581525083611fc1565b905060006113558288611b69565b905060006113638883613ab8565b905060006113826040518060200160405280600854815250848a611ff2565b9050600061139185898a611ff2565b60098e9055600a819055600b849055600c839055604080518d815260208101879052908101829052606081018590529091507f4dec04e750ca11537cabcd8a9eab06494de08da3735bc8871cd41250e190bc049060800160405180910390a160009d505050505050505050505050505090565b6000805460ff166114275760405162461bcd60e51b81526004016108e490613925565b6000805460ff1916815561143d338086866118eb565b1490506000805460ff1916600117905592915050565b6006546000906001600160a01b031663b816881661146f611b89565b600b54600c546008546040516001600160e01b031960e087901b16815260048101949094526024840192909252604483015260648201526084015b602060405180830381865afa1580156114c7573d6000803e3d6000fd5b505050506040513d601f19601f8201168201806040525081019061094c9190613949565b6000805460ff1661150e5760405162461bcd60e51b81526004016108e490613925565b6000805460ff1916905561152433858585612013565b50600080805460ff191660011790559392505050565b60035460009061010090046001600160a01b0316331461156d57604051635cb56c2b60e01b815260040160405180910390fd5b600480546001600160a01b038481166001600160a01b031983168117909355604080519190921680825260208201939093527fca4f2f25d0898edd99413412fb94012f9e54ec8142f9b093e7720646a95b16a99101610db3565b6000805460ff166115ea5760405162461bcd60e51b81526004016108e490613925565b6000805460ff191690556115fc611217565b50611605610942565b90506000805460ff1916600117905590565b6001600160a01b0381166000908152600e6020526040812054819081908190819061164187611dc1565b611649611883565b93509350935093509193509193565b600061086b8261228b565b600061086b826122ca565b6004546000906001600160a01b031633141580611689575033155b156116a757604051631ba24f2960e21b815260040160405180910390fd5b60038054600480546001600160a01b03808216610100818102610100600160a81b0319871617968790556001600160a01b031990931690935560408051948390048216808652929095041660208401529290917ff9ffabca9c8276e99321725bcb43fb076a6c66a54b7f21c4e8146d8519b417dc910160405180910390a1600454604080516001600160a01b03808516825290921660208301527fca4f2f25d0898edd99413412fb94012f9e54ec8142f9b093e7720646a95b16a9910160405180910390a160009250505090565b600061177f611217565b5061085a82611e0d565b600061179684848461230b565b5060009392505050565b6006546000906001600160a01b03166315f240536117bc611b89565b600b54600c546040516001600160e01b031960e086901b1681526004810193909352602483019190915260448201526064016114aa565b6000805460ff166118165760405162461bcd60e51b81526004016108e490613925565b6000805460ff19169055611828611217565b5061092e826123e9565b60005460ff166118545760405162461bcd60e51b81526004016108e490613925565b6000805460ff19169055611866611217565b506118723333836124a5565b50506000805460ff19166001179055565b600d5460009080820361189857505060075490565b60006118a2611b89565b90506000600c54600b54836118b79190613ab8565b6118c19190613aa5565b90506000836118d8670de0b6b3a764000084613acb565b6118e29190613ae2565b95945050505050565b6005546040516317b9b84b60e31b81523060048201526001600160a01b038581166024830152848116604483015260648201849052600092839291169063bdcdc258906084016020604051808303816000875af1158015611950573d6000803e3d6000fd5b505050506040513d601f19601f820116820180604052508101906119749190613949565b905080156119985760405163089d427760e11b8152600481018290526024016108e4565b836001600160a01b0316856001600160a01b0316036119ca57604051638cd22d1960e01b815260040160405180910390fd5b6000856001600160a01b0316876001600160a01b0316036119ee5750600019611a16565b506001600160a01b038086166000908152600f60209081526040808320938a16835292905220545b6000611a228583613aa5565b6001600160a01b0388166000908152600e602052604081205491925090611a4a908790613aa5565b6001600160a01b0388166000908152600e602052604081205491925090611a72908890613ab8565b6001600160a01b03808b166000908152600e6020526040808220869055918b1681522081905590506000198414611acc576001600160a01b03808a166000908152600f60209081526040808320938e168352929052208390555b876001600160a01b0316896001600160a01b0316600080516020613b6e83398151915289604051611aff91815260200190565b60405180910390a35060009998505050505050505050565b60005460ff16611b395760405162461bcd60e51b81526004016108e490613925565b6000805460ff19169055611b4b611217565b50611b573383836124a5565b50506000805460ff1916600117905550565b600080611b768484611fc1565b9050611b818161264e565b949350505050565b6011546040516370a0823160e01b81523060048201526000916001600160a01b03169081906370a0823190602401602060405180830381865afa158015611bd4573d6000803e3d6000fd5b505050506040513d601f19601f82011682018060405250810190611bf89190613949565b91505090565b6000805460ff16611c215760405162461bcd60e51b81526004016108e490613925565b6000805460ff19169055611c33611217565b50611c3d82612666565b5050600090506000805460ff19166001179055919050565b600354600090819061010090046001600160a01b03163314611c8a57604051630f7e5e6d60e41b815260040160405180910390fd5b4360095414611cac57604051630dff50cb60e41b815260040160405180910390fd5b82611cb5611b89565b1015611cd457604051633345e99960e01b815260040160405180910390fd5b600c54831115611cf7576040516378d2980560e11b815260040160405180910390fd5b82600c54611d059190613aa5565b600c819055600354909150611d289061010090046001600160a01b0316846126fa565b7f3bad0c59cf2f06e7314077049f48a93578cd16f5ef92329f1dab1420a99c177e600360019054906101000a90046001600160a01b03168483604051610db393929190613b04565b60005460ff16611d925760405162461bcd60e51b81526004016108e490613925565b6000805460ff19169055611da4611217565b50611db1336000836127e4565b506000805460ff19166001179055565b6001600160a01b038116600090815260106020526040812080548203611dea5750600092915050565b600a548154600091611dfb91613acb565b9050816001015481611b819190613ae2565b600354600090819061010090046001600160a01b03163314611e425760405163407fded560e01b815260040160405180910390fd5b4360095414611e6457604051630be2a5cb60e11b815260040160405180910390fd5b600660009054906101000a90046001600160a01b03169050826001600160a01b0316632191f92a6040518163ffffffff1660e01b8152600401602060405180830381865afa158015611eba573d6000803e3d6000fd5b505050506040513d601f19601f82011682018060405250810190611ede9190613962565b611f2a5760405162461bcd60e51b815260206004820152601c60248201527f6d61726b6572206d6574686f642072657475726e65642066616c73650000000060448201526064016108e4565b600680546001600160a01b0319166001600160a01b0385811691821790925560408051928416835260208301919091527fedffc32e068c7c95dfd4bdfd5c4d939a084d6b11c4199eac8436ed234d72f9269101610db3565b60005460ff16611fa45760405162461bcd60e51b81526004016108e490613925565b6000805460ff19169055611fb6611217565b50611db13382612ac1565b6040805160208101909152600081526040518060200160405280611fe9856000015185612c77565b90529392505050565b600080611fff8585611fc1565b90506118e261200d8261264e565b84612c83565b60055460405163d02f735160e01b81523060048201526001600160a01b0386811660248301528581166044830152848116606483015260848201849052600092169063d02f73519060a4016020604051808303816000875af115801561207d573d6000803e3d6000fd5b505050506040513d601f19601f820116820180604052508101906120a19190613949565b905080156120c5576040516363e00e3360e11b8152600481018290526024016108e4565b836001600160a01b0316836001600160a01b0316036120f757604051633a94626760e11b815260040160405180910390fd5b6000612118836040518060200160405280666379da05b60000815250612c8f565b905060006121268285613aa5565b90506000604051806020016040528061213d611883565b90529050600061214d8285611b69565b9050600081600c5461215f9190613ab8565b600c819055600d54909150612175908690613aa5565b600d556001600160a01b0388166000908152600e602052604090205461219c908890613aa5565b6001600160a01b03808a166000908152600e602052604080822093909355908b16815220546121cc908590613ab8565b6001600160a01b03808b166000818152600e602052604090819020939093559151908a1690600080516020613b6e8339815191529061220e9088815260200190565b60405180910390a360405185815230906001600160a01b038a1690600080516020613b6e8339815191529060200160405180910390a37fa91e67c5ea634cd43a12c5a482724b03de01e85ca68702a53d0c2f45cb7c1dc530838360405161227793929190613b04565b60405180910390a150505050505050505050565b60005460ff166122ad5760405162461bcd60e51b81526004016108e490613925565b6000805460ff191690556122bf611217565b50611db13382612cb2565b60005460ff166122ec5760405162461bcd60e51b81526004016108e490613925565b6000805460ff191690556122fe611217565b50611db1338260006127e4565b60005460ff1661232d5760405162461bcd60e51b81526004016108e490613925565b6000805460ff1916905561233f611217565b506000816001600160a01b031663a6afed956040518163ffffffff1660e01b81526004016020604051808303816000875af1158015612382573d6000803e3d6000fd5b505050506040513d601f19601f820116820180604052508101906123a69190613949565b905080156123ca57604051633eea49b760e11b8152600481018290526024016108e4565b6123d633858585612e51565b50506000805460ff191660011790555050565b60035460009061010090046001600160a01b0316331461241c57604051631205b57b60e11b815260040160405180910390fd5b436009541461243e57604051637dfca6b760e11b815260040160405180910390fd5b670de0b6b3a76400008211156124675760405163717220f360e11b815260040160405180910390fd5b600880549083905560408051828152602081018590527faaa68312e2ea9d50e16af5068410ab56e1a1fd06037b1a35664812c30f8214609101610db3565b600554604051631200453160e11b81523060048201526001600160a01b03858116602483015284811660448301526064820184905260009283929116906324008a62906084016020604051808303816000875af115801561250a573d6000803e3d6000fd5b505050506040513d601f19601f8201168201806040525081019061252e9190613949565b9050801561255257604051638c81362d60e01b8152600481018290526024016108e4565b43600954146125745760405163c9021e2f60e01b815260040160405180910390fd5b600061257f85611dc1565b9050600060001985146125925784612594565b815b905060006125a2888361330b565b905060006125b08285613aa5565b9050600082600b546125c29190613aa5565b6001600160a01b038a8116600081815260106020908152604091829020878155600a54600190910155600b8590558151938f168452830191909152810185905260608101849052608081018290529091507f1a2a22cb034d26d1854bdc6666a5b91fe25efbbb5dcad3b0355478d6f5c362a19060a00160405180910390a1509098975050505050505050565b805160009061085a90670de0b6b3a764000090613ae2565b60008080804360095414612690576040516338acf79960e01b8152600481018290526024016108e4565b61269a338661330b565b905080600c546126aa9190613ab8565b915081600c819055507fa91e67c5ea634cd43a12c5a482724b03de01e85ca68702a53d0c2f45cb7c1dc53382846040516126e693929190613b04565b60405180910390a160009590945092505050565b60115460405163a9059cbb60e01b81526001600160a01b0384811660048301526024820184905290911690819063a9059cbb90604401600060405180830381600087803b15801561274a57600080fd5b505af115801561275e573d6000803e3d6000fd5b5050505060003d6000811461277a576020811461278457600080fd5b6000199150612790565b60206000803e60005191505b50806127de5760405162461bcd60e51b815260206004820152601960248201527f544f4b454e5f5452414e534645525f4f55545f4641494c45440000000000000060448201526064016108e4565b50505050565b8115806127ef575080155b6128585760405162461bcd60e51b815260206004820152603460248201527f6f6e65206f662072656465656d546f6b656e73496e206f722072656465656d416044820152736d6f756e74496e206d757374206265207a65726f60601b60648201526084016108e4565b6000604051806020016040528061286d611883565b90529050600080841561288e578491506128878386611b69565b905061289e565b61289884846134e2565b91508390505b60055460405163eabe7d9160e01b81526000916001600160a01b03169063eabe7d91906128d39030908b908890600401613b25565b6020604051808303816000875af11580156128f2573d6000803e3d6000fd5b505050506040513d601f19601f820116820180604052508101906129169190613949565b9050801561293a5760405163480f424760e01b8152600481018290526024016108e4565b436009541461295c576040516397b5cfcd60e01b815260040160405180910390fd5b81612965611b89565b1015612984576040516391240a1b60e01b815260040160405180910390fd5b82600d546129929190613aa5565b600d556001600160a01b0387166000908152600e60205260409020546129b9908490613aa5565b6001600160a01b0388166000908152600e60205260409020556129dc87836126fa565b60405183815230906001600160a01b03891690600080516020613b6e8339815191529060200160405180910390a37fe5b754fb1abb7f01b499791d0b820ae3b6af3424ac1c59768edb53f4ec31a929878385604051612a3d93929190613b04565b60405180910390a16005546040516351dff98960e01b81523060048201526001600160a01b0389811660248301526044820185905260648201869052909116906351dff98990608401600060405180830381600087803b158015612aa057600080fd5b505af1158015612ab4573d6000803e3d6000fd5b5050505050505050505050565b600554604051634ef4c3e160e01b81526000916001600160a01b031690634ef4c3e190612af690309087908790600401613b25565b6020604051808303816000875af1158015612b15573d6000803e3d6000fd5b505050506040513d601f19601f82011682018060405250810190612b399190613949565b90508015612b5d576040516349abd4fd60e01b8152600481018290526024016108e4565b4360095414612b7f576040516338d8859760e01b815260040160405180910390fd5b60006040518060200160405280612b94611883565b905290506000612ba4858561330b565b90506000612bb282846134e2565b905080600d54612bc29190613ab8565b600d556001600160a01b0386166000908152600e6020526040902054612be9908290613ab8565b6001600160a01b0387166000908152600e60205260409081902091909155517f4c209b5fc8ad50758f13e2e1088ba56a560dff690a1c6fef26394f4c03821c4f90612c3990889085908590613b04565b60405180910390a16040518181526001600160a01b038716903090600080516020613b6e8339815191529060200160405180910390a3505050505050565b6000610c568284613acb565b6000610c568284613ab8565b6000670de0b6b3a7640000612ca8848460000151612c77565b610c569190613ae2565b60055460405163368f515360e21b81526000916001600160a01b03169063da3d454c90612ce790309087908790600401613b25565b6020604051808303816000875af1158015612d06573d6000803e3d6000fd5b505050506040513d601f19601f82011682018060405250810190612d2a9190613949565b90508015612d4e5760405163918db40f60e01b8152600481018290526024016108e4565b4360095414612d7057604051630e8d8c6160e21b815260040160405180910390fd5b81612d79611b89565b1015612d98576040516348c2588160e01b815260040160405180910390fd5b6000612da384611dc1565b90506000612db18483613ab8565b9050600084600b54612dc39190613ab8565b6001600160a01b0387166000908152601060205260409020838155600a54600190910155600b8190559050612df886866126fa565b604080516001600160a01b038816815260208101879052908101839052606081018290527f13ed6866d4e1ee6da46f845c46d7e54120883d75c5ea9a2dacc1c4ca8984ab809060800160405180910390a1505050505050565b600554604051632fe3f38f60e11b81523060048201526001600160a01b03838116602483015286811660448301528581166064830152608482018590526000921690635fc7e71e9060a4016020604051808303816000875af1158015612ebb573d6000803e3d6000fd5b505050506040513d601f19601f82011682018060405250810190612edf9190613949565b90508015612f0357604051630a14d17960e11b8152600481018290526024016108e4565b4360095414612f25576040516380965b1b60e01b815260040160405180910390fd5b43826001600160a01b0316636c540baf6040518163ffffffff1660e01b8152600401602060405180830381865afa158015612f64573d6000803e3d6000fd5b505050506040513d601f19601f82011682018060405250810190612f889190613949565b14612fa657604051631046f38d60e31b815260040160405180910390fd5b846001600160a01b0316846001600160a01b031603612fd857604051631bd1a62160e21b815260040160405180910390fd5b82600003612ff95760405163d29da7ef60e01b815260040160405180910390fd5b600019830361301b57604051635982c5bb60e11b815260040160405180910390fd5b60006130288686866124a5565b60055460405163c488847b60e01b815291925060009182916001600160a01b03169063c488847b9061306290309089908890600401613b25565b6040805180830381865afa15801561307e573d6000803e3d6000fd5b505050506040513d601f19601f820116820180604052508101906130a29190613b49565b91509150600082146131125760405162461bcd60e51b815260206004820152603360248201527f4c49515549444154455f434f4d5054524f4c4c45525f43414c43554c4154455f604482015272105353d5539517d4d152569157d19052531151606a1b60648201526084016108e4565b6040516370a0823160e01b81526001600160a01b0388811660048301528291908716906370a0823190602401602060405180830381865afa15801561315b573d6000803e3d6000fd5b505050506040513d601f19601f8201168201806040525081019061317f9190613949565b10156131cd5760405162461bcd60e51b815260206004820152601860248201527f4c49515549444154455f5345495a455f544f4f5f4d554348000000000000000060448201526064016108e4565b306001600160a01b038616036131ee576131e930898984612013565b6132a8565b60405163b2a02ff160e01b81526000906001600160a01b0387169063b2a02ff190613221908c908c908790600401613b25565b6020604051808303816000875af1158015613240573d6000803e3d6000fd5b505050506040513d601f19601f820116820180604052508101906132649190613949565b146132a85760405162461bcd60e51b81526020600482015260146024820152731d1bdad95b881cd95a5e9d5c994819985a5b195960621b60448201526064016108e4565b604080516001600160a01b038a811682528981166020830152818301869052871660608201526080810183905290517f298637f684da70674f26509b10f07ec2fbc77a335ab1e7d6215a4b2484d8bb529181900360a00190a15050505050505050565b6011546040516370a0823160e01b81523060048201526000916001600160a01b0316908190839082906370a0823190602401602060405180830381865afa15801561335a573d6000803e3d6000fd5b505050506040513d601f19601f8201168201806040525081019061337e9190613949565b6040516323b872dd60e01b81529091506001600160a01b038316906323b872dd906133b190899030908a90600401613b25565b600060405180830381600087803b1580156133cb57600080fd5b505af11580156133df573d6000803e3d6000fd5b5050505060003d600081146133fb576020811461340557600080fd5b6000199150613411565b60206000803e60005191505b508061345f5760405162461bcd60e51b815260206004820152601860248201527f544f4b454e5f5452414e534645525f494e5f4641494c4544000000000000000060448201526064016108e4565b6040516370a0823160e01b81523060048201526000906001600160a01b038616906370a0823190602401602060405180830381865afa1580156134a6573d6000803e3d6000fd5b505050506040513d601f19601f820116820180604052508101906134ca9190613949565b90506134d68382613aa5565b98975050505050505050565b6000610c566134f984670de0b6b3a7640000612c77565b83516000610c568284613ae2565b600060208083528351808285015260005b8181101561353457858101830151858201604001528201613518565b506000604082860101526040601f19601f8301168501019250505092915050565b6001600160a01b0381168114610e3957600080fd5b6000806040838503121561357d57600080fd5b823561358881613555565b946020939093013593505050565b6000602082840312156135a857600080fd5b5035919050565b6000602082840312156135c157600080fd5b8135610c5681613555565b634e487b7160e01b600052604160045260246000fd5b600067ffffffffffffffff808411156135fd576135fd6135cc565b604051601f8501601f19908116603f01168101908282118183101715613625576136256135cc565b8160405280935085815286868601111561363e57600080fd5b858560208301376000602087830101525050509392505050565b600082601f83011261366957600080fd5b610c56838335602085016135e2565b803560ff8116811461368957600080fd5b919050565b600080600080600080600060e0888a0312156136a957600080fd5b87356136b481613555565b965060208801356136c481613555565b955060408801356136d481613555565b945060608801359350608088013567ffffffffffffffff808211156136f857600080fd5b6137048b838c01613658565b945060a08a013591508082111561371a57600080fd5b506137278a828b01613658565b92505061373660c08901613678565b905092959891949750929550565b60008060006060848603121561375957600080fd5b833561376481613555565b9250602084013561377481613555565b929592945050506040919091013590565b60006020828403121561379757600080fd5b813567ffffffffffffffff8111156137ae57600080fd5b8201601f810184136137bf57600080fd5b611b81848235602084016135e2565b60008060008060008060c087890312156137e757600080fd5b86356137f281613555565b9550602087013561380281613555565b945060408701359350606087013567ffffffffffffffff8082111561382657600080fd5b6138328a838b01613658565b9450608089013591508082111561384857600080fd5b5061385589828a01613658565b92505061386460a08801613678565b90509295509295509295565b6000806040838503121561388357600080fd5b823561388e81613555565b9150602083013561389e81613555565b809150509250929050565b6000806000606084860312156138be57600080fd5b83356138c981613555565b92506020840135915060408401356138e081613555565b809150509250925092565b600181811c908216806138ff57607f821691505b60208210810361391f57634e487b7160e01b600052602260045260246000fd5b50919050565b6020808252600a90820152691c994b595b9d195c995960b21b604082015260600190565b60006020828403121561395b57600080fd5b5051919050565b60006020828403121561397457600080fd5b81518015158114610c5657600080fd5b601f8211156139ca57600081815260208120601f850160051c810160208610156139ab5750805b601f850160051c820191505b81811015610baa578281556001016139b7565b505050565b815167ffffffffffffffff8111156139e9576139e96135cc565b6139fd816139f784546138eb565b84613984565b602080601f831160018114613a325760008415613a1a5750858301515b600019600386901b1c1916600185901b178555610baa565b600085815260208120601f198616915b82811015613a6157888601518255948401946001909101908401613a42565b5085821015613a7f5787850151600019600388901b60f8161c191681555b5050505050600190811b01905550565b634e487b7160e01b600052601160045260246000fd5b8181038181111561085a5761085a613a8f565b8082018082111561085a5761085a613a8f565b808202811582820484141761085a5761085a613a8f565b600082613aff57634e487b7160e01b600052601260045260246000fd5b500490565b6001600160a01b039390931683526020830191909152604082015260600190565b6001600160a01b039384168152919092166020820152604081019190915260600190565b60008060408385031215613b5c57600080fd5b50508051602090910151909290915056feddf252ad1be2c89b69c2b068fc378daa952ba7f163c4a11628f55a4df523b3efa26469706673582212203c702a6720648e0f744aa2274e02947c8d7bd5e56529f4b9844d752bfa08cb4d64736f6c63430008150033",
    "linkReferences": {}
  },
  "methodIdentifiers": {
    "NO_ERROR()": "69ab3250",
    "_acceptAdmin()": "e9c714f2",
    "_addReserves(uint256)": "3e941010",
    "_becomeImplementation(bytes)": "56e67728",
    "_delegateCompLikeTo(address)": "7f1e06be",
    "_reduceReserves(uint256)": "601a0bf1",
    "_resignImplementation()": "153ab505",
    "_setComptroller(address)": "4576b5db",
    "_setInterestRateModel(address)": "f2b3abbd",
    "_setPendingAdmin(address)": "b71d1a0c",
    "_setReserveFactor(uint256)": "fca7820b",
    "accrualBlockNumber()": "6c540baf",
    "accrueInterest()": "a6afed95",
    "admin()": "f851a440",
    "allowance(address,address)": "dd62ed3e",
    "approve(address,uint256)": "095ea7b3",
    "balanceOf(address)": "70a08231",
    "balanceOfUnderlying(address)": "3af9e669",
    "borrow(uint256)": "c5ebeaec",
    "borrowBalanceCurrent(address)": "17bfdfbc",
    "borrowBalanceStored(address)": "95dd9193",
    "borrowIndex()": "aa5af0fd",
    "borrowRatePerBlock()": "f8f9da28",
    "comptroller()": "5fe3b567",
    "decimals()": "313ce567",
    "exchangeRateCurrent()": "bd6d894d",
    "exchangeRateStored()": "182df0f5",
    "getAccountSnapshot(address)": "c37f68e2",
    "getCash()": "3b1d21a2",
    "implementation()": "5c60da1b",
    "initialize(address,address,address,uint256,string,string,uint8)": "1a31d465",
    "initialize(address,address,uint256,string,string,uint8)": "99d8c1b4",
    "interestRateModel()": "f3fdb15a",
    "isCToken()": "fe9c44ae",
    "liquidateBorrow(address,uint256,address)": "f5e3c462",
    "mint(uint256)": "a0712d68",
    "name()": "06fdde03",
    "pendingAdmin()": "26782247",
    "protocolSeizeShareMantissa()": "6752e702",
    "redeem(uint256)": "db006a75",
    "redeemUnderlying(uint256)": "852a12e3",
    "repayBorrow(uint256)": "0e752702",
    "repayBorrowBehalf(address,uint256)": "2608f818",
    "reserveFactorMantissa()": "173b9904",
    "seize(address,address,uint256)": "b2a02ff1",
    "supplyRatePerBlock()": "ae9d70b0",
    "sweepToken(address)": "1be19560",
    "symbol()": "95d89b41",
    "totalBorrows()": "47bd3718",
    "totalBorrowsCurrent()": "73acee98",
    "totalReserves()": "8f840ddd",
    "totalSupply()": "18160ddd",
    "transfer(address,uint256)": "a9059cbb",
    "transferFrom(address,address,uint256)": "23b872dd",
    "underlying()": "6f307dc3"
  },
  "id": 1
}