{
  "abi": [
    {
      "anonymous": false,
      "inputs": [
        {
          "indexed": false,
          "internalType": "address",
          "name": "asset",
          "type": "address"
        },
        {
          "indexed": false,
          "internalType": "uint256",
          "name": "previousPriceMantissa",
          "type": "uint256"
        },
        {
          "indexed": false,
          "internalType": "uint256",
          "name": "requestedPriceMantissa",
          "type": "uint256"
        },
        {
          "indexed": false,
          "internalType": "uint256",
          "name": "newPriceMantissa",
          "type": "uint256"
        }
      ],
      "name": "PricePosted",
      "type": "event"
    },
    {
      "inputs": [
        {
          "internalType": "address",
          "name": "asset",
          "type": "address"
        }
      ],
      "name": "assetPrices",
      "outputs": [
        {
          "internalType": "uint256",
          "name": "",
          "type": "uint256"
        }
      ],
      "stateMutability": "view",
      "type": "function"
    },
    {
      "inputs": [
        {
          "internalType": "contract CToken",
          "name": "cToken",
          "type": "address"
        }
      ],
      "name": "getUnderlyingPrice",
      "outputs": [
        {
          "internalType": "uint256",
          "name": "",
          "type": "uint256"
        }
      ],
      "stateMutability": "view",
      "type": "function"
    },
    {
      "inputs": [],
      "name": "isPriceOracle",
      "outputs": [
        {
          "internalType": "bool",
          "name": "",
          "type": "bool"
        }
      ],
      "stateMutability": "view",
      "type": "function"
    },
    {
      "inputs": [
        {
          "internalType": "address",
          "name": "asset",
          "type": "address"
        },
        {
          "internalType": "uint256",
          "name": "price",
          "type": "uint256"
        }
      ],
      "name": "setDirectPrice",
      "outputs": [],
      "stateMutability": "nonpayable",
      "type": "function"
    },
    {
      "inputs": [
        {
          "internalType": "contract CToken",
          "name": "cToken",
          "type": "address"
        },
        {
          "internalType": "uint256",
          "name": "underlyingPriceMantissa",
          "type": "uint256"
        }
      ],
      "name": "setUnderlyingPrice",
      "outputs": [],
      "stateMutability": "nonpayable",
      "type": "function"
    }
  ],
  "bytecode": {
    "object": "0x608060405234801561001057600080fd5b50610548806100206000396000f3fe608060405234801561001057600080fd5b50600436106100575760003560e01c806309a8acb01461005c578063127ffda0146100715780635e9a523c1461008457806366331bba146100c0578063fc57d4df146100d8575b600080fd5b61006f61006a3660046103a2565b6100eb565b005b61006f61007f3660046103a2565b610164565b6100ad6100923660046103ce565b6001600160a01b031660009081526020819052604090205490565b6040519081526020015b60405180910390f35b6100c8600181565b60405190151581526020016100b7565b6100ad6100e63660046103ce565b6101ea565b6001600160a01b03821660008181526020818152604091829020548251938452908301528101829052606081018290527fdd71a1d19fcba687442a1d5c58578f1e409af71a79d10fd95a4d66efd8fa9ae79060800160405180910390a16001600160a01b03909116600090815260208190526040902055565b600061016f83610218565b6001600160a01b03811660008181526020818152604091829020548251938452908301528101849052606081018490529091507fdd71a1d19fcba687442a1d5c58578f1e409af71a79d10fd95a4d66efd8fa9ae79060800160405180910390a16001600160a01b031660009081526020819052604090205550565b60008060006101f884610218565b6001600160a01b0316815260208101919091526040016000205492915050565b6000806102a6836001600160a01b03166395d89b416040518163ffffffff1660e01b8152600401600060405180830381865afa15801561025c573d6000803e3d6000fd5b505050506040513d6000823e601f3d908101601f19168201604052610284919081019061042c565b604051806040016040528060048152602001630c68aa8960e31b815250610331565b156102c6575073eeeeeeeeeeeeeeeeeeeeeeeeeeeeeeeeeeeeeeee61032b565b826001600160a01b0316636f307dc36040518163ffffffff1660e01b8152600401602060405180830381865afa158015610304573d6000803e3d6000fd5b505050506040513d601f19601f8201168201806040525081019061032891906104d9565b90505b92915050565b60008160405160200161034491906104f6565b604051602081830303815290604052805190602001208360405160200161036b91906104f6565b6040516020818303038152906040528051906020012014905092915050565b6001600160a01b038116811461039f57600080fd5b50565b600080604083850312156103b557600080fd5b82356103c08161038a565b946020939093013593505050565b6000602082840312156103e057600080fd5b81356103eb8161038a565b9392505050565b634e487b7160e01b600052604160045260246000fd5b60005b8381101561042357818101518382015260200161040b565b50506000910152565b60006020828403121561043e57600080fd5b815167ffffffffffffffff8082111561045657600080fd5b818401915084601f83011261046a57600080fd5b81518181111561047c5761047c6103f2565b604051601f8201601f19908116603f011681019083821181831017156104a4576104a46103f2565b816040528281528760208487010111156104bd57600080fd5b6104ce836020830160208801610408565b979650505050505050565b6000602082840312156104eb57600080fd5b81516103eb8161038a565b60008251610508818460208701610408565b919091019291505056fea26469706673582212202a77d808b835bae5b9389e5fbcf51a4f37581b375fd3b7e49029be1ffc0ecf9264736f6c63430008150033",
    "linkReferences": {}
  },
  "methodIdentifiers": {
    "assetPrices(address)": "5e9a523c",
    "getUnderlyingPrice(address)": "fc57d4df",
    "isPriceOracle()": "66331bba",
    "setDirectPrice(address,uint256)": "09a8acb0",
    "setUnderlyingPrice(address,uint256)": "127ffda0"
  },
  "id": 15
}